{
  "_format": "hh-sol-artifact-1",
  "contractName": "Exam",
  "sourceName": "contracts/Exam.sol",
  "abi": [
    {
      "inputs": [
        {
          "internalType": "string",
          "name": "_name",
          "type": "string"
        },
        {
          "internalType": "string",
          "name": "_symbol",
          "type": "string"
        },
        {
          "internalType": "string",
          "name": "_description",
          "type": "string"
        }
      ],
      "stateMutability": "nonpayable",
      "type": "constructor"
    },
    {
      "anonymous": false,
      "inputs": [
        {
          "indexed": true,
          "internalType": "address",
          "name": "owner",
          "type": "address"
        },
        {
          "indexed": true,
          "internalType": "address",
          "name": "approved",
          "type": "address"
        },
        {
          "indexed": true,
          "internalType": "uint256",
          "name": "tokenId",
          "type": "uint256"
        }
      ],
      "name": "Approval",
      "type": "event"
    },
    {
      "anonymous": false,
      "inputs": [
        {
          "indexed": true,
          "internalType": "address",
          "name": "owner",
          "type": "address"
        },
        {
          "indexed": true,
          "internalType": "address",
          "name": "operator",
          "type": "address"
        },
        {
          "indexed": false,
          "internalType": "bool",
          "name": "approved",
          "type": "bool"
        }
      ],
      "name": "ApprovalForAll",
      "type": "event"
    },
    {
      "anonymous": false,
      "inputs": [
        {
          "indexed": true,
          "internalType": "address",
          "name": "previousOwner",
          "type": "address"
        },
        {
          "indexed": true,
          "internalType": "address",
          "name": "newOwner",
          "type": "address"
        }
      ],
      "name": "OwnershipTransferred",
      "type": "event"
    },
    {
      "anonymous": false,
      "inputs": [
        {
          "indexed": true,
          "internalType": "address",
          "name": "from",
          "type": "address"
        },
        {
          "indexed": true,
          "internalType": "address",
          "name": "to",
          "type": "address"
        },
        {
          "indexed": true,
          "internalType": "uint256",
          "name": "tokenId",
          "type": "uint256"
        }
      ],
      "name": "Transfer",
      "type": "event"
    },
    {
      "inputs": [
        {
          "internalType": "address",
          "name": "to",
          "type": "address"
        },
        {
          "internalType": "uint256",
          "name": "tokenId",
          "type": "uint256"
        }
      ],
      "name": "approve",
      "outputs": [],
      "stateMutability": "nonpayable",
      "type": "function"
    },
    {
      "inputs": [
        {
          "internalType": "address",
          "name": "owner",
          "type": "address"
        }
      ],
      "name": "balanceOf",
      "outputs": [
        {
          "internalType": "uint256",
          "name": "",
          "type": "uint256"
        }
      ],
      "stateMutability": "view",
      "type": "function"
    },
    {
      "inputs": [
        {
          "internalType": "uint256",
          "name": "tokenId",
          "type": "uint256"
        }
      ],
      "name": "getApproved",
      "outputs": [
        {
          "internalType": "address",
          "name": "",
          "type": "address"
        }
      ],
      "stateMutability": "view",
      "type": "function"
    },
    {
      "inputs": [
        {
          "internalType": "address",
          "name": "_userAddress",
          "type": "address"
        }
      ],
      "name": "getParticipantResult",
      "outputs": [
        {
          "components": [
            {
              "internalType": "bool",
              "name": "isFinished",
              "type": "bool"
            },
            {
              "internalType": "uint8",
              "name": "score",
              "type": "uint8"
            },
            {
              "internalType": "bool",
              "name": "hasStarted",
              "type": "bool"
            }
          ],
          "internalType": "struct Exam.ExamParticipation",
          "name": "",
          "type": "tuple"
        }
      ],
      "stateMutability": "view",
      "type": "function"
    },
    {
      "inputs": [
        {
          "internalType": "address",
          "name": "owner",
          "type": "address"
        },
        {
          "internalType": "address",
          "name": "operator",
          "type": "address"
        }
      ],
      "name": "isApprovedForAll",
      "outputs": [
        {
          "internalType": "bool",
          "name": "",
          "type": "bool"
        }
      ],
      "stateMutability": "view",
      "type": "function"
    },
    {
      "inputs": [],
      "name": "name",
      "outputs": [
        {
          "internalType": "string",
          "name": "",
          "type": "string"
        }
      ],
      "stateMutability": "view",
      "type": "function"
    },
    {
      "inputs": [],
      "name": "owner",
      "outputs": [
        {
          "internalType": "address",
          "name": "",
          "type": "address"
        }
      ],
      "stateMutability": "view",
      "type": "function"
    },
    {
      "inputs": [
        {
          "internalType": "uint256",
          "name": "tokenId",
          "type": "uint256"
        }
      ],
      "name": "ownerOf",
      "outputs": [
        {
          "internalType": "address",
          "name": "",
          "type": "address"
        }
      ],
      "stateMutability": "view",
      "type": "function"
    },
    {
      "inputs": [
        {
          "internalType": "address",
          "name": "participantAddress",
          "type": "address"
        }
      ],
      "name": "participateInExam",
      "outputs": [],
      "stateMutability": "nonpayable",
      "type": "function"
    },
    {
      "inputs": [],
      "name": "renounceOwnership",
      "outputs": [],
      "stateMutability": "nonpayable",
      "type": "function"
    },
    {
      "inputs": [
        {
          "internalType": "address",
          "name": "from",
          "type": "address"
        },
        {
          "internalType": "address",
          "name": "to",
          "type": "address"
        },
        {
          "internalType": "uint256",
          "name": "tokenId",
          "type": "uint256"
        }
      ],
      "name": "safeTransferFrom",
      "outputs": [],
      "stateMutability": "nonpayable",
      "type": "function"
    },
    {
      "inputs": [
        {
          "internalType": "address",
          "name": "from",
          "type": "address"
        },
        {
          "internalType": "address",
          "name": "to",
          "type": "address"
        },
        {
          "internalType": "uint256",
          "name": "tokenId",
          "type": "uint256"
        },
        {
          "internalType": "bytes",
          "name": "data",
          "type": "bytes"
        }
      ],
      "name": "safeTransferFrom",
      "outputs": [],
      "stateMutability": "nonpayable",
      "type": "function"
    },
    {
      "inputs": [
        {
          "internalType": "uint8",
          "name": "_score",
          "type": "uint8"
        },
        {
          "internalType": "address",
          "name": "_participantAddress",
          "type": "address"
        }
      ],
      "name": "saveParticipantScore",
      "outputs": [],
      "stateMutability": "nonpayable",
      "type": "function"
    },
    {
      "inputs": [
        {
          "internalType": "address",
          "name": "operator",
          "type": "address"
        },
        {
          "internalType": "bool",
          "name": "approved",
          "type": "bool"
        }
      ],
      "name": "setApprovalForAll",
      "outputs": [],
      "stateMutability": "nonpayable",
      "type": "function"
    },
    {
      "inputs": [
        {
          "internalType": "bytes4",
          "name": "interfaceId",
          "type": "bytes4"
        }
      ],
      "name": "supportsInterface",
      "outputs": [
        {
          "internalType": "bool",
          "name": "",
          "type": "bool"
        }
      ],
      "stateMutability": "view",
      "type": "function"
    },
    {
      "inputs": [],
      "name": "symbol",
      "outputs": [
        {
          "internalType": "string",
          "name": "",
          "type": "string"
        }
      ],
      "stateMutability": "view",
      "type": "function"
    },
    {
      "inputs": [
        {
          "internalType": "uint256",
          "name": "tokenId",
          "type": "uint256"
        }
      ],
      "name": "tokenURI",
      "outputs": [
        {
          "internalType": "string",
          "name": "",
          "type": "string"
        }
      ],
      "stateMutability": "view",
      "type": "function"
    },
    {
      "inputs": [
        {
          "internalType": "address",
          "name": "from",
          "type": "address"
        },
        {
          "internalType": "address",
          "name": "to",
          "type": "address"
        },
        {
          "internalType": "uint256",
          "name": "tokenId",
          "type": "uint256"
        }
      ],
      "name": "transferFrom",
      "outputs": [],
      "stateMutability": "nonpayable",
      "type": "function"
    },
    {
      "inputs": [
        {
          "internalType": "address",
          "name": "newOwner",
          "type": "address"
        }
      ],
      "name": "transferOwnership",
      "outputs": [],
      "stateMutability": "nonpayable",
      "type": "function"
    }
  ],
  "bytecode": "0x6080604052604051806101600160405280610131815260200162003eb36101319139600b908051906020019062000038929190620001b2565b503480156200004657600080fd5b5060405162003fe438038062003fe483398181016040528101906200006c9190620003ff565b8282816000908051906020019062000086929190620001b2565b5080600190805190602001906200009f929190620001b2565b505050620000c2620000b6620000e460201b60201c565b620000ec60201b60201c565b8060099080519060200190620000da929190620001b2565b505050506200051d565b600033905090565b6000600760009054906101000a900473ffffffffffffffffffffffffffffffffffffffff16905081600760006101000a81548173ffffffffffffffffffffffffffffffffffffffff021916908373ffffffffffffffffffffffffffffffffffffffff1602179055508173ffffffffffffffffffffffffffffffffffffffff168173ffffffffffffffffffffffffffffffffffffffff167f8be0079c531659141344cd1fd0a4f28419497f9722a3daafe3b4186f6b6457e060405160405180910390a35050565b828054620001c090620004e7565b90600052602060002090601f016020900481019282620001e4576000855562000230565b82601f10620001ff57805160ff191683800117855562000230565b8280016001018555821562000230579182015b828111156200022f57825182559160200191906001019062000212565b5b5090506200023f919062000243565b5090565b5b808211156200025e57600081600090555060010162000244565b5090565b6000604051905090565b600080fd5b600080fd5b600080fd5b600080fd5b6000601f19601f8301169050919050565b7f4e487b7100000000000000000000000000000000000000000000000000000000600052604160045260246000fd5b620002cb8262000280565b810181811067ffffffffffffffff82111715620002ed57620002ec62000291565b5b80604052505050565b60006200030262000262565b9050620003108282620002c0565b919050565b600067ffffffffffffffff82111562000333576200033262000291565b5b6200033e8262000280565b9050602081019050919050565b60005b838110156200036b5780820151818401526020810190506200034e565b838111156200037b576000848401525b50505050565b600062000398620003928462000315565b620002f6565b905082815260208101848484011115620003b757620003b66200027b565b5b620003c48482856200034b565b509392505050565b600082601f830112620003e457620003e362000276565b5b8151620003f684826020860162000381565b91505092915050565b6000806000606084860312156200041b576200041a6200026c565b5b600084015167ffffffffffffffff8111156200043c576200043b62000271565b5b6200044a86828701620003cc565b935050602084015167ffffffffffffffff8111156200046e576200046d62000271565b5b6200047c86828701620003cc565b925050604084015167ffffffffffffffff811115620004a0576200049f62000271565b5b620004ae86828701620003cc565b9150509250925092565b7f4e487b7100000000000000000000000000000000000000000000000000000000600052602260045260246000fd5b600060028204905060018216806200050057607f821691505b60208210811415620005175762000516620004b8565b5b50919050565b613986806200052d6000396000f3fe608060405234801561001057600080fd5b50600436106101215760003560e01c80638da5cb5b116100ad578063b88d4fde11610071578063b88d4fde146102f2578063c87b56dd1461030e578063e41c3ce41461033e578063e985e9c51461036e578063f2fde38b1461039e57610121565b80638da5cb5b1461026257806395d89b411461028057806396e702f01461029e578063a22cb465146102ba578063b484be63146102d657610121565b806323b872dd116100f457806323b872dd146101c057806342842e0e146101dc5780636352211e146101f857806370a0823114610228578063715018a61461025857610121565b806301ffc9a71461012657806306fdde0314610156578063081812fc14610174578063095ea7b3146101a4575b600080fd5b610140600480360381019061013b91906121a2565b6103ba565b60405161014d91906121ea565b60405180910390f35b61015e61049c565b60405161016b919061229e565b60405180910390f35b61018e600480360381019061018991906122f6565b61052e565b60405161019b9190612364565b60405180910390f35b6101be60048036038101906101b991906123ab565b610574565b005b6101da60048036038101906101d591906123eb565b61068c565b005b6101f660048036038101906101f191906123eb565b6106ec565b005b610212600480360381019061020d91906122f6565b61070c565b60405161021f9190612364565b60405180910390f35b610242600480360381019061023d919061243e565b6107be565b60405161024f919061247a565b60405180910390f35b610260610876565b005b61026a61088a565b6040516102779190612364565b60405180910390f35b6102886108b4565b604051610295919061229e565b60405180910390f35b6102b860048036038101906102b3919061243e565b610946565b005b6102d460048036038101906102cf91906124c1565b610a19565b005b6102f060048036038101906102eb919061253a565b610a2f565b005b61030c600480360381019061030791906126af565b610b86565b005b610328600480360381019061032391906122f6565b610be8565b604051610335919061229e565b60405180910390f35b6103586004803603810190610353919061243e565b610cfb565b6040516103659190612792565b60405180910390f35b610388600480360381019061038391906127ad565b610e36565b60405161039591906121ea565b60405180910390f35b6103b860048036038101906103b3919061243e565b610eca565b005b60007f80ac58cd000000000000000000000000000000000000000000000000000000007bffffffffffffffffffffffffffffffffffffffffffffffffffffffff1916827bffffffffffffffffffffffffffffffffffffffffffffffffffffffff1916148061048557507f5b5e139f000000000000000000000000000000000000000000000000000000007bffffffffffffffffffffffffffffffffffffffffffffffffffffffff1916827bffffffffffffffffffffffffffffffffffffffffffffffffffffffff1916145b80610495575061049482610f4e565b5b9050919050565b6060600080546104ab9061281c565b80601f01602080910402602001604051908101604052809291908181526020018280546104d79061281c565b80156105245780601f106104f957610100808354040283529160200191610524565b820191906000526020600020905b81548152906001019060200180831161050757829003601f168201915b5050505050905090565b600061053982610fb8565b6004600083815260200190815260200160002060009054906101000a900473ffffffffffffffffffffffffffffffffffffffff169050919050565b600061057f8261070c565b90508073ffffffffffffffffffffffffffffffffffffffff168373ffffffffffffffffffffffffffffffffffffffff1614156105f0576040517f08c379a00000000000000000000000000000000000000000000000000000000081526004016105e7906128c0565b60405180910390fd5b8073ffffffffffffffffffffffffffffffffffffffff1661060f611003565b73ffffffffffffffffffffffffffffffffffffffff16148061063e575061063d81610638611003565b610e36565b5b61067d576040517f08c379a000000000000000000000000000000000000000000000000000000000815260040161067490612952565b60405180910390fd5b610687838361100b565b505050565b61069d610697611003565b826110c4565b6106dc576040517f08c379a00000000000000000000000000000000000000000000000000000000081526004016106d3906129e4565b60405180910390fd5b6106e7838383611159565b505050565b61070783838360405180602001604052806000815250610b86565b505050565b6000806002600084815260200190815260200160002060009054906101000a900473ffffffffffffffffffffffffffffffffffffffff169050600073ffffffffffffffffffffffffffffffffffffffff168173ffffffffffffffffffffffffffffffffffffffff1614156107b5576040517f08c379a00000000000000000000000000000000000000000000000000000000081526004016107ac90612a50565b60405180910390fd5b80915050919050565b60008073ffffffffffffffffffffffffffffffffffffffff168273ffffffffffffffffffffffffffffffffffffffff16141561082f576040517f08c379a000000000000000000000000000000000000000000000000000000000815260040161082690612ae2565b60405180910390fd5b600360008373ffffffffffffffffffffffffffffffffffffffff1673ffffffffffffffffffffffffffffffffffffffff168152602001908152602001600020549050919050565b61087e611194565b6108886000611212565b565b6000600760009054906101000a900473ffffffffffffffffffffffffffffffffffffffff16905090565b6060600180546108c39061281c565b80601f01602080910402602001604051908101604052809291908181526020018280546108ef9061281c565b801561093c5780601f106109115761010080835404028352916020019161093c565b820191906000526020600020905b81548152906001019060200180831161091f57829003601f168201915b5050505050905090565b61094e611194565b6040518060600160405280600015158152602001600060ff16815260200160011515815250600a60008373ffffffffffffffffffffffffffffffffffffffff1673ffffffffffffffffffffffffffffffffffffffff16815260200190815260200160002060008201518160000160006101000a81548160ff02191690831515021790555060208201518160000160016101000a81548160ff021916908360ff16021790555060408201518160000160026101000a81548160ff02191690831515021790555090505050565b610a2b610a24611003565b83836112d8565b5050565b7386a74f972a4e5f7ba795f80fd97e62151616406e73ffffffffffffffffffffffffffffffffffffffff163373ffffffffffffffffffffffffffffffffffffffff1614610ab1576040517f08c379a0000000000000000000000000000000000000000000000000000000008152600401610aa890612b74565b60405180910390fd5b60405180606001604052806001151581526020018360ff16815260200160011515815250600a60008373ffffffffffffffffffffffffffffffffffffffff1673ffffffffffffffffffffffffffffffffffffffff16815260200190815260200160002060008201518160000160006101000a81548160ff02191690831515021790555060208201518160000160016101000a81548160ff021916908360ff16021790555060408201518160000160026101000a81548160ff021916908315150217905550905050610b828183611445565b5050565b610b97610b91611003565b836110c4565b610bd6576040517f08c379a0000000000000000000000000000000000000000000000000000000008152600401610bcd906129e4565b60405180910390fd5b610be284848484611540565b50505050565b6060610bf382610fb8565b6000600660008481526020019081526020016000208054610c139061281c565b80601f0160208091040260200160405190810160405280929190818152602001828054610c3f9061281c565b8015610c8c5780601f10610c6157610100808354040283529160200191610c8c565b820191906000526020600020905b815481529060010190602001808311610c6f57829003601f168201915b505050505090506000610c9d61159c565b9050600081511415610cb3578192505050610cf6565b600082511115610ce8578082604051602001610cd0929190612bd0565b60405160208183030381529060405292505050610cf6565b610cf1846115b3565b925050505b919050565b610d0361206b565b600a60008373ffffffffffffffffffffffffffffffffffffffff1673ffffffffffffffffffffffffffffffffffffffff16815260200190815260200160002060000160029054906101000a900460ff16610d92576040517f08c379a0000000000000000000000000000000000000000000000000000000008152600401610d8990612c66565b60405180910390fd5b600a60008373ffffffffffffffffffffffffffffffffffffffff1673ffffffffffffffffffffffffffffffffffffffff1681526020019081526020016000206040518060600160405290816000820160009054906101000a900460ff161515151581526020016000820160019054906101000a900460ff1660ff1660ff1681526020016000820160029054906101000a900460ff1615151515815250509050919050565b6000600560008473ffffffffffffffffffffffffffffffffffffffff1673ffffffffffffffffffffffffffffffffffffffff16815260200190815260200160002060008373ffffffffffffffffffffffffffffffffffffffff1673ffffffffffffffffffffffffffffffffffffffff16815260200190815260200160002060009054906101000a900460ff16905092915050565b610ed2611194565b600073ffffffffffffffffffffffffffffffffffffffff168173ffffffffffffffffffffffffffffffffffffffff161415610f42576040517f08c379a0000000000000000000000000000000000000000000000000000000008152600401610f3990612cf8565b60405180910390fd5b610f4b81611212565b50565b60007f01ffc9a7000000000000000000000000000000000000000000000000000000007bffffffffffffffffffffffffffffffffffffffffffffffffffffffff1916827bffffffffffffffffffffffffffffffffffffffffffffffffffffffff1916149050919050565b610fc18161161b565b611000576040517f08c379a0000000000000000000000000000000000000000000000000000000008152600401610ff790612a50565b60405180910390fd5b50565b600033905090565b816004600083815260200190815260200160002060006101000a81548173ffffffffffffffffffffffffffffffffffffffff021916908373ffffffffffffffffffffffffffffffffffffffff160217905550808273ffffffffffffffffffffffffffffffffffffffff1661107e8361070c565b73ffffffffffffffffffffffffffffffffffffffff167f8c5be1e5ebec7d5bd14f71427d1e84f3dd0314c0f7b2291e5b200ac8c7c3b92560405160405180910390a45050565b6000806110d08361070c565b90508073ffffffffffffffffffffffffffffffffffffffff168473ffffffffffffffffffffffffffffffffffffffff16148061111257506111118185610e36565b5b8061115057508373ffffffffffffffffffffffffffffffffffffffff166111388461052e565b73ffffffffffffffffffffffffffffffffffffffff16145b91505092915050565b6040517f08c379a000000000000000000000000000000000000000000000000000000000815260040161118b90612d64565b60405180910390fd5b61119c611003565b73ffffffffffffffffffffffffffffffffffffffff166111ba61088a565b73ffffffffffffffffffffffffffffffffffffffff1614611210576040517f08c379a000000000000000000000000000000000000000000000000000000000815260040161120790612dd0565b60405180910390fd5b565b6000600760009054906101000a900473ffffffffffffffffffffffffffffffffffffffff16905081600760006101000a81548173ffffffffffffffffffffffffffffffffffffffff021916908373ffffffffffffffffffffffffffffffffffffffff1602179055508173ffffffffffffffffffffffffffffffffffffffff168173ffffffffffffffffffffffffffffffffffffffff167f8be0079c531659141344cd1fd0a4f28419497f9722a3daafe3b4186f6b6457e060405160405180910390a35050565b8173ffffffffffffffffffffffffffffffffffffffff168373ffffffffffffffffffffffffffffffffffffffff161415611347576040517f08c379a000000000000000000000000000000000000000000000000000000000815260040161133e90612e3c565b60405180910390fd5b80600560008573ffffffffffffffffffffffffffffffffffffffff1673ffffffffffffffffffffffffffffffffffffffff16815260200190815260200160002060008473ffffffffffffffffffffffffffffffffffffffff1673ffffffffffffffffffffffffffffffffffffffff16815260200190815260200160002060006101000a81548160ff0219169083151502179055508173ffffffffffffffffffffffffffffffffffffffff168373ffffffffffffffffffffffffffffffffffffffff167f17307eab39ab6107e8899845ad3d59bd9653f200f220920489ca2b5937696c318360405161143891906121ea565b60405180910390a3505050565b60006114516008611687565b905060006114768473ffffffffffffffffffffffffffffffffffffffff166014611695565b90506000600b61148461049c565b836114918760ff166118d1565b6040516020016114a494939291906130de565b604051602081830303815290604052905060006114f36114c261049c565b60096114cd85611a32565b6040516020016114df939291906132b4565b604051602081830303815290604052611a32565b9050600081604051602001611508919061335d565b60405160208183030381529060405290506115238786611bca565b61152d8582611be8565b6115376008611c5c565b50505050505050565b61154b848484611159565b61155784848484611c72565b611596576040517f08c379a000000000000000000000000000000000000000000000000000000000815260040161158d906133f1565b60405180910390fd5b50505050565b606060405180602001604052806000815250905090565b60606115be82610fb8565b60006115c861159c565b905060008151116115e85760405180602001604052806000815250611613565b806115f2846118d1565b604051602001611603929190612bd0565b6040516020818303038152906040525b915050919050565b60008073ffffffffffffffffffffffffffffffffffffffff166002600084815260200190815260200160002060009054906101000a900473ffffffffffffffffffffffffffffffffffffffff1673ffffffffffffffffffffffffffffffffffffffff1614159050919050565b600081600001549050919050565b6060600060028360026116a89190613440565b6116b2919061349a565b67ffffffffffffffff8111156116cb576116ca612584565b5b6040519080825280601f01601f1916602001820160405280156116fd5781602001600182028036833780820191505090505b5090507f300000000000000000000000000000000000000000000000000000000000000081600081518110611735576117346134f0565b5b60200101907effffffffffffffffffffffffffffffffffffffffffffffffffffffffffffff1916908160001a9053507f780000000000000000000000000000000000000000000000000000000000000081600181518110611799576117986134f0565b5b60200101907effffffffffffffffffffffffffffffffffffffffffffffffffffffffffffff1916908160001a905350600060018460026117d99190613440565b6117e3919061349a565b90505b6001811115611883577f3031323334353637383961626364656600000000000000000000000000000000600f861660108110611825576118246134f0565b5b1a60f81b82828151811061183c5761183b6134f0565b5b60200101907effffffffffffffffffffffffffffffffffffffffffffffffffffffffffffff1916908160001a905350600485901c94508061187c9061351f565b90506117e6565b50600084146118c7576040517f08c379a00000000000000000000000000000000000000000000000000000000081526004016118be90613595565b60405180910390fd5b8091505092915050565b60606000821415611919576040518060400160405280600181526020017f30000000000000000000000000000000000000000000000000000000000000008152509050611a2d565b600082905060005b6000821461194b578080611934906135b5565b915050600a82611944919061362d565b9150611921565b60008167ffffffffffffffff81111561196757611966612584565b5b6040519080825280601f01601f1916602001820160405280156119995781602001600182028036833780820191505090505b5090505b60008514611a26576001826119b2919061365e565b9150600a856119c19190613692565b60306119cd919061349a565b60f81b8183815181106119e3576119e26134f0565b5b60200101907effffffffffffffffffffffffffffffffffffffffffffffffffffffffffffff1916908160001a905350600a85611a1f919061362d565b945061199d565b8093505050505b919050565b60606000825190506000811415611a5b5760405180602001604052806000815250915050611bc5565b60006003600283611a6c919061349a565b611a76919061362d565b6004611a829190613440565b90506000602082611a93919061349a565b67ffffffffffffffff811115611aac57611aab612584565b5b6040519080825280601f01601f191660200182016040528015611ade5781602001600182028036833780820191505090505b5090506000604051806060016040528060408152602001613911604091399050600181016020830160005b86811015611b825760038101905062ffffff818a015116603f8160121c168401518060081b905060ff603f83600c1c1686015116810190508060081b905060ff603f8360061c1686015116810190508060081b905060ff603f831686015116810190508060e01b90508084526004840193505050611b09565b506003860660018114611b9c5760028114611bac57611bb7565b613d3d60f01b6002830352611bb7565b603d60f81b60018303525b508484525050819450505050505b919050565b611be4828260405180602001604052806000815250611e09565b5050565b611bf18261161b565b611c30576040517f08c379a0000000000000000000000000000000000000000000000000000000008152600401611c2790613735565b60405180910390fd5b80600660008481526020019081526020016000209080519060200190611c57929190612093565b505050565b6001816000016000828254019250508190555050565b6000611c938473ffffffffffffffffffffffffffffffffffffffff16611e64565b15611dfc578373ffffffffffffffffffffffffffffffffffffffff1663150b7a02611cbc611003565b8786866040518563ffffffff1660e01b8152600401611cde94939291906137aa565b602060405180830381600087803b158015611cf857600080fd5b505af1925050508015611d2957506040513d601f19601f82011682018060405250810190611d26919061380b565b60015b611dac573d8060008114611d59576040519150601f19603f3d011682016040523d82523d6000602084013e611d5e565b606091505b50600081511415611da4576040517f08c379a0000000000000000000000000000000000000000000000000000000008152600401611d9b906133f1565b60405180910390fd5b805181602001fd5b63150b7a0260e01b7bffffffffffffffffffffffffffffffffffffffffffffffffffffffff1916817bffffffffffffffffffffffffffffffffffffffffffffffffffffffff191614915050611e01565b600190505b949350505050565b611e138383611e87565b611e206000848484611c72565b611e5f576040517f08c379a0000000000000000000000000000000000000000000000000000000008152600401611e56906133f1565b60405180910390fd5b505050565b6000808273ffffffffffffffffffffffffffffffffffffffff163b119050919050565b600073ffffffffffffffffffffffffffffffffffffffff168273ffffffffffffffffffffffffffffffffffffffff161415611ef7576040517f08c379a0000000000000000000000000000000000000000000000000000000008152600401611eee90613884565b60405180910390fd5b611f008161161b565b15611f40576040517f08c379a0000000000000000000000000000000000000000000000000000000008152600401611f37906138f0565b60405180910390fd5b611f4c60008383612061565b6001600360008473ffffffffffffffffffffffffffffffffffffffff1673ffffffffffffffffffffffffffffffffffffffff1681526020019081526020016000206000828254611f9c919061349a565b92505081905550816002600083815260200190815260200160002060006101000a81548173ffffffffffffffffffffffffffffffffffffffff021916908373ffffffffffffffffffffffffffffffffffffffff160217905550808273ffffffffffffffffffffffffffffffffffffffff16600073ffffffffffffffffffffffffffffffffffffffff167fddf252ad1be2c89b69c2b068fc378daa952ba7f163c4a11628f55a4df523b3ef60405160405180910390a461205d60008383612066565b5050565b505050565b505050565b6040518060600160405280600015158152602001600060ff1681526020016000151581525090565b82805461209f9061281c565b90600052602060002090601f0160209004810192826120c15760008555612108565b82601f106120da57805160ff1916838001178555612108565b82800160010185558215612108579182015b828111156121075782518255916020019190600101906120ec565b5b5090506121159190612119565b5090565b5b8082111561213257600081600090555060010161211a565b5090565b6000604051905090565b600080fd5b600080fd5b60007fffffffff0000000000000000000000000000000000000000000000000000000082169050919050565b61217f8161214a565b811461218a57600080fd5b50565b60008135905061219c81612176565b92915050565b6000602082840312156121b8576121b7612140565b5b60006121c68482850161218d565b91505092915050565b60008115159050919050565b6121e4816121cf565b82525050565b60006020820190506121ff60008301846121db565b92915050565b600081519050919050565b600082825260208201905092915050565b60005b8381101561223f578082015181840152602081019050612224565b8381111561224e576000848401525b50505050565b6000601f19601f8301169050919050565b600061227082612205565b61227a8185612210565b935061228a818560208601612221565b61229381612254565b840191505092915050565b600060208201905081810360008301526122b88184612265565b905092915050565b6000819050919050565b6122d3816122c0565b81146122de57600080fd5b50565b6000813590506122f0816122ca565b92915050565b60006020828403121561230c5761230b612140565b5b600061231a848285016122e1565b91505092915050565b600073ffffffffffffffffffffffffffffffffffffffff82169050919050565b600061234e82612323565b9050919050565b61235e81612343565b82525050565b60006020820190506123796000830184612355565b92915050565b61238881612343565b811461239357600080fd5b50565b6000813590506123a58161237f565b92915050565b600080604083850312156123c2576123c1612140565b5b60006123d085828601612396565b92505060206123e1858286016122e1565b9150509250929050565b60008060006060848603121561240457612403612140565b5b600061241286828701612396565b935050602061242386828701612396565b9250506040612434868287016122e1565b9150509250925092565b60006020828403121561245457612453612140565b5b600061246284828501612396565b91505092915050565b612474816122c0565b82525050565b600060208201905061248f600083018461246b565b92915050565b61249e816121cf565b81146124a957600080fd5b50565b6000813590506124bb81612495565b92915050565b600080604083850312156124d8576124d7612140565b5b60006124e685828601612396565b92505060206124f7858286016124ac565b9150509250929050565b600060ff82169050919050565b61251781612501565b811461252257600080fd5b50565b6000813590506125348161250e565b92915050565b6000806040838503121561255157612550612140565b5b600061255f85828601612525565b925050602061257085828601612396565b9150509250929050565b600080fd5b600080fd5b7f4e487b7100000000000000000000000000000000000000000000000000000000600052604160045260246000fd5b6125bc82612254565b810181811067ffffffffffffffff821117156125db576125da612584565b5b80604052505050565b60006125ee612136565b90506125fa82826125b3565b919050565b600067ffffffffffffffff82111561261a57612619612584565b5b61262382612254565b9050602081019050919050565b82818337600083830152505050565b600061265261264d846125ff565b6125e4565b90508281526020810184848401111561266e5761266d61257f565b5b612679848285612630565b509392505050565b600082601f8301126126965761269561257a565b5b81356126a684826020860161263f565b91505092915050565b600080600080608085870312156126c9576126c8612140565b5b60006126d787828801612396565b94505060206126e887828801612396565b93505060406126f9878288016122e1565b925050606085013567ffffffffffffffff81111561271a57612719612145565b5b61272687828801612681565b91505092959194509250565b61273b816121cf565b82525050565b61274a81612501565b82525050565b6060820160008201516127666000850182612732565b5060208201516127796020850182612741565b50604082015161278c6040850182612732565b50505050565b60006060820190506127a76000830184612750565b92915050565b600080604083850312156127c4576127c3612140565b5b60006127d285828601612396565b92505060206127e385828601612396565b9150509250929050565b7f4e487b7100000000000000000000000000000000000000000000000000000000600052602260045260246000fd5b6000600282049050600182168061283457607f821691505b60208210811415612848576128476127ed565b5b50919050565b7f4552433732313a20617070726f76616c20746f2063757272656e74206f776e6560008201527f7200000000000000000000000000000000000000000000000000000000000000602082015250565b60006128aa602183612210565b91506128b58261284e565b604082019050919050565b600060208201905081810360008301526128d98161289d565b9050919050565b7f4552433732313a20617070726f76652063616c6c6572206973206e6f7420746f60008201527f6b656e206f776e6572206e6f7220617070726f76656420666f7220616c6c0000602082015250565b600061293c603e83612210565b9150612947826128e0565b604082019050919050565b6000602082019050818103600083015261296b8161292f565b9050919050565b7f4552433732313a2063616c6c6572206973206e6f7420746f6b656e206f776e6560008201527f72206e6f7220617070726f766564000000000000000000000000000000000000602082015250565b60006129ce602e83612210565b91506129d982612972565b604082019050919050565b600060208201905081810360008301526129fd816129c1565b9050919050565b7f4552433732313a20696e76616c696420746f6b656e2049440000000000000000600082015250565b6000612a3a601883612210565b9150612a4582612a04565b602082019050919050565b60006020820190508181036000830152612a6981612a2d565b9050919050565b7f4552433732313a2061646472657373207a65726f206973206e6f74206120766160008201527f6c6964206f776e65720000000000000000000000000000000000000000000000602082015250565b6000612acc602983612210565b9150612ad782612a70565b604082019050919050565b60006020820190508181036000830152612afb81612abf565b9050919050565b7f596f757220616464726573732069736e277420746865206261636b656e64206160008201527f6464726573732e00000000000000000000000000000000000000000000000000602082015250565b6000612b5e602783612210565b9150612b6982612b02565b604082019050919050565b60006020820190508181036000830152612b8d81612b51565b9050919050565b600081905092915050565b6000612baa82612205565b612bb48185612b94565b9350612bc4818560208601612221565b80840191505092915050565b6000612bdc8285612b9f565b9150612be88284612b9f565b91508190509392505050565b7f5468657265206973206e6f207061727469636970616e7420776974682074686960008201527f7320616464726573732e00000000000000000000000000000000000000000000602082015250565b6000612c50602a83612210565b9150612c5b82612bf4565b604082019050919050565b60006020820190508181036000830152612c7f81612c43565b9050919050565b7f4f776e61626c653a206e6577206f776e657220697320746865207a65726f206160008201527f6464726573730000000000000000000000000000000000000000000000000000602082015250565b6000612ce2602683612210565b9150612ced82612c86565b604082019050919050565b60006020820190508181036000830152612d1181612cd5565b9050919050565b7f596f752063616e6e6f74207472616e73666572204578616d20746f6b656e7300600082015250565b6000612d4e601f83612210565b9150612d5982612d18565b602082019050919050565b60006020820190508181036000830152612d7d81612d41565b9050919050565b7f4f776e61626c653a2063616c6c6572206973206e6f7420746865206f776e6572600082015250565b6000612dba602083612210565b9150612dc582612d84565b602082019050919050565b60006020820190508181036000830152612de981612dad565b9050919050565b7f4552433732313a20617070726f766520746f2063616c6c657200000000000000600082015250565b6000612e26601983612210565b9150612e3182612df0565b602082019050919050565b60006020820190508181036000830152612e5581612e19565b9050919050565b60008190508160005260206000209050919050565b60008154612e7e8161281c565b612e888186612b94565b94506001821660008114612ea35760018114612eb457612ee7565b60ff19831686528186019350612ee7565b612ebd85612e5c565b60005b83811015612edf57815481890152600182019150602081019050612ec0565b838801955050505b50505092915050565b7f3c747370616e20783d273530252720793d273235252720666f6e742d73697a6560008201527f3d2732307078273e000000000000000000000000000000000000000000000000602082015250565b6000612f4c602883612b94565b9150612f5782612ef0565b602882019050919050565b7f3c2f747370616e3e000000000000000000000000000000000000000000000000600082015250565b6000612f98600883612b94565b9150612fa382612f62565b600882019050919050565b7f3c747370616e20783d273530252720793d273530252720666f6e742d73697a6560008201527f3d2731347078273e000000000000000000000000000000000000000000000000602082015250565b600061300a602883612b94565b915061301582612fae565b602882019050919050565b7f3c747370616e20783d273530252720793d273735252720666f6e742d73697a6560008201527f3d2734307078273e000000000000000000000000000000000000000000000000602082015250565b600061307c602883612b94565b915061308782613020565b602882019050919050565b7f253c2f747370616e3e3c2f746578743e3c2f7376673e00000000000000000000600082015250565b60006130c8601683612b94565b91506130d382613092565b601682019050919050565b60006130ea8287612e71565b91506130f582612f3f565b91506131018286612b9f565b915061310c82612f8b565b915061311782612ffd565b91506131238285612b9f565b915061312e82612f8b565b91506131398261306f565b91506131458284612b9f565b9150613150826130bb565b915081905095945050505050565b7f7b226e616d65223a202200000000000000000000000000000000000000000000600082015250565b6000613194600a83612b94565b915061319f8261315e565b600a82019050919050565b7f222c20226465736372697074696f6e223a202200000000000000000000000000600082015250565b60006131e0601383612b94565b91506131eb826131aa565b601382019050919050565b7f222c2022696d616765223a2022646174613a696d6167652f7376672b786d6c3b60008201527f6261736536342c00000000000000000000000000000000000000000000000000602082015250565b6000613252602783612b94565b915061325d826131f6565b602782019050919050565b7f227d000000000000000000000000000000000000000000000000000000000000600082015250565b600061329e600283612b94565b91506132a982613268565b600282019050919050565b60006132bf82613187565b91506132cb8286612b9f565b91506132d6826131d3565b91506132e28285612e71565b91506132ed82613245565b91506132f98284612b9f565b915061330482613291565b9150819050949350505050565b7f646174613a6170706c69636174696f6e2f6a736f6e3b6261736536342c000000600082015250565b6000613347601d83612b94565b915061335282613311565b601d82019050919050565b60006133688261333a565b91506133748284612b9f565b915081905092915050565b7f4552433732313a207472616e7366657220746f206e6f6e20455243373231526560008201527f63656976657220696d706c656d656e7465720000000000000000000000000000602082015250565b60006133db603283612210565b91506133e68261337f565b604082019050919050565b6000602082019050818103600083015261340a816133ce565b9050919050565b7f4e487b7100000000000000000000000000000000000000000000000000000000600052601160045260246000fd5b600061344b826122c0565b9150613456836122c0565b9250817fffffffffffffffffffffffffffffffffffffffffffffffffffffffffffffffff048311821515161561348f5761348e613411565b5b828202905092915050565b60006134a5826122c0565b91506134b0836122c0565b9250827fffffffffffffffffffffffffffffffffffffffffffffffffffffffffffffffff038211156134e5576134e4613411565b5b828201905092915050565b7f4e487b7100000000000000000000000000000000000000000000000000000000600052603260045260246000fd5b600061352a826122c0565b9150600082141561353e5761353d613411565b5b600182039050919050565b7f537472696e67733a20686578206c656e67746820696e73756666696369656e74600082015250565b600061357f602083612210565b915061358a82613549565b602082019050919050565b600060208201905081810360008301526135ae81613572565b9050919050565b60006135c0826122c0565b91507fffffffffffffffffffffffffffffffffffffffffffffffffffffffffffffffff8214156135f3576135f2613411565b5b600182019050919050565b7f4e487b7100000000000000000000000000000000000000000000000000000000600052601260045260246000fd5b6000613638826122c0565b9150613643836122c0565b925082613653576136526135fe565b5b828204905092915050565b6000613669826122c0565b9150613674836122c0565b92508282101561368757613686613411565b5b828203905092915050565b600061369d826122c0565b91506136a8836122c0565b9250826136b8576136b76135fe565b5b828206905092915050565b7f45524337323155524953746f726167653a2055524920736574206f66206e6f6e60008201527f6578697374656e7420746f6b656e000000000000000000000000000000000000602082015250565b600061371f602e83612210565b915061372a826136c3565b604082019050919050565b6000602082019050818103600083015261374e81613712565b9050919050565b600081519050919050565b600082825260208201905092915050565b600061377c82613755565b6137868185613760565b9350613796818560208601612221565b61379f81612254565b840191505092915050565b60006080820190506137bf6000830187612355565b6137cc6020830186612355565b6137d9604083018561246b565b81810360608301526137eb8184613771565b905095945050505050565b60008151905061380581612176565b92915050565b60006020828403121561382157613820612140565b5b600061382f848285016137f6565b91505092915050565b7f4552433732313a206d696e7420746f20746865207a65726f2061646472657373600082015250565b600061386e602083612210565b915061387982613838565b602082019050919050565b6000602082019050818103600083015261389d81613861565b9050919050565b7f4552433732313a20746f6b656e20616c7265616479206d696e74656400000000600082015250565b60006138da601c83612210565b91506138e5826138a4565b602082019050919050565b60006020820190508181036000830152613909816138cd565b905091905056fe4142434445464748494a4b4c4d4e4f505152535455565758595a6162636465666768696a6b6c6d6e6f707172737475767778797a303132333435363738392b2fa26469706673582212204b1e919021737dc2032dcfe495add81fff3d8cdd64d46e42622e0d5c0c36076764736f6c634300080900333c73766720786d6c6e733d27687474703a2f2f7777772e77332e6f72672f323030302f73766727207072657365727665417370656374526174696f3d27784d696e594d696e206d656574272076696577426f783d273020302033353020333530273e3c7374796c653e2e62617365207b2066696c6c3a2077686974653b20666f6e742d66616d696c793a2073657269663b20666f6e742d73697a653a20323470783b207d3c2f7374796c653e3c726563742077696474683d273130302527206865696768743d2731303025272066696c6c3d272346423932334327202f3e3c7465787420783d273530252720793d273530252720636c6173733d27626173652720646f6d696e616e742d626173656c696e653d276d6964646c652720746578742d616e63686f723d276d6964646c65273e",
  "linkReferences": {},
  "deployedLinkReferences": {}
}