{
  "_format": "hh-sol-artifact-1",
  "contractName": "Exam",
  "sourceName": "contracts/Exam.sol",
  "abi": [
    {
      "inputs": [
        {
          "internalType": "string",
          "name": "_name",
          "type": "string"
        },
        {
          "internalType": "string",
          "name": "_symbol",
          "type": "string"
        },
        {
          "internalType": "address",
          "name": "_creatorAddress",
          "type": "address"
        },
        {
          "internalType": "address",
          "name": "_examControllerAddress",
          "type": "address"
        }
      ],
      "stateMutability": "nonpayable",
      "type": "constructor"
    },
    {
      "anonymous": false,
      "inputs": [
        {
          "indexed": true,
          "internalType": "address",
          "name": "owner",
          "type": "address"
        },
        {
          "indexed": true,
          "internalType": "address",
          "name": "approved",
          "type": "address"
        },
        {
          "indexed": true,
          "internalType": "uint256",
          "name": "tokenId",
          "type": "uint256"
        }
      ],
      "name": "Approval",
      "type": "event"
    },
    {
      "anonymous": false,
      "inputs": [
        {
          "indexed": true,
          "internalType": "address",
          "name": "owner",
          "type": "address"
        },
        {
          "indexed": true,
          "internalType": "address",
          "name": "operator",
          "type": "address"
        },
        {
          "indexed": false,
          "internalType": "bool",
          "name": "approved",
          "type": "bool"
        }
      ],
      "name": "ApprovalForAll",
      "type": "event"
    },
    {
      "anonymous": false,
      "inputs": [
        {
          "indexed": true,
          "internalType": "address",
          "name": "from",
          "type": "address"
        },
        {
          "indexed": true,
          "internalType": "address",
          "name": "to",
          "type": "address"
        },
        {
          "indexed": true,
          "internalType": "uint256",
          "name": "tokenId",
          "type": "uint256"
        }
      ],
      "name": "Transfer",
      "type": "event"
    },
    {
      "inputs": [
        {
          "internalType": "address",
          "name": "to",
          "type": "address"
        },
        {
          "internalType": "uint256",
          "name": "tokenId",
          "type": "uint256"
        }
      ],
      "name": "approve",
      "outputs": [],
      "stateMutability": "nonpayable",
      "type": "function"
    },
    {
      "inputs": [
        {
          "internalType": "address",
          "name": "owner",
          "type": "address"
        }
      ],
      "name": "balanceOf",
      "outputs": [
        {
          "internalType": "uint256",
          "name": "",
          "type": "uint256"
        }
      ],
      "stateMutability": "view",
      "type": "function"
    },
    {
      "inputs": [
        {
          "internalType": "uint256",
          "name": "tokenId",
          "type": "uint256"
        }
      ],
      "name": "getApproved",
      "outputs": [
        {
          "internalType": "address",
          "name": "",
          "type": "address"
        }
      ],
      "stateMutability": "view",
      "type": "function"
    },
    {
      "inputs": [
        {
          "internalType": "address",
          "name": "_userAddress",
          "type": "address"
        }
      ],
      "name": "getParticipantResult",
      "outputs": [
        {
          "components": [
            {
              "internalType": "bool",
              "name": "isFinished",
              "type": "bool"
            },
            {
              "internalType": "uint8",
              "name": "score",
              "type": "uint8"
            },
            {
              "internalType": "bool",
              "name": "hasStarted",
              "type": "bool"
            }
          ],
          "internalType": "struct Exam.ExamParticipation",
          "name": "",
          "type": "tuple"
        }
      ],
      "stateMutability": "view",
      "type": "function"
    },
    {
      "inputs": [
        {
          "internalType": "address",
          "name": "owner",
          "type": "address"
        },
        {
          "internalType": "address",
          "name": "operator",
          "type": "address"
        }
      ],
      "name": "isApprovedForAll",
      "outputs": [
        {
          "internalType": "bool",
          "name": "",
          "type": "bool"
        }
      ],
      "stateMutability": "view",
      "type": "function"
    },
    {
      "inputs": [
        {
          "internalType": "address",
          "name": "_participantAddress",
          "type": "address"
        },
        {
          "internalType": "uint8",
          "name": "_score",
          "type": "uint8"
        }
      ],
      "name": "makeNFT",
      "outputs": [],
      "stateMutability": "nonpayable",
      "type": "function"
    },
    {
      "inputs": [],
      "name": "name",
      "outputs": [
        {
          "internalType": "string",
          "name": "",
          "type": "string"
        }
      ],
      "stateMutability": "view",
      "type": "function"
    },
    {
      "inputs": [
        {
          "internalType": "uint256",
          "name": "tokenId",
          "type": "uint256"
        }
      ],
      "name": "ownerOf",
      "outputs": [
        {
          "internalType": "address",
          "name": "",
          "type": "address"
        }
      ],
      "stateMutability": "view",
      "type": "function"
    },
    {
      "inputs": [
        {
          "internalType": "address",
          "name": "participantAddress",
          "type": "address"
        }
      ],
      "name": "participateInExam",
      "outputs": [],
      "stateMutability": "nonpayable",
      "type": "function"
    },
    {
      "inputs": [
        {
          "internalType": "address",
          "name": "from",
          "type": "address"
        },
        {
          "internalType": "address",
          "name": "to",
          "type": "address"
        },
        {
          "internalType": "uint256",
          "name": "tokenId",
          "type": "uint256"
        }
      ],
      "name": "safeTransferFrom",
      "outputs": [],
      "stateMutability": "nonpayable",
      "type": "function"
    },
    {
      "inputs": [
        {
          "internalType": "address",
          "name": "from",
          "type": "address"
        },
        {
          "internalType": "address",
          "name": "to",
          "type": "address"
        },
        {
          "internalType": "uint256",
          "name": "tokenId",
          "type": "uint256"
        },
        {
          "internalType": "bytes",
          "name": "data",
          "type": "bytes"
        }
      ],
      "name": "safeTransferFrom",
      "outputs": [],
      "stateMutability": "nonpayable",
      "type": "function"
    },
    {
      "inputs": [
        {
          "internalType": "uint8",
          "name": "score",
          "type": "uint8"
        },
        {
          "internalType": "address",
          "name": "participantAddress",
          "type": "address"
        }
      ],
      "name": "saveParticipantScore",
      "outputs": [],
      "stateMutability": "nonpayable",
      "type": "function"
    },
    {
      "inputs": [
        {
          "internalType": "address",
          "name": "operator",
          "type": "address"
        },
        {
          "internalType": "bool",
          "name": "approved",
          "type": "bool"
        }
      ],
      "name": "setApprovalForAll",
      "outputs": [],
      "stateMutability": "nonpayable",
      "type": "function"
    },
    {
      "inputs": [
        {
          "internalType": "bytes4",
          "name": "interfaceId",
          "type": "bytes4"
        }
      ],
      "name": "supportsInterface",
      "outputs": [
        {
          "internalType": "bool",
          "name": "",
          "type": "bool"
        }
      ],
      "stateMutability": "view",
      "type": "function"
    },
    {
      "inputs": [],
      "name": "symbol",
      "outputs": [
        {
          "internalType": "string",
          "name": "",
          "type": "string"
        }
      ],
      "stateMutability": "view",
      "type": "function"
    },
    {
      "inputs": [
        {
          "internalType": "uint256",
          "name": "tokenId",
          "type": "uint256"
        }
      ],
      "name": "tokenURI",
      "outputs": [
        {
          "internalType": "string",
          "name": "",
          "type": "string"
        }
      ],
      "stateMutability": "view",
      "type": "function"
    },
    {
      "inputs": [
        {
          "internalType": "address",
          "name": "from",
          "type": "address"
        },
        {
          "internalType": "address",
          "name": "to",
          "type": "address"
        },
        {
          "internalType": "uint256",
          "name": "tokenId",
          "type": "uint256"
        }
      ],
      "name": "transferFrom",
      "outputs": [],
      "stateMutability": "nonpayable",
      "type": "function"
    }
  ],
  "bytecode": "0x608060405260405180610160016040528061012f815260200162003f4a61012f9139600c9080519060200190620000389291906200012e565b503480156200004657600080fd5b50604051620040793803806200407983398181016040528101906200006c9190620003e0565b83838160009080519060200190620000869291906200012e565b5080600190805190602001906200009f9291906200012e565b50505081600860006101000a81548173ffffffffffffffffffffffffffffffffffffffff021916908373ffffffffffffffffffffffffffffffffffffffff16021790555080600960006101000a81548173ffffffffffffffffffffffffffffffffffffffff021916908373ffffffffffffffffffffffffffffffffffffffff16021790555050505050620004f5565b8280546200013c90620004bf565b90600052602060002090601f016020900481019282620001605760008555620001ac565b82601f106200017b57805160ff1916838001178555620001ac565b82800160010185558215620001ac579182015b82811115620001ab5782518255916020019190600101906200018e565b5b509050620001bb9190620001bf565b5090565b5b80821115620001da576000816000905550600101620001c0565b5090565b6000604051905090565b600080fd5b600080fd5b600080fd5b600080fd5b6000601f19601f8301169050919050565b7f4e487b7100000000000000000000000000000000000000000000000000000000600052604160045260246000fd5b6200024782620001fc565b810181811067ffffffffffffffff821117156200026957620002686200020d565b5b80604052505050565b60006200027e620001de565b90506200028c82826200023c565b919050565b600067ffffffffffffffff821115620002af57620002ae6200020d565b5b620002ba82620001fc565b9050602081019050919050565b60005b83811015620002e7578082015181840152602081019050620002ca565b83811115620002f7576000848401525b50505050565b6000620003146200030e8462000291565b62000272565b905082815260208101848484011115620003335762000332620001f7565b5b62000340848285620002c7565b509392505050565b600082601f83011262000360576200035f620001f2565b5b815162000372848260208601620002fd565b91505092915050565b600073ffffffffffffffffffffffffffffffffffffffff82169050919050565b6000620003a8826200037b565b9050919050565b620003ba816200039b565b8114620003c657600080fd5b50565b600081519050620003da81620003af565b92915050565b60008060008060808587031215620003fd57620003fc620001e8565b5b600085015167ffffffffffffffff8111156200041e576200041d620001ed565b5b6200042c8782880162000348565b945050602085015167ffffffffffffffff81111562000450576200044f620001ed565b5b6200045e8782880162000348565b93505060406200047187828801620003c9565b92505060606200048487828801620003c9565b91505092959194509250565b7f4e487b7100000000000000000000000000000000000000000000000000000000600052602260045260246000fd5b60006002820490506001821680620004d857607f821691505b60208210811415620004ef57620004ee62000490565b5b50919050565b613a4580620005056000396000f3fe608060405234801561001057600080fd5b506004361061010b5760003560e01c806370a08231116100a2578063b484be6311610071578063b484be63146102b4578063b88d4fde146102d0578063c87b56dd146102ec578063e41c3ce41461031c578063e985e9c51461034c5761010b565b806370a082311461022e57806395d89b411461025e57806396e702f01461027c578063a22cb465146102985761010b565b806313352162116100de57806313352162146101aa57806323b872dd146101c657806342842e0e146101e25780636352211e146101fe5761010b565b806301ffc9a71461011057806306fdde0314610140578063081812fc1461015e578063095ea7b31461018e575b600080fd5b61012a60048036038101906101259190612213565b61037c565b604051610137919061225b565b60405180910390f35b61014861045e565b604051610155919061230f565b60405180910390f35b61017860048036038101906101739190612367565b6104f0565b60405161018591906123d5565b60405180910390f35b6101a860048036038101906101a3919061241c565b610536565b005b6101c460048036038101906101bf9190612495565b61064e565b005b6101e060048036038101906101db91906124d5565b610746565b005b6101fc60048036038101906101f791906124d5565b6107a6565b005b61021860048036038101906102139190612367565b6107c6565b60405161022591906123d5565b60405180910390f35b61024860048036038101906102439190612528565b610878565b6040516102559190612564565b60405180910390f35b610266610930565b604051610273919061230f565b60405180910390f35b61029660048036038101906102919190612528565b6109c2565b005b6102b260048036038101906102ad91906125ab565b610b1d565b005b6102ce60048036038101906102c991906125eb565b610b33565b005b6102ea60048036038101906102e59190612760565b610c8e565b005b61030660048036038101906103019190612367565b610cf0565b604051610313919061230f565b60405180910390f35b61033660048036038101906103319190612528565b610e03565b6040516103439190612843565b60405180910390f35b6103666004803603810190610361919061285e565b610f3e565b604051610373919061225b565b60405180910390f35b60007f80ac58cd000000000000000000000000000000000000000000000000000000007bffffffffffffffffffffffffffffffffffffffffffffffffffffffff1916827bffffffffffffffffffffffffffffffffffffffffffffffffffffffff1916148061044757507f5b5e139f000000000000000000000000000000000000000000000000000000007bffffffffffffffffffffffffffffffffffffffffffffffffffffffff1916827bffffffffffffffffffffffffffffffffffffffffffffffffffffffff1916145b80610457575061045682610fd2565b5b9050919050565b60606000805461046d906128cd565b80601f0160208091040260200160405190810160405280929190818152602001828054610499906128cd565b80156104e65780601f106104bb576101008083540402835291602001916104e6565b820191906000526020600020905b8154815290600101906020018083116104c957829003601f168201915b5050505050905090565b60006104fb8261103c565b6004600083815260200190815260200160002060009054906101000a900473ffffffffffffffffffffffffffffffffffffffff169050919050565b6000610541826107c6565b90508073ffffffffffffffffffffffffffffffffffffffff168373ffffffffffffffffffffffffffffffffffffffff1614156105b2576040517f08c379a00000000000000000000000000000000000000000000000000000000081526004016105a990612971565b60405180910390fd5b8073ffffffffffffffffffffffffffffffffffffffff166105d1611087565b73ffffffffffffffffffffffffffffffffffffffff16148061060057506105ff816105fa611087565b610f3e565b5b61063f576040517f08c379a000000000000000000000000000000000000000000000000000000000815260040161063690612a03565b60405180910390fd5b610649838361108f565b505050565b600061065a6007611148565b9050600061067f8473ffffffffffffffffffffffffffffffffffffffff166014611156565b90506000600c61068d61045e565b8361069a8760ff16611392565b6040516020016106ad9493929190612ce1565b604051602081830303815290604052905060006106f96106cb61045e565b6106d4846114f3565b6040516020016106e5929190612e91565b6040516020818303038152906040526114f3565b905060008160405160200161070e9190612f22565b6040516020818303038152906040529050610729338661168b565b61073385826116a9565b61073d600761171d565b50505050505050565b610757610751611087565b82611733565b610796576040517f08c379a000000000000000000000000000000000000000000000000000000000815260040161078d90612fb6565b60405180910390fd5b6107a18383836117c8565b505050565b6107c183838360405180602001604052806000815250610c8e565b505050565b6000806002600084815260200190815260200160002060009054906101000a900473ffffffffffffffffffffffffffffffffffffffff169050600073ffffffffffffffffffffffffffffffffffffffff168173ffffffffffffffffffffffffffffffffffffffff16141561086f576040517f08c379a000000000000000000000000000000000000000000000000000000000815260040161086690613022565b60405180910390fd5b80915050919050565b60008073ffffffffffffffffffffffffffffffffffffffff168273ffffffffffffffffffffffffffffffffffffffff1614156108e9576040517f08c379a00000000000000000000000000000000000000000000000000000000081526004016108e0906130b4565b60405180910390fd5b600360008373ffffffffffffffffffffffffffffffffffffffff1673ffffffffffffffffffffffffffffffffffffffff168152602001908152602001600020549050919050565b60606001805461093f906128cd565b80601f016020809104026020016040519081016040528092919081815260200182805461096b906128cd565b80156109b85780601f1061098d576101008083540402835291602001916109b8565b820191906000526020600020905b81548152906001019060200180831161099b57829003601f168201915b5050505050905090565b600960009054906101000a900473ffffffffffffffffffffffffffffffffffffffff1673ffffffffffffffffffffffffffffffffffffffff163373ffffffffffffffffffffffffffffffffffffffff1614610a52576040517f08c379a0000000000000000000000000000000000000000000000000000000008152600401610a4990613146565b60405180910390fd5b6040518060600160405280600015158152602001600060ff16815260200160011515815250600b60008373ffffffffffffffffffffffffffffffffffffffff1673ffffffffffffffffffffffffffffffffffffffff16815260200190815260200160002060008201518160000160006101000a81548160ff02191690831515021790555060208201518160000160016101000a81548160ff021916908360ff16021790555060408201518160000160026101000a81548160ff02191690831515021790555090505050565b610b2f610b28611087565b8383611a2f565b5050565b600a60009054906101000a900473ffffffffffffffffffffffffffffffffffffffff1673ffffffffffffffffffffffffffffffffffffffff163373ffffffffffffffffffffffffffffffffffffffff1614610bc3576040517f08c379a0000000000000000000000000000000000000000000000000000000008152600401610bba906131d8565b60405180910390fd5b60405180606001604052806001151581526020018360ff16815260200160011515815250600b60008373ffffffffffffffffffffffffffffffffffffffff1673ffffffffffffffffffffffffffffffffffffffff16815260200190815260200160002060008201518160000160006101000a81548160ff02191690831515021790555060208201518160000160016101000a81548160ff021916908360ff16021790555060408201518160000160026101000a81548160ff0219169083151502179055509050505050565b610c9f610c99611087565b83611733565b610cde576040517f08c379a0000000000000000000000000000000000000000000000000000000008152600401610cd590612fb6565b60405180910390fd5b610cea84848484611b9c565b50505050565b6060610cfb8261103c565b6000600660008481526020019081526020016000208054610d1b906128cd565b80601f0160208091040260200160405190810160405280929190818152602001828054610d47906128cd565b8015610d945780601f10610d6957610100808354040283529160200191610d94565b820191906000526020600020905b815481529060010190602001808311610d7757829003601f168201915b505050505090506000610da5611bf8565b9050600081511415610dbb578192505050610dfe565b600082511115610df0578082604051602001610dd89291906131f8565b60405160208183030381529060405292505050610dfe565b610df984611c0f565b925050505b919050565b610e0b6120dc565b600b60008373ffffffffffffffffffffffffffffffffffffffff1673ffffffffffffffffffffffffffffffffffffffff16815260200190815260200160002060000160029054906101000a900460ff16610e9a576040517f08c379a0000000000000000000000000000000000000000000000000000000008152600401610e919061328e565b60405180910390fd5b600b60008373ffffffffffffffffffffffffffffffffffffffff1673ffffffffffffffffffffffffffffffffffffffff1681526020019081526020016000206040518060600160405290816000820160009054906101000a900460ff161515151581526020016000820160019054906101000a900460ff1660ff1660ff1681526020016000820160029054906101000a900460ff1615151515815250509050919050565b6000600560008473ffffffffffffffffffffffffffffffffffffffff1673ffffffffffffffffffffffffffffffffffffffff16815260200190815260200160002060008373ffffffffffffffffffffffffffffffffffffffff1673ffffffffffffffffffffffffffffffffffffffff16815260200190815260200160002060009054906101000a900460ff16905092915050565b60007f01ffc9a7000000000000000000000000000000000000000000000000000000007bffffffffffffffffffffffffffffffffffffffffffffffffffffffff1916827bffffffffffffffffffffffffffffffffffffffffffffffffffffffff1916149050919050565b61104581611c77565b611084576040517f08c379a000000000000000000000000000000000000000000000000000000000815260040161107b90613022565b60405180910390fd5b50565b600033905090565b816004600083815260200190815260200160002060006101000a81548173ffffffffffffffffffffffffffffffffffffffff021916908373ffffffffffffffffffffffffffffffffffffffff160217905550808273ffffffffffffffffffffffffffffffffffffffff16611102836107c6565b73ffffffffffffffffffffffffffffffffffffffff167f8c5be1e5ebec7d5bd14f71427d1e84f3dd0314c0f7b2291e5b200ac8c7c3b92560405160405180910390a45050565b600081600001549050919050565b60606000600283600261116991906132dd565b6111739190613337565b67ffffffffffffffff81111561118c5761118b612635565b5b6040519080825280601f01601f1916602001820160405280156111be5781602001600182028036833780820191505090505b5090507f3000000000000000000000000000000000000000000000000000000000000000816000815181106111f6576111f561338d565b5b60200101907effffffffffffffffffffffffffffffffffffffffffffffffffffffffffffff1916908160001a9053507f78000000000000000000000000000000000000000000000000000000000000008160018151811061125a5761125961338d565b5b60200101907effffffffffffffffffffffffffffffffffffffffffffffffffffffffffffff1916908160001a9053506000600184600261129a91906132dd565b6112a49190613337565b90505b6001811115611344577f3031323334353637383961626364656600000000000000000000000000000000600f8616601081106112e6576112e561338d565b5b1a60f81b8282815181106112fd576112fc61338d565b5b60200101907effffffffffffffffffffffffffffffffffffffffffffffffffffffffffffff1916908160001a905350600485901c94508061133d906133bc565b90506112a7565b5060008414611388576040517f08c379a000000000000000000000000000000000000000000000000000000000815260040161137f90613432565b60405180910390fd5b8091505092915050565b606060008214156113da576040518060400160405280600181526020017f300000000000000000000000000000000000000000000000000000000000000081525090506114ee565b600082905060005b6000821461140c5780806113f590613452565b915050600a8261140591906134ca565b91506113e2565b60008167ffffffffffffffff81111561142857611427612635565b5b6040519080825280601f01601f19166020018201604052801561145a5781602001600182028036833780820191505090505b5090505b600085146114e75760018261147391906134fb565b9150600a85611482919061352f565b603061148e9190613337565b60f81b8183815181106114a4576114a361338d565b5b60200101907effffffffffffffffffffffffffffffffffffffffffffffffffffffffffffff1916908160001a905350600a856114e091906134ca565b945061145e565b8093505050505b919050565b6060600082519050600081141561151c5760405180602001604052806000815250915050611686565b6000600360028361152d9190613337565b61153791906134ca565b600461154391906132dd565b905060006020826115549190613337565b67ffffffffffffffff81111561156d5761156c612635565b5b6040519080825280601f01601f19166020018201604052801561159f5781602001600182028036833780820191505090505b50905060006040518060600160405280604081526020016139d0604091399050600181016020830160005b868110156116435760038101905062ffffff818a015116603f8160121c168401518060081b905060ff603f83600c1c1686015116810190508060081b905060ff603f8360061c1686015116810190508060081b905060ff603f831686015116810190508060e01b905080845260048401935050506115ca565b50600386066001811461165d576002811461166d57611678565b613d3d60f01b6002830352611678565b603d60f81b60018303525b508484525050819450505050505b919050565b6116a5828260405180602001604052806000815250611ce3565b5050565b6116b282611c77565b6116f1576040517f08c379a00000000000000000000000000000000000000000000000000000000081526004016116e8906135d2565b60405180910390fd5b80600660008481526020019081526020016000209080519060200190611718929190612104565b505050565b6001816000016000828254019250508190555050565b60008061173f836107c6565b90508073ffffffffffffffffffffffffffffffffffffffff168473ffffffffffffffffffffffffffffffffffffffff16148061178157506117808185610f3e565b5b806117bf57508373ffffffffffffffffffffffffffffffffffffffff166117a7846104f0565b73ffffffffffffffffffffffffffffffffffffffff16145b91505092915050565b8273ffffffffffffffffffffffffffffffffffffffff166117e8826107c6565b73ffffffffffffffffffffffffffffffffffffffff161461183e576040517f08c379a000000000000000000000000000000000000000000000000000000000815260040161183590613664565b60405180910390fd5b600073ffffffffffffffffffffffffffffffffffffffff168273ffffffffffffffffffffffffffffffffffffffff1614156118ae576040517f08c379a00000000000000000000000000000000000000000000000000000000081526004016118a5906136f6565b60405180910390fd5b6118b9838383611d3e565b6118c460008261108f565b6001600360008573ffffffffffffffffffffffffffffffffffffffff1673ffffffffffffffffffffffffffffffffffffffff168152602001908152602001600020600082825461191491906134fb565b925050819055506001600360008473ffffffffffffffffffffffffffffffffffffffff1673ffffffffffffffffffffffffffffffffffffffff168152602001908152602001600020600082825461196b9190613337565b92505081905550816002600083815260200190815260200160002060006101000a81548173ffffffffffffffffffffffffffffffffffffffff021916908373ffffffffffffffffffffffffffffffffffffffff160217905550808273ffffffffffffffffffffffffffffffffffffffff168473ffffffffffffffffffffffffffffffffffffffff167fddf252ad1be2c89b69c2b068fc378daa952ba7f163c4a11628f55a4df523b3ef60405160405180910390a4611a2a838383611d43565b505050565b8173ffffffffffffffffffffffffffffffffffffffff168373ffffffffffffffffffffffffffffffffffffffff161415611a9e576040517f08c379a0000000000000000000000000000000000000000000000000000000008152600401611a9590613762565b60405180910390fd5b80600560008573ffffffffffffffffffffffffffffffffffffffff1673ffffffffffffffffffffffffffffffffffffffff16815260200190815260200160002060008473ffffffffffffffffffffffffffffffffffffffff1673ffffffffffffffffffffffffffffffffffffffff16815260200190815260200160002060006101000a81548160ff0219169083151502179055508173ffffffffffffffffffffffffffffffffffffffff168373ffffffffffffffffffffffffffffffffffffffff167f17307eab39ab6107e8899845ad3d59bd9653f200f220920489ca2b5937696c3183604051611b8f919061225b565b60405180910390a3505050565b611ba78484846117c8565b611bb384848484611d48565b611bf2576040517f08c379a0000000000000000000000000000000000000000000000000000000008152600401611be9906137f4565b60405180910390fd5b50505050565b606060405180602001604052806000815250905090565b6060611c1a8261103c565b6000611c24611bf8565b90506000815111611c445760405180602001604052806000815250611c6f565b80611c4e84611392565b604051602001611c5f9291906131f8565b6040516020818303038152906040525b915050919050565b60008073ffffffffffffffffffffffffffffffffffffffff166002600084815260200190815260200160002060009054906101000a900473ffffffffffffffffffffffffffffffffffffffff1673ffffffffffffffffffffffffffffffffffffffff1614159050919050565b611ced8383611edf565b611cfa6000848484611d48565b611d39576040517f08c379a0000000000000000000000000000000000000000000000000000000008152600401611d30906137f4565b60405180910390fd5b505050565b505050565b505050565b6000611d698473ffffffffffffffffffffffffffffffffffffffff166120b9565b15611ed2578373ffffffffffffffffffffffffffffffffffffffff1663150b7a02611d92611087565b8786866040518563ffffffff1660e01b8152600401611db49493929190613869565b602060405180830381600087803b158015611dce57600080fd5b505af1925050508015611dff57506040513d601f19601f82011682018060405250810190611dfc91906138ca565b60015b611e82573d8060008114611e2f576040519150601f19603f3d011682016040523d82523d6000602084013e611e34565b606091505b50600081511415611e7a576040517f08c379a0000000000000000000000000000000000000000000000000000000008152600401611e71906137f4565b60405180910390fd5b805181602001fd5b63150b7a0260e01b7bffffffffffffffffffffffffffffffffffffffffffffffffffffffff1916817bffffffffffffffffffffffffffffffffffffffffffffffffffffffff191614915050611ed7565b600190505b949350505050565b600073ffffffffffffffffffffffffffffffffffffffff168273ffffffffffffffffffffffffffffffffffffffff161415611f4f576040517f08c379a0000000000000000000000000000000000000000000000000000000008152600401611f4690613943565b60405180910390fd5b611f5881611c77565b15611f98576040517f08c379a0000000000000000000000000000000000000000000000000000000008152600401611f8f906139af565b60405180910390fd5b611fa460008383611d3e565b6001600360008473ffffffffffffffffffffffffffffffffffffffff1673ffffffffffffffffffffffffffffffffffffffff1681526020019081526020016000206000828254611ff49190613337565b92505081905550816002600083815260200190815260200160002060006101000a81548173ffffffffffffffffffffffffffffffffffffffff021916908373ffffffffffffffffffffffffffffffffffffffff160217905550808273ffffffffffffffffffffffffffffffffffffffff16600073ffffffffffffffffffffffffffffffffffffffff167fddf252ad1be2c89b69c2b068fc378daa952ba7f163c4a11628f55a4df523b3ef60405160405180910390a46120b560008383611d43565b5050565b6000808273ffffffffffffffffffffffffffffffffffffffff163b119050919050565b6040518060600160405280600015158152602001600060ff1681526020016000151581525090565b828054612110906128cd565b90600052602060002090601f0160209004810192826121325760008555612179565b82601f1061214b57805160ff1916838001178555612179565b82800160010185558215612179579182015b8281111561217857825182559160200191906001019061215d565b5b509050612186919061218a565b5090565b5b808211156121a357600081600090555060010161218b565b5090565b6000604051905090565b600080fd5b600080fd5b60007fffffffff0000000000000000000000000000000000000000000000000000000082169050919050565b6121f0816121bb565b81146121fb57600080fd5b50565b60008135905061220d816121e7565b92915050565b600060208284031215612229576122286121b1565b5b6000612237848285016121fe565b91505092915050565b60008115159050919050565b61225581612240565b82525050565b6000602082019050612270600083018461224c565b92915050565b600081519050919050565b600082825260208201905092915050565b60005b838110156122b0578082015181840152602081019050612295565b838111156122bf576000848401525b50505050565b6000601f19601f8301169050919050565b60006122e182612276565b6122eb8185612281565b93506122fb818560208601612292565b612304816122c5565b840191505092915050565b6000602082019050818103600083015261232981846122d6565b905092915050565b6000819050919050565b61234481612331565b811461234f57600080fd5b50565b6000813590506123618161233b565b92915050565b60006020828403121561237d5761237c6121b1565b5b600061238b84828501612352565b91505092915050565b600073ffffffffffffffffffffffffffffffffffffffff82169050919050565b60006123bf82612394565b9050919050565b6123cf816123b4565b82525050565b60006020820190506123ea60008301846123c6565b92915050565b6123f9816123b4565b811461240457600080fd5b50565b600081359050612416816123f0565b92915050565b60008060408385031215612433576124326121b1565b5b600061244185828601612407565b925050602061245285828601612352565b9150509250929050565b600060ff82169050919050565b6124728161245c565b811461247d57600080fd5b50565b60008135905061248f81612469565b92915050565b600080604083850312156124ac576124ab6121b1565b5b60006124ba85828601612407565b92505060206124cb85828601612480565b9150509250929050565b6000806000606084860312156124ee576124ed6121b1565b5b60006124fc86828701612407565b935050602061250d86828701612407565b925050604061251e86828701612352565b9150509250925092565b60006020828403121561253e5761253d6121b1565b5b600061254c84828501612407565b91505092915050565b61255e81612331565b82525050565b60006020820190506125796000830184612555565b92915050565b61258881612240565b811461259357600080fd5b50565b6000813590506125a58161257f565b92915050565b600080604083850312156125c2576125c16121b1565b5b60006125d085828601612407565b92505060206125e185828601612596565b9150509250929050565b60008060408385031215612602576126016121b1565b5b600061261085828601612480565b925050602061262185828601612407565b9150509250929050565b600080fd5b600080fd5b7f4e487b7100000000000000000000000000000000000000000000000000000000600052604160045260246000fd5b61266d826122c5565b810181811067ffffffffffffffff8211171561268c5761268b612635565b5b80604052505050565b600061269f6121a7565b90506126ab8282612664565b919050565b600067ffffffffffffffff8211156126cb576126ca612635565b5b6126d4826122c5565b9050602081019050919050565b82818337600083830152505050565b60006127036126fe846126b0565b612695565b90508281526020810184848401111561271f5761271e612630565b5b61272a8482856126e1565b509392505050565b600082601f8301126127475761274661262b565b5b81356127578482602086016126f0565b91505092915050565b6000806000806080858703121561277a576127796121b1565b5b600061278887828801612407565b945050602061279987828801612407565b93505060406127aa87828801612352565b925050606085013567ffffffffffffffff8111156127cb576127ca6121b6565b5b6127d787828801612732565b91505092959194509250565b6127ec81612240565b82525050565b6127fb8161245c565b82525050565b60608201600082015161281760008501826127e3565b50602082015161282a60208501826127f2565b50604082015161283d60408501826127e3565b50505050565b60006060820190506128586000830184612801565b92915050565b60008060408385031215612875576128746121b1565b5b600061288385828601612407565b925050602061289485828601612407565b9150509250929050565b7f4e487b7100000000000000000000000000000000000000000000000000000000600052602260045260246000fd5b600060028204905060018216806128e557607f821691505b602082108114156128f9576128f861289e565b5b50919050565b7f4552433732313a20617070726f76616c20746f2063757272656e74206f776e6560008201527f7200000000000000000000000000000000000000000000000000000000000000602082015250565b600061295b602183612281565b9150612966826128ff565b604082019050919050565b6000602082019050818103600083015261298a8161294e565b9050919050565b7f4552433732313a20617070726f76652063616c6c6572206973206e6f7420746f60008201527f6b656e206f776e6572206e6f7220617070726f76656420666f7220616c6c0000602082015250565b60006129ed603e83612281565b91506129f882612991565b604082019050919050565b60006020820190508181036000830152612a1c816129e0565b9050919050565b600081905092915050565b60008190508160005260206000209050919050565b60008154612a50816128cd565b612a5a8186612a23565b94506001821660008114612a755760018114612a8657612ab9565b60ff19831686528186019350612ab9565b612a8f85612a2e565b60005b83811015612ab157815481890152600182019150602081019050612a92565b838801955050505b50505092915050565b7f3c747370616e20783d273530252720793d273235252720666f6e742d73697a6560008201527f3d2732307078273e000000000000000000000000000000000000000000000000602082015250565b6000612b1e602883612a23565b9150612b2982612ac2565b602882019050919050565b6000612b3f82612276565b612b498185612a23565b9350612b59818560208601612292565b80840191505092915050565b7f3c2f747370616e3e000000000000000000000000000000000000000000000000600082015250565b6000612b9b600883612a23565b9150612ba682612b65565b600882019050919050565b7f3c747370616e20783d273530252720793d273530252720666f6e742d73697a6560008201527f3d2731347078273e000000000000000000000000000000000000000000000000602082015250565b6000612c0d602883612a23565b9150612c1882612bb1565b602882019050919050565b7f3c747370616e20783d273530252720793d273735252720666f6e742d73697a6560008201527f3d2734307078273e000000000000000000000000000000000000000000000000602082015250565b6000612c7f602883612a23565b9150612c8a82612c23565b602882019050919050565b7f253c2f747370616e3e3c2f746578743e3c2f7376673e00000000000000000000600082015250565b6000612ccb601683612a23565b9150612cd682612c95565b601682019050919050565b6000612ced8287612a43565b9150612cf882612b11565b9150612d048286612b34565b9150612d0f82612b8e565b9150612d1a82612c00565b9150612d268285612b34565b9150612d3182612b8e565b9150612d3c82612c72565b9150612d488284612b34565b9150612d5382612cbe565b915081905095945050505050565b7f7b226e616d65223a202200000000000000000000000000000000000000000000600082015250565b6000612d97600a83612a23565b9150612da282612d61565b600a82019050919050565b7f222c20226465736372697074696f6e223a20224445534352495054494f4e5f5060008201527f4c414345484f4c444552222c2022696d616765223a2022646174613a696d616760208201527f652f7376672b786d6c3b6261736536342c000000000000000000000000000000604082015250565b6000612e2f605183612a23565b9150612e3a82612dad565b605182019050919050565b7f227d000000000000000000000000000000000000000000000000000000000000600082015250565b6000612e7b600283612a23565b9150612e8682612e45565b600282019050919050565b6000612e9c82612d8a565b9150612ea88285612b34565b9150612eb382612e22565b9150612ebf8284612b34565b9150612eca82612e6e565b91508190509392505050565b7f646174613a6170706c69636174696f6e2f6a736f6e3b6261736536342c000000600082015250565b6000612f0c601d83612a23565b9150612f1782612ed6565b601d82019050919050565b6000612f2d82612eff565b9150612f398284612b34565b915081905092915050565b7f4552433732313a2063616c6c6572206973206e6f7420746f6b656e206f776e6560008201527f72206e6f7220617070726f766564000000000000000000000000000000000000602082015250565b6000612fa0602e83612281565b9150612fab82612f44565b604082019050919050565b60006020820190508181036000830152612fcf81612f93565b9050919050565b7f4552433732313a20696e76616c696420746f6b656e2049440000000000000000600082015250565b600061300c601883612281565b915061301782612fd6565b602082019050919050565b6000602082019050818103600083015261303b81612fff565b9050919050565b7f4552433732313a2061646472657373207a65726f206973206e6f74206120766160008201527f6c6964206f776e65720000000000000000000000000000000000000000000000602082015250565b600061309e602983612281565b91506130a982613042565b604082019050919050565b600060208201905081810360008301526130cd81613091565b9050919050565b7f596f757220616464726573732069736e277420746865204578616d436f6e747260008201527f6f6c6c657220436f6e747261637420616464726573732e000000000000000000602082015250565b6000613130603783612281565b915061313b826130d4565b604082019050919050565b6000602082019050818103600083015261315f81613123565b9050919050565b7f596f757220616464726573732069736e277420746865206261636b656e64206160008201527f6464726573732e00000000000000000000000000000000000000000000000000602082015250565b60006131c2602783612281565b91506131cd82613166565b604082019050919050565b600060208201905081810360008301526131f1816131b5565b9050919050565b60006132048285612b34565b91506132108284612b34565b91508190509392505050565b7f5468657265206973206e6f207061727469636970616e7420776974682074686960008201527f7320616464726573732e00000000000000000000000000000000000000000000602082015250565b6000613278602a83612281565b91506132838261321c565b604082019050919050565b600060208201905081810360008301526132a78161326b565b9050919050565b7f4e487b7100000000000000000000000000000000000000000000000000000000600052601160045260246000fd5b60006132e882612331565b91506132f383612331565b9250817fffffffffffffffffffffffffffffffffffffffffffffffffffffffffffffffff048311821515161561332c5761332b6132ae565b5b828202905092915050565b600061334282612331565b915061334d83612331565b9250827fffffffffffffffffffffffffffffffffffffffffffffffffffffffffffffffff03821115613382576133816132ae565b5b828201905092915050565b7f4e487b7100000000000000000000000000000000000000000000000000000000600052603260045260246000fd5b60006133c782612331565b915060008214156133db576133da6132ae565b5b600182039050919050565b7f537472696e67733a20686578206c656e67746820696e73756666696369656e74600082015250565b600061341c602083612281565b9150613427826133e6565b602082019050919050565b6000602082019050818103600083015261344b8161340f565b9050919050565b600061345d82612331565b91507fffffffffffffffffffffffffffffffffffffffffffffffffffffffffffffffff8214156134905761348f6132ae565b5b600182019050919050565b7f4e487b7100000000000000000000000000000000000000000000000000000000600052601260045260246000fd5b60006134d582612331565b91506134e083612331565b9250826134f0576134ef61349b565b5b828204905092915050565b600061350682612331565b915061351183612331565b925082821015613524576135236132ae565b5b828203905092915050565b600061353a82612331565b915061354583612331565b9250826135555761355461349b565b5b828206905092915050565b7f45524337323155524953746f726167653a2055524920736574206f66206e6f6e60008201527f6578697374656e7420746f6b656e000000000000000000000000000000000000602082015250565b60006135bc602e83612281565b91506135c782613560565b604082019050919050565b600060208201905081810360008301526135eb816135af565b9050919050565b7f4552433732313a207472616e736665722066726f6d20696e636f72726563742060008201527f6f776e6572000000000000000000000000000000000000000000000000000000602082015250565b600061364e602583612281565b9150613659826135f2565b604082019050919050565b6000602082019050818103600083015261367d81613641565b9050919050565b7f4552433732313a207472616e7366657220746f20746865207a65726f2061646460008201527f7265737300000000000000000000000000000000000000000000000000000000602082015250565b60006136e0602483612281565b91506136eb82613684565b604082019050919050565b6000602082019050818103600083015261370f816136d3565b9050919050565b7f4552433732313a20617070726f766520746f2063616c6c657200000000000000600082015250565b600061374c601983612281565b915061375782613716565b602082019050919050565b6000602082019050818103600083015261377b8161373f565b9050919050565b7f4552433732313a207472616e7366657220746f206e6f6e20455243373231526560008201527f63656976657220696d706c656d656e7465720000000000000000000000000000602082015250565b60006137de603283612281565b91506137e982613782565b604082019050919050565b6000602082019050818103600083015261380d816137d1565b9050919050565b600081519050919050565b600082825260208201905092915050565b600061383b82613814565b613845818561381f565b9350613855818560208601612292565b61385e816122c5565b840191505092915050565b600060808201905061387e60008301876123c6565b61388b60208301866123c6565b6138986040830185612555565b81810360608301526138aa8184613830565b905095945050505050565b6000815190506138c4816121e7565b92915050565b6000602082840312156138e0576138df6121b1565b5b60006138ee848285016138b5565b91505092915050565b7f4552433732313a206d696e7420746f20746865207a65726f2061646472657373600082015250565b600061392d602083612281565b9150613938826138f7565b602082019050919050565b6000602082019050818103600083015261395c81613920565b9050919050565b7f4552433732313a20746f6b656e20616c7265616479206d696e74656400000000600082015250565b6000613999601c83612281565b91506139a482613963565b602082019050919050565b600060208201905081810360008301526139c88161398c565b905091905056fe4142434445464748494a4b4c4d4e4f505152535455565758595a6162636465666768696a6b6c6d6e6f707172737475767778797a303132333435363738392b2fa26469706673582212204f07528a76060efe600fced1e39e1def9237b425b54fce3e2d5531ec9715ca5364736f6c634300080900333c73766720786d6c6e733d27687474703a2f2f7777772e77332e6f72672f323030302f73766727207072657365727665417370656374526174696f3d27784d696e594d696e206d656574272076696577426f783d273020302033353020333530273e3c7374796c653e2e62617365207b2066696c6c3a2077686974653b20666f6e742d66616d696c793a2073657269663b20666f6e742d73697a653a20323470783b207d3c2f7374796c653e3c726563742077696474683d273130302527206865696768743d2731303025272066696c6c3d27677265656e27202f3e3c7465787420783d273530252720793d273530252720636c6173733d27626173652720646f6d696e616e742d626173656c696e653d276d6964646c652720746578742d616e63686f723d276d6964646c65273e",
  "linkReferences": {},
  "deployedLinkReferences": {}
}