{
  "_format": "hh-sol-artifact-1",
  "contractName": "ExamController",
  "sourceName": "contracts/ExamController.sol",
  "abi": [
    {
      "anonymous": false,
      "inputs": [
        {
          "indexed": false,
          "internalType": "address",
          "name": "newExamAddress",
          "type": "address"
        },
        {
          "indexed": false,
          "internalType": "address",
          "name": "creatorAddress",
          "type": "address"
        }
      ],
      "name": "NewExamCreation",
      "type": "event"
    },
    {
      "anonymous": false,
      "inputs": [
        {
          "indexed": false,
          "internalType": "address",
          "name": "examAddress",
          "type": "address"
        },
        {
          "indexed": false,
          "internalType": "address",
          "name": "participantAddress",
          "type": "address"
        }
      ],
      "name": "NewExamParticipation",
      "type": "event"
    },
    {
      "inputs": [
        {
          "internalType": "string",
          "name": "_name",
          "type": "string"
        },
        {
          "internalType": "string",
          "name": "_symbol",
          "type": "string"
        },
        {
          "internalType": "string",
          "name": "_description",
          "type": "string"
        }
      ],
      "name": "addExam",
      "outputs": [],
      "stateMutability": "nonpayable",
      "type": "function"
    },
    {
      "inputs": [],
      "name": "getExams",
      "outputs": [
        {
          "components": [
            {
              "internalType": "string",
              "name": "name",
              "type": "string"
            },
            {
              "internalType": "address",
              "name": "examAddress",
              "type": "address"
            }
          ],
          "internalType": "struct ExamController.ExamHelper[]",
          "name": "",
          "type": "tuple[]"
        }
      ],
      "stateMutability": "view",
      "type": "function"
    },
    {
      "inputs": [
        {
          "internalType": "address",
          "name": "_examAddressToParticipate",
          "type": "address"
        }
      ],
      "name": "manageExamParticipation",
      "outputs": [],
      "stateMutability": "nonpayable",
      "type": "function"
    }
  ],
  "bytecode": "0x608060405234801561001057600080fd5b50615069806100206000396000f3fe60806040523480156200001157600080fd5b5060043610620000465760003560e01c8063236472ce146200004b5780639f82c3f6146200006d578063eb037de6146200008d575b600080fd5b62000055620000ad565b604051620000649190620007e4565b60405180910390f35b6200008b600480360381019062000085919062000843565b620001fe565b005b620000ab6004803603810190620000a59190620008e3565b6200039f565b005b60606000805480602002602001604051908101604052809291908181526020016000905b82821015620001f557838290600052602060002090600202016040518060400160405290816000820180546200010790620009d8565b80601f01602080910402602001604051908101604052809291908181526020018280546200013590620009d8565b8015620001865780601f106200015a5761010080835404028352916020019162000186565b820191906000526020600020905b8154815290600101906020018083116200016857829003601f168201915b505050505081526020016001820160009054906101000a900473ffffffffffffffffffffffffffffffffffffffff1673ffffffffffffffffffffffffffffffffffffffff1673ffffffffffffffffffffffffffffffffffffffff168152505081526020019060010190620000d1565b50505050905090565b6000805b600080549050811015620002ad578273ffffffffffffffffffffffffffffffffffffffff16600082815481106200023e576200023d62000a0e565b5b906000526020600020906002020160010160009054906101000a900473ffffffffffffffffffffffffffffffffffffffff1673ffffffffffffffffffffffffffffffffffffffff161415620002975760019150620002ad565b8080620002a49062000a76565b91505062000202565b5080620002f1576040517f08c379a0000000000000000000000000000000000000000000000000000000008152600401620002e89062000b4b565b60405180910390fd5b8173ffffffffffffffffffffffffffffffffffffffff166396e702f0336040518263ffffffff1660e01b81526004016200032c919062000b7e565b600060405180830381600087803b1580156200034757600080fd5b505af11580156200035c573d6000803e3d6000fd5b505050507f1dbe1c0861a8ab9e3a2a8e4ac25e91bff179731c429ede3f7df878ef05643cac82336040516200039392919062000b9b565b60405180910390a15050565b6000868686868686604051620003b5906200052c565b620003c69695949392919062000c0a565b604051809103906000f080158015620003e3573d6000803e3d6000fd5b5090506000604051806040016040528089898080601f016020809104026020016040519081016040528093929190818152602001838380828437600081840152601f19601f8201169050808301925050505050505081526020018373ffffffffffffffffffffffffffffffffffffffff16815250908060018154018082558091505060019003906000526020600020906002020160009091909190915060008201518160000190805190602001906200049e9291906200053a565b5060208201518160010160006101000a81548173ffffffffffffffffffffffffffffffffffffffff021916908373ffffffffffffffffffffffffffffffffffffffff16021790555050507f5daa9d7a530865258538275419f647693cb8ef24c9a92a39f1360f747741052e81336040516200051b92919062000b9b565b60405180910390a150505050505050565b6143d18062000c6383390190565b8280546200054890620009d8565b90600052602060002090601f0160209004810192826200056c5760008555620005b8565b82601f106200058757805160ff1916838001178555620005b8565b82800160010185558215620005b8579182015b82811115620005b75782518255916020019190600101906200059a565b5b509050620005c79190620005cb565b5090565b5b80821115620005e6576000816000905550600101620005cc565b5090565b600081519050919050565b600082825260208201905092915050565b6000819050602082019050919050565b600081519050919050565b600082825260208201905092915050565b60005b838110156200065257808201518184015260208101905062000635565b8381111562000662576000848401525b50505050565b6000601f19601f8301169050919050565b6000620006868262000616565b62000692818562000621565b9350620006a481856020860162000632565b620006af8162000668565b840191505092915050565b600073ffffffffffffffffffffffffffffffffffffffff82169050919050565b6000620006e782620006ba565b9050919050565b620006f981620006da565b82525050565b600060408301600083015184820360008601526200071e828262000679565b9150506020830151620007356020860182620006ee565b508091505092915050565b60006200074e8383620006ff565b905092915050565b6000602082019050919050565b60006200077082620005ea565b6200077c8185620005f5565b935083602082028501620007908562000606565b8060005b85811015620007d25784840389528151620007b0858262000740565b9450620007bd8362000756565b925060208a0199505060018101905062000794565b50829750879550505050505092915050565b6000602082019050818103600083015262000800818462000763565b905092915050565b600080fd5b600080fd5b6200081d81620006da565b81146200082957600080fd5b50565b6000813590506200083d8162000812565b92915050565b6000602082840312156200085c576200085b62000808565b5b60006200086c848285016200082c565b91505092915050565b600080fd5b600080fd5b600080fd5b60008083601f8401126200089d576200089c62000875565b5b8235905067ffffffffffffffff811115620008bd57620008bc6200087a565b5b602083019150836001820283011115620008dc57620008db6200087f565b5b9250929050565b6000806000806000806060878903121562000903576200090262000808565b5b600087013567ffffffffffffffff8111156200092457620009236200080d565b5b6200093289828a0162000884565b9650965050602087013567ffffffffffffffff8111156200095857620009576200080d565b5b6200096689828a0162000884565b9450945050604087013567ffffffffffffffff8111156200098c576200098b6200080d565b5b6200099a89828a0162000884565b92509250509295509295509295565b7f4e487b7100000000000000000000000000000000000000000000000000000000600052602260045260246000fd5b60006002820490506001821680620009f157607f821691505b6020821081141562000a085762000a07620009a9565b5b50919050565b7f4e487b7100000000000000000000000000000000000000000000000000000000600052603260045260246000fd5b7f4e487b7100000000000000000000000000000000000000000000000000000000600052601160045260246000fd5b6000819050919050565b600062000a838262000a6c565b91507fffffffffffffffffffffffffffffffffffffffffffffffffffffffffffffffff82141562000ab95762000ab862000a3d565b5b600182019050919050565b600082825260208201905092915050565b7f4578616d2077697468207468652070726f76696465642061646472657373206460008201527f6f65736e27742065786973742e00000000000000000000000000000000000000602082015250565b600062000b33602d8362000ac4565b915062000b408262000ad5565b604082019050919050565b6000602082019050818103600083015262000b668162000b24565b9050919050565b62000b7881620006da565b82525050565b600060208201905062000b95600083018462000b6d565b92915050565b600060408201905062000bb2600083018562000b6d565b62000bc1602083018462000b6d565b9392505050565b82818337600083830152505050565b600062000be5838562000ac4565b935062000bf483858462000bc8565b62000bff8362000668565b840190509392505050565b6000606082019050818103600083015262000c2781888a62000bd7565b9050818103602083015262000c3e81868862000bd7565b9050818103604083015262000c5581848662000bd7565b905097965050505050505056fe60806040526040518061016001604052806101318152602001620042a06101319139600b908051906020019062000038929190620001b2565b503480156200004657600080fd5b50604051620043d1380380620043d183398181016040528101906200006c9190620003ff565b8282816000908051906020019062000086929190620001b2565b5080600190805190602001906200009f929190620001b2565b505050620000c2620000b6620000e460201b60201c565b620000ec60201b60201c565b8060099080519060200190620000da929190620001b2565b505050506200051d565b600033905090565b6000600760009054906101000a900473ffffffffffffffffffffffffffffffffffffffff16905081600760006101000a81548173ffffffffffffffffffffffffffffffffffffffff021916908373ffffffffffffffffffffffffffffffffffffffff1602179055508173ffffffffffffffffffffffffffffffffffffffff168173ffffffffffffffffffffffffffffffffffffffff167f8be0079c531659141344cd1fd0a4f28419497f9722a3daafe3b4186f6b6457e060405160405180910390a35050565b828054620001c090620004e7565b90600052602060002090601f016020900481019282620001e4576000855562000230565b82601f10620001ff57805160ff191683800117855562000230565b8280016001018555821562000230579182015b828111156200022f57825182559160200191906001019062000212565b5b5090506200023f919062000243565b5090565b5b808211156200025e57600081600090555060010162000244565b5090565b6000604051905090565b600080fd5b600080fd5b600080fd5b600080fd5b6000601f19601f8301169050919050565b7f4e487b7100000000000000000000000000000000000000000000000000000000600052604160045260246000fd5b620002cb8262000280565b810181811067ffffffffffffffff82111715620002ed57620002ec62000291565b5b80604052505050565b60006200030262000262565b9050620003108282620002c0565b919050565b600067ffffffffffffffff82111562000333576200033262000291565b5b6200033e8262000280565b9050602081019050919050565b60005b838110156200036b5780820151818401526020810190506200034e565b838111156200037b576000848401525b50505050565b600062000398620003928462000315565b620002f6565b905082815260208101848484011115620003b757620003b66200027b565b5b620003c48482856200034b565b509392505050565b600082601f830112620003e457620003e362000276565b5b8151620003f684826020860162000381565b91505092915050565b6000806000606084860312156200041b576200041a6200026c565b5b600084015167ffffffffffffffff8111156200043c576200043b62000271565b5b6200044a86828701620003cc565b935050602084015167ffffffffffffffff8111156200046e576200046d62000271565b5b6200047c86828701620003cc565b925050604084015167ffffffffffffffff811115620004a0576200049f62000271565b5b620004ae86828701620003cc565b9150509250925092565b7f4e487b7100000000000000000000000000000000000000000000000000000000600052602260045260246000fd5b600060028204905060018216806200050057607f821691505b60208210811415620005175762000516620004b8565b5b50919050565b613d73806200052d6000396000f3fe608060405234801561001057600080fd5b50600436106101215760003560e01c80638da5cb5b116100ad578063b88d4fde11610071578063b88d4fde146102f2578063c87b56dd1461030e578063e41c3ce41461033e578063e985e9c51461036e578063f2fde38b1461039e57610121565b80638da5cb5b1461026257806395d89b411461028057806396e702f01461029e578063a22cb465146102ba578063b484be63146102d657610121565b806323b872dd116100f457806323b872dd146101c057806342842e0e146101dc5780636352211e146101f857806370a0823114610228578063715018a61461025857610121565b806301ffc9a71461012657806306fdde0314610156578063081812fc14610174578063095ea7b3146101a4575b600080fd5b610140600480360381019061013b91906124e5565b6103ba565b60405161014d919061252d565b60405180910390f35b61015e61049c565b60405161016b91906125e1565b60405180910390f35b61018e60048036038101906101899190612639565b61052e565b60405161019b91906126a7565b60405180910390f35b6101be60048036038101906101b991906126ee565b610574565b005b6101da60048036038101906101d5919061272e565b61068c565b005b6101f660048036038101906101f1919061272e565b6106ec565b005b610212600480360381019061020d9190612639565b61070c565b60405161021f91906126a7565b60405180910390f35b610242600480360381019061023d9190612781565b610793565b60405161024f91906127bd565b60405180910390f35b61026061084b565b005b61026a61085f565b60405161027791906126a7565b60405180910390f35b610288610889565b60405161029591906125e1565b60405180910390f35b6102b860048036038101906102b39190612781565b61091b565b005b6102d460048036038101906102cf9190612804565b610a84565b005b6102f060048036038101906102eb919061287d565b610a9a565b005b61030c600480360381019061030791906129f2565b610c87565b005b61032860048036038101906103239190612639565b610ce9565b60405161033591906125e1565b60405180910390f35b61035860048036038101906103539190612781565b610dfc565b6040516103659190612ad5565b60405180910390f35b61038860048036038101906103839190612af0565b610f37565b604051610395919061252d565b60405180910390f35b6103b860048036038101906103b39190612781565b610fcb565b005b60007f80ac58cd000000000000000000000000000000000000000000000000000000007bffffffffffffffffffffffffffffffffffffffffffffffffffffffff1916827bffffffffffffffffffffffffffffffffffffffffffffffffffffffff1916148061048557507f5b5e139f000000000000000000000000000000000000000000000000000000007bffffffffffffffffffffffffffffffffffffffffffffffffffffffff1916827bffffffffffffffffffffffffffffffffffffffffffffffffffffffff1916145b8061049557506104948261104f565b5b9050919050565b6060600080546104ab90612b5f565b80601f01602080910402602001604051908101604052809291908181526020018280546104d790612b5f565b80156105245780601f106104f957610100808354040283529160200191610524565b820191906000526020600020905b81548152906001019060200180831161050757829003601f168201915b5050505050905090565b6000610539826110b9565b6004600083815260200190815260200160002060009054906101000a900473ffffffffffffffffffffffffffffffffffffffff169050919050565b600061057f8261070c565b90508073ffffffffffffffffffffffffffffffffffffffff168373ffffffffffffffffffffffffffffffffffffffff1614156105f0576040517f08c379a00000000000000000000000000000000000000000000000000000000081526004016105e790612c03565b60405180910390fd5b8073ffffffffffffffffffffffffffffffffffffffff1661060f611104565b73ffffffffffffffffffffffffffffffffffffffff16148061063e575061063d81610638611104565b610f37565b5b61067d576040517f08c379a000000000000000000000000000000000000000000000000000000000815260040161067490612c95565b60405180910390fd5b610687838361110c565b505050565b61069d610697611104565b826111c5565b6106dc576040517f08c379a00000000000000000000000000000000000000000000000000000000081526004016106d390612d27565b60405180910390fd5b6106e783838361125a565b505050565b61070783838360405180602001604052806000815250610c87565b505050565b60008061071883611295565b9050600073ffffffffffffffffffffffffffffffffffffffff168173ffffffffffffffffffffffffffffffffffffffff16141561078a576040517f08c379a000000000000000000000000000000000000000000000000000000000815260040161078190612d93565b60405180910390fd5b80915050919050565b60008073ffffffffffffffffffffffffffffffffffffffff168273ffffffffffffffffffffffffffffffffffffffff161415610804576040517f08c379a00000000000000000000000000000000000000000000000000000000081526004016107fb90612e25565b60405180910390fd5b600360008373ffffffffffffffffffffffffffffffffffffffff1673ffffffffffffffffffffffffffffffffffffffff168152602001908152602001600020549050919050565b6108536112d2565b61085d6000611350565b565b6000600760009054906101000a900473ffffffffffffffffffffffffffffffffffffffff16905090565b60606001805461089890612b5f565b80601f01602080910402602001604051908101604052809291908181526020018280546108c490612b5f565b80156109115780601f106108e657610100808354040283529160200191610911565b820191906000526020600020905b8154815290600101906020018083116108f457829003601f168201915b5050505050905090565b6109236112d2565b60001515600a60008373ffffffffffffffffffffffffffffffffffffffff1673ffffffffffffffffffffffffffffffffffffffff16815260200190815260200160002060000160029054906101000a900460ff161515146109b9576040517f08c379a00000000000000000000000000000000000000000000000000000000081526004016109b090612eb7565b60405180910390fd5b6040518060600160405280600015158152602001600060ff16815260200160011515815250600a60008373ffffffffffffffffffffffffffffffffffffffff1673ffffffffffffffffffffffffffffffffffffffff16815260200190815260200160002060008201518160000160006101000a81548160ff02191690831515021790555060208201518160000160016101000a81548160ff021916908360ff16021790555060408201518160000160026101000a81548160ff02191690831515021790555090505050565b610a96610a8f611104565b8383611416565b5050565b7386a74f972a4e5f7ba795f80fd97e62151616406e73ffffffffffffffffffffffffffffffffffffffff163373ffffffffffffffffffffffffffffffffffffffff1614610b1c576040517f08c379a0000000000000000000000000000000000000000000000000000000008152600401610b1390612f49565b60405180910390fd5b60001515600a60008373ffffffffffffffffffffffffffffffffffffffff1673ffffffffffffffffffffffffffffffffffffffff16815260200190815260200160002060000160009054906101000a900460ff16151514610bb2576040517f08c379a0000000000000000000000000000000000000000000000000000000008152600401610ba990612fdb565b60405180910390fd5b60405180606001604052806001151581526020018360ff16815260200160011515815250600a60008373ffffffffffffffffffffffffffffffffffffffff1673ffffffffffffffffffffffffffffffffffffffff16815260200190815260200160002060008201518160000160006101000a81548160ff02191690831515021790555060208201518160000160016101000a81548160ff021916908360ff16021790555060408201518160000160026101000a81548160ff021916908315150217905550905050610c838183611583565b5050565b610c98610c92611104565b836111c5565b610cd7576040517f08c379a0000000000000000000000000000000000000000000000000000000008152600401610cce90612d27565b60405180910390fd5b610ce38484848461167e565b50505050565b6060610cf4826110b9565b6000600660008481526020019081526020016000208054610d1490612b5f565b80601f0160208091040260200160405190810160405280929190818152602001828054610d4090612b5f565b8015610d8d5780601f10610d6257610100808354040283529160200191610d8d565b820191906000526020600020905b815481529060010190602001808311610d7057829003601f168201915b505050505090506000610d9e6116da565b9050600081511415610db4578192505050610df7565b600082511115610de9578082604051602001610dd1929190613037565b60405160208183030381529060405292505050610df7565b610df2846116f1565b925050505b919050565b610e046123ae565b600a60008373ffffffffffffffffffffffffffffffffffffffff1673ffffffffffffffffffffffffffffffffffffffff16815260200190815260200160002060000160029054906101000a900460ff16610e93576040517f08c379a0000000000000000000000000000000000000000000000000000000008152600401610e8a906130cd565b60405180910390fd5b600a60008373ffffffffffffffffffffffffffffffffffffffff1673ffffffffffffffffffffffffffffffffffffffff1681526020019081526020016000206040518060600160405290816000820160009054906101000a900460ff161515151581526020016000820160019054906101000a900460ff1660ff1660ff1681526020016000820160029054906101000a900460ff1615151515815250509050919050565b6000600560008473ffffffffffffffffffffffffffffffffffffffff1673ffffffffffffffffffffffffffffffffffffffff16815260200190815260200160002060008373ffffffffffffffffffffffffffffffffffffffff1673ffffffffffffffffffffffffffffffffffffffff16815260200190815260200160002060009054906101000a900460ff16905092915050565b610fd36112d2565b600073ffffffffffffffffffffffffffffffffffffffff168173ffffffffffffffffffffffffffffffffffffffff161415611043576040517f08c379a000000000000000000000000000000000000000000000000000000000815260040161103a9061315f565b60405180910390fd5b61104c81611350565b50565b60007f01ffc9a7000000000000000000000000000000000000000000000000000000007bffffffffffffffffffffffffffffffffffffffffffffffffffffffff1916827bffffffffffffffffffffffffffffffffffffffffffffffffffffffff1916149050919050565b6110c281611759565b611101576040517f08c379a00000000000000000000000000000000000000000000000000000000081526004016110f890612d93565b60405180910390fd5b50565b600033905090565b816004600083815260200190815260200160002060006101000a81548173ffffffffffffffffffffffffffffffffffffffff021916908373ffffffffffffffffffffffffffffffffffffffff160217905550808273ffffffffffffffffffffffffffffffffffffffff1661117f8361070c565b73ffffffffffffffffffffffffffffffffffffffff167f8c5be1e5ebec7d5bd14f71427d1e84f3dd0314c0f7b2291e5b200ac8c7c3b92560405160405180910390a45050565b6000806111d18361070c565b90508073ffffffffffffffffffffffffffffffffffffffff168473ffffffffffffffffffffffffffffffffffffffff16148061121357506112128185610f37565b5b8061125157508373ffffffffffffffffffffffffffffffffffffffff166112398461052e565b73ffffffffffffffffffffffffffffffffffffffff16145b91505092915050565b6040517f08c379a000000000000000000000000000000000000000000000000000000000815260040161128c906131cb565b60405180910390fd5b60006002600083815260200190815260200160002060009054906101000a900473ffffffffffffffffffffffffffffffffffffffff169050919050565b6112da611104565b73ffffffffffffffffffffffffffffffffffffffff166112f861085f565b73ffffffffffffffffffffffffffffffffffffffff161461134e576040517f08c379a000000000000000000000000000000000000000000000000000000000815260040161134590613237565b60405180910390fd5b565b6000600760009054906101000a900473ffffffffffffffffffffffffffffffffffffffff16905081600760006101000a81548173ffffffffffffffffffffffffffffffffffffffff021916908373ffffffffffffffffffffffffffffffffffffffff1602179055508173ffffffffffffffffffffffffffffffffffffffff168173ffffffffffffffffffffffffffffffffffffffff167f8be0079c531659141344cd1fd0a4f28419497f9722a3daafe3b4186f6b6457e060405160405180910390a35050565b8173ffffffffffffffffffffffffffffffffffffffff168373ffffffffffffffffffffffffffffffffffffffff161415611485576040517f08c379a000000000000000000000000000000000000000000000000000000000815260040161147c906132a3565b60405180910390fd5b80600560008573ffffffffffffffffffffffffffffffffffffffff1673ffffffffffffffffffffffffffffffffffffffff16815260200190815260200160002060008473ffffffffffffffffffffffffffffffffffffffff1673ffffffffffffffffffffffffffffffffffffffff16815260200190815260200160002060006101000a81548160ff0219169083151502179055508173ffffffffffffffffffffffffffffffffffffffff168373ffffffffffffffffffffffffffffffffffffffff167f17307eab39ab6107e8899845ad3d59bd9653f200f220920489ca2b5937696c3183604051611576919061252d565b60405180910390a3505050565b600061158f600861179a565b905060006115b48473ffffffffffffffffffffffffffffffffffffffff1660146117a8565b90506000600b6115c261049c565b836115cf8760ff166119e4565b6040516020016115e29493929190613545565b6040516020818303038152906040529050600061163161160061049c565b600961160b85611abc565b60405160200161161d9392919061371b565b604051602081830303815290604052611abc565b905060008160405160200161164691906137c4565b60405160208183030381529060405290506116618786611c54565b61166b8582611c72565b6116756008611ce6565b50505050505050565b61168984848461125a565b61169584848484611cfc565b6116d4576040517f08c379a00000000000000000000000000000000000000000000000000000000081526004016116cb90613858565b60405180910390fd5b50505050565b606060405180602001604052806000815250905090565b60606116fc826110b9565b60006117066116da565b905060008151116117265760405180602001604052806000815250611751565b80611730846119e4565b604051602001611741929190613037565b6040516020818303038152906040525b915050919050565b60008073ffffffffffffffffffffffffffffffffffffffff1661177b83611295565b73ffffffffffffffffffffffffffffffffffffffff1614159050919050565b600081600001549050919050565b6060600060028360026117bb91906138a7565b6117c59190613901565b67ffffffffffffffff8111156117de576117dd6128c7565b5b6040519080825280601f01601f1916602001820160405280156118105781602001600182028036833780820191505090505b5090507f30000000000000000000000000000000000000000000000000000000000000008160008151811061184857611847613957565b5b60200101907effffffffffffffffffffffffffffffffffffffffffffffffffffffffffffff1916908160001a9053507f7800000000000000000000000000000000000000000000000000000000000000816001815181106118ac576118ab613957565b5b60200101907effffffffffffffffffffffffffffffffffffffffffffffffffffffffffffff1916908160001a905350600060018460026118ec91906138a7565b6118f69190613901565b90505b6001811115611996577f3031323334353637383961626364656600000000000000000000000000000000600f86166010811061193857611937613957565b5b1a60f81b82828151811061194f5761194e613957565b5b60200101907effffffffffffffffffffffffffffffffffffffffffffffffffffffffffffff1916908160001a905350600485901c94508061198f90613986565b90506118f9565b50600084146119da576040517f08c379a00000000000000000000000000000000000000000000000000000000081526004016119d1906139fc565b60405180910390fd5b8091505092915050565b6060600060016119f384611e93565b01905060008167ffffffffffffffff811115611a1257611a116128c7565b5b6040519080825280601f01601f191660200182016040528015611a445781602001600182028036833780820191505090505b509050600082602001820190505b600115611ab1578080600190039150507f3031323334353637383961626364656600000000000000000000000000000000600a86061a8153600a8581611a9b57611a9a613a1c565b5b0494506000851415611aac57611ab1565b611a52565b819350505050919050565b60606000825190506000811415611ae55760405180602001604052806000815250915050611c4f565b60006003600283611af69190613901565b611b009190613a4b565b6004611b0c91906138a7565b90506000602082611b1d9190613901565b67ffffffffffffffff811115611b3657611b356128c7565b5b6040519080825280601f01601f191660200182016040528015611b685781602001600182028036833780820191505090505b5090506000604051806060016040528060408152602001613cfe604091399050600181016020830160005b86811015611c0c5760038101905062ffffff818a015116603f8160121c168401518060081b905060ff603f83600c1c1686015116810190508060081b905060ff603f8360061c1686015116810190508060081b905060ff603f831686015116810190508060e01b90508084526004840193505050611b93565b506003860660018114611c265760028114611c3657611c41565b613d3d60f01b6002830352611c41565b603d60f81b60018303525b508484525050819450505050505b919050565b611c6e828260405180602001604052806000815250611fe6565b5050565b611c7b82611759565b611cba576040517f08c379a0000000000000000000000000000000000000000000000000000000008152600401611cb190613aee565b60405180910390fd5b80600660008481526020019081526020016000209080519060200190611ce19291906123d6565b505050565b6001816000016000828254019250508190555050565b6000611d1d8473ffffffffffffffffffffffffffffffffffffffff16612041565b15611e86578373ffffffffffffffffffffffffffffffffffffffff1663150b7a02611d46611104565b8786866040518563ffffffff1660e01b8152600401611d689493929190613b63565b602060405180830381600087803b158015611d8257600080fd5b505af1925050508015611db357506040513d601f19601f82011682018060405250810190611db09190613bc4565b60015b611e36573d8060008114611de3576040519150601f19603f3d011682016040523d82523d6000602084013e611de8565b606091505b50600081511415611e2e576040517f08c379a0000000000000000000000000000000000000000000000000000000008152600401611e2590613858565b60405180910390fd5b805181602001fd5b63150b7a0260e01b7bffffffffffffffffffffffffffffffffffffffffffffffffffffffff1916817bffffffffffffffffffffffffffffffffffffffffffffffffffffffff191614915050611e8b565b600190505b949350505050565b600080600090507a184f03e93ff9f4daa797ed6e38ed64bf6a1f0100000000000000008310611ef1577a184f03e93ff9f4daa797ed6e38ed64bf6a1f0100000000000000008381611ee757611ee6613a1c565b5b0492506040810190505b6d04ee2d6d415b85acef81000000008310611f2e576d04ee2d6d415b85acef81000000008381611f2457611f23613a1c565b5b0492506020810190505b662386f26fc100008310611f5d57662386f26fc100008381611f5357611f52613a1c565b5b0492506010810190505b6305f5e1008310611f86576305f5e1008381611f7c57611f7b613a1c565b5b0492506008810190505b6127108310611fab576127108381611fa157611fa0613a1c565b5b0492506004810190505b60648310611fce5760648381611fc457611fc3613a1c565b5b0492506002810190505b600a8310611fdd576001810190505b80915050919050565b611ff08383612064565b611ffd6000848484611cfc565b61203c576040517f08c379a000000000000000000000000000000000000000000000000000000000815260040161203390613858565b60405180910390fd5b505050565b6000808273ffffffffffffffffffffffffffffffffffffffff163b119050919050565b600073ffffffffffffffffffffffffffffffffffffffff168273ffffffffffffffffffffffffffffffffffffffff1614156120d4576040517f08c379a00000000000000000000000000000000000000000000000000000000081526004016120cb90613c3d565b60405180910390fd5b6120dd81611759565b1561211d576040517f08c379a000000000000000000000000000000000000000000000000000000000815260040161211490613ca9565b60405180910390fd5b61212b600083836001612282565b61213481611759565b15612174576040517f08c379a000000000000000000000000000000000000000000000000000000000815260040161216b90613ca9565b60405180910390fd5b6001600360008473ffffffffffffffffffffffffffffffffffffffff1673ffffffffffffffffffffffffffffffffffffffff16815260200190815260200160002060008282540192505081905550816002600083815260200190815260200160002060006101000a81548173ffffffffffffffffffffffffffffffffffffffff021916908373ffffffffffffffffffffffffffffffffffffffff160217905550808273ffffffffffffffffffffffffffffffffffffffff16600073ffffffffffffffffffffffffffffffffffffffff167fddf252ad1be2c89b69c2b068fc378daa952ba7f163c4a11628f55a4df523b3ef60405160405180910390a461227e6000838360016123a8565b5050565b60018111156123a257600073ffffffffffffffffffffffffffffffffffffffff168473ffffffffffffffffffffffffffffffffffffffff16146123165780600360008673ffffffffffffffffffffffffffffffffffffffff1673ffffffffffffffffffffffffffffffffffffffff168152602001908152602001600020600082825461230e9190613cc9565b925050819055505b600073ffffffffffffffffffffffffffffffffffffffff168373ffffffffffffffffffffffffffffffffffffffff16146123a15780600360008573ffffffffffffffffffffffffffffffffffffffff1673ffffffffffffffffffffffffffffffffffffffff16815260200190815260200160002060008282546123999190613901565b925050819055505b5b50505050565b50505050565b6040518060600160405280600015158152602001600060ff1681526020016000151581525090565b8280546123e290612b5f565b90600052602060002090601f016020900481019282612404576000855561244b565b82601f1061241d57805160ff191683800117855561244b565b8280016001018555821561244b579182015b8281111561244a57825182559160200191906001019061242f565b5b509050612458919061245c565b5090565b5b8082111561247557600081600090555060010161245d565b5090565b6000604051905090565b600080fd5b600080fd5b60007fffffffff0000000000000000000000000000000000000000000000000000000082169050919050565b6124c28161248d565b81146124cd57600080fd5b50565b6000813590506124df816124b9565b92915050565b6000602082840312156124fb576124fa612483565b5b6000612509848285016124d0565b91505092915050565b60008115159050919050565b61252781612512565b82525050565b6000602082019050612542600083018461251e565b92915050565b600081519050919050565b600082825260208201905092915050565b60005b83811015612582578082015181840152602081019050612567565b83811115612591576000848401525b50505050565b6000601f19601f8301169050919050565b60006125b382612548565b6125bd8185612553565b93506125cd818560208601612564565b6125d681612597565b840191505092915050565b600060208201905081810360008301526125fb81846125a8565b905092915050565b6000819050919050565b61261681612603565b811461262157600080fd5b50565b6000813590506126338161260d565b92915050565b60006020828403121561264f5761264e612483565b5b600061265d84828501612624565b91505092915050565b600073ffffffffffffffffffffffffffffffffffffffff82169050919050565b600061269182612666565b9050919050565b6126a181612686565b82525050565b60006020820190506126bc6000830184612698565b92915050565b6126cb81612686565b81146126d657600080fd5b50565b6000813590506126e8816126c2565b92915050565b6000806040838503121561270557612704612483565b5b6000612713858286016126d9565b925050602061272485828601612624565b9150509250929050565b60008060006060848603121561274757612746612483565b5b6000612755868287016126d9565b9350506020612766868287016126d9565b925050604061277786828701612624565b9150509250925092565b60006020828403121561279757612796612483565b5b60006127a5848285016126d9565b91505092915050565b6127b781612603565b82525050565b60006020820190506127d260008301846127ae565b92915050565b6127e181612512565b81146127ec57600080fd5b50565b6000813590506127fe816127d8565b92915050565b6000806040838503121561281b5761281a612483565b5b6000612829858286016126d9565b925050602061283a858286016127ef565b9150509250929050565b600060ff82169050919050565b61285a81612844565b811461286557600080fd5b50565b60008135905061287781612851565b92915050565b6000806040838503121561289457612893612483565b5b60006128a285828601612868565b92505060206128b3858286016126d9565b9150509250929050565b600080fd5b600080fd5b7f4e487b7100000000000000000000000000000000000000000000000000000000600052604160045260246000fd5b6128ff82612597565b810181811067ffffffffffffffff8211171561291e5761291d6128c7565b5b80604052505050565b6000612931612479565b905061293d82826128f6565b919050565b600067ffffffffffffffff82111561295d5761295c6128c7565b5b61296682612597565b9050602081019050919050565b82818337600083830152505050565b600061299561299084612942565b612927565b9050828152602081018484840111156129b1576129b06128c2565b5b6129bc848285612973565b509392505050565b600082601f8301126129d9576129d86128bd565b5b81356129e9848260208601612982565b91505092915050565b60008060008060808587031215612a0c57612a0b612483565b5b6000612a1a878288016126d9565b9450506020612a2b878288016126d9565b9350506040612a3c87828801612624565b925050606085013567ffffffffffffffff811115612a5d57612a5c612488565b5b612a69878288016129c4565b91505092959194509250565b612a7e81612512565b82525050565b612a8d81612844565b82525050565b606082016000820151612aa96000850182612a75565b506020820151612abc6020850182612a84565b506040820151612acf6040850182612a75565b50505050565b6000606082019050612aea6000830184612a93565b92915050565b60008060408385031215612b0757612b06612483565b5b6000612b15858286016126d9565b9250506020612b26858286016126d9565b9150509250929050565b7f4e487b7100000000000000000000000000000000000000000000000000000000600052602260045260246000fd5b60006002820490506001821680612b7757607f821691505b60208210811415612b8b57612b8a612b30565b5b50919050565b7f4552433732313a20617070726f76616c20746f2063757272656e74206f776e6560008201527f7200000000000000000000000000000000000000000000000000000000000000602082015250565b6000612bed602183612553565b9150612bf882612b91565b604082019050919050565b60006020820190508181036000830152612c1c81612be0565b9050919050565b7f4552433732313a20617070726f76652063616c6c6572206973206e6f7420746f60008201527f6b656e206f776e6572206f7220617070726f76656420666f7220616c6c000000602082015250565b6000612c7f603d83612553565b9150612c8a82612c23565b604082019050919050565b60006020820190508181036000830152612cae81612c72565b9050919050565b7f4552433732313a2063616c6c6572206973206e6f7420746f6b656e206f776e6560008201527f72206f7220617070726f76656400000000000000000000000000000000000000602082015250565b6000612d11602d83612553565b9150612d1c82612cb5565b604082019050919050565b60006020820190508181036000830152612d4081612d04565b9050919050565b7f4552433732313a20696e76616c696420746f6b656e2049440000000000000000600082015250565b6000612d7d601883612553565b9150612d8882612d47565b602082019050919050565b60006020820190508181036000830152612dac81612d70565b9050919050565b7f4552433732313a2061646472657373207a65726f206973206e6f74206120766160008201527f6c6964206f776e65720000000000000000000000000000000000000000000000602082015250565b6000612e0f602983612553565b9150612e1a82612db3565b604082019050919050565b60006020820190508181036000830152612e3e81612e02565b9050919050565b7f546865207573657220776974682074686973206164647265737320686173206160008201527f6c7265616479207374617274656420746865206578616d000000000000000000602082015250565b6000612ea1603783612553565b9150612eac82612e45565b604082019050919050565b60006020820190508181036000830152612ed081612e94565b9050919050565b7f596f757220616464726573732069736e277420746865206261636b656e64206160008201527f6464726573732e00000000000000000000000000000000000000000000000000602082015250565b6000612f33602783612553565b9150612f3e82612ed7565b604082019050919050565b60006020820190508181036000830152612f6281612f26565b9050919050565b7f546865207573657220776974682074686973206164647265737320686173206160008201527f6c72656164792066696e697368656420746865206578616d0000000000000000602082015250565b6000612fc5603883612553565b9150612fd082612f69565b604082019050919050565b60006020820190508181036000830152612ff481612fb8565b9050919050565b600081905092915050565b600061301182612548565b61301b8185612ffb565b935061302b818560208601612564565b80840191505092915050565b60006130438285613006565b915061304f8284613006565b91508190509392505050565b7f5468657265206973206e6f207061727469636970616e7420776974682074686960008201527f7320616464726573732e00000000000000000000000000000000000000000000602082015250565b60006130b7602a83612553565b91506130c28261305b565b604082019050919050565b600060208201905081810360008301526130e6816130aa565b9050919050565b7f4f776e61626c653a206e6577206f776e657220697320746865207a65726f206160008201527f6464726573730000000000000000000000000000000000000000000000000000602082015250565b6000613149602683612553565b9150613154826130ed565b604082019050919050565b600060208201905081810360008301526131788161313c565b9050919050565b7f596f752063616e6e6f74207472616e73666572204578616d20746f6b656e7300600082015250565b60006131b5601f83612553565b91506131c08261317f565b602082019050919050565b600060208201905081810360008301526131e4816131a8565b9050919050565b7f4f776e61626c653a2063616c6c6572206973206e6f7420746865206f776e6572600082015250565b6000613221602083612553565b915061322c826131eb565b602082019050919050565b6000602082019050818103600083015261325081613214565b9050919050565b7f4552433732313a20617070726f766520746f2063616c6c657200000000000000600082015250565b600061328d601983612553565b915061329882613257565b602082019050919050565b600060208201905081810360008301526132bc81613280565b9050919050565b60008190508160005260206000209050919050565b600081546132e581612b5f565b6132ef8186612ffb565b9450600182166000811461330a576001811461331b5761334e565b60ff1983168652818601935061334e565b613324856132c3565b60005b8381101561334657815481890152600182019150602081019050613327565b838801955050505b50505092915050565b7f3c747370616e20783d273530252720793d273235252720666f6e742d73697a6560008201527f3d2732307078273e000000000000000000000000000000000000000000000000602082015250565b60006133b3602883612ffb565b91506133be82613357565b602882019050919050565b7f3c2f747370616e3e000000000000000000000000000000000000000000000000600082015250565b60006133ff600883612ffb565b915061340a826133c9565b600882019050919050565b7f3c747370616e20783d273530252720793d273530252720666f6e742d73697a6560008201527f3d2731347078273e000000000000000000000000000000000000000000000000602082015250565b6000613471602883612ffb565b915061347c82613415565b602882019050919050565b7f3c747370616e20783d273530252720793d273735252720666f6e742d73697a6560008201527f3d2734307078273e2053636f7265200000000000000000000000000000000000602082015250565b60006134e3602f83612ffb565b91506134ee82613487565b602f82019050919050565b7f253c2f747370616e3e3c2f746578743e3c2f7376673e00000000000000000000600082015250565b600061352f601683612ffb565b915061353a826134f9565b601682019050919050565b600061355182876132d8565b915061355c826133a6565b91506135688286613006565b9150613573826133f2565b915061357e82613464565b915061358a8285613006565b9150613595826133f2565b91506135a0826134d6565b91506135ac8284613006565b91506135b782613522565b915081905095945050505050565b7f7b226e616d65223a202200000000000000000000000000000000000000000000600082015250565b60006135fb600a83612ffb565b9150613606826135c5565b600a82019050919050565b7f222c20226465736372697074696f6e223a202200000000000000000000000000600082015250565b6000613647601383612ffb565b915061365282613611565b601382019050919050565b7f222c2022696d616765223a2022646174613a696d6167652f7376672b786d6c3b60008201527f6261736536342c00000000000000000000000000000000000000000000000000602082015250565b60006136b9602783612ffb565b91506136c48261365d565b602782019050919050565b7f227d000000000000000000000000000000000000000000000000000000000000600082015250565b6000613705600283612ffb565b9150613710826136cf565b600282019050919050565b6000613726826135ee565b91506137328286613006565b915061373d8261363a565b915061374982856132d8565b9150613754826136ac565b91506137608284613006565b915061376b826136f8565b9150819050949350505050565b7f646174613a6170706c69636174696f6e2f6a736f6e3b6261736536342c000000600082015250565b60006137ae601d83612ffb565b91506137b982613778565b601d82019050919050565b60006137cf826137a1565b91506137db8284613006565b915081905092915050565b7f4552433732313a207472616e7366657220746f206e6f6e20455243373231526560008201527f63656976657220696d706c656d656e7465720000000000000000000000000000602082015250565b6000613842603283612553565b915061384d826137e6565b604082019050919050565b6000602082019050818103600083015261387181613835565b9050919050565b7f4e487b7100000000000000000000000000000000000000000000000000000000600052601160045260246000fd5b60006138b282612603565b91506138bd83612603565b9250817fffffffffffffffffffffffffffffffffffffffffffffffffffffffffffffffff04831182151516156138f6576138f5613878565b5b828202905092915050565b600061390c82612603565b915061391783612603565b9250827fffffffffffffffffffffffffffffffffffffffffffffffffffffffffffffffff0382111561394c5761394b613878565b5b828201905092915050565b7f4e487b7100000000000000000000000000000000000000000000000000000000600052603260045260246000fd5b600061399182612603565b915060008214156139a5576139a4613878565b5b600182039050919050565b7f537472696e67733a20686578206c656e67746820696e73756666696369656e74600082015250565b60006139e6602083612553565b91506139f1826139b0565b602082019050919050565b60006020820190508181036000830152613a15816139d9565b9050919050565b7f4e487b7100000000000000000000000000000000000000000000000000000000600052601260045260246000fd5b6000613a5682612603565b9150613a6183612603565b925082613a7157613a70613a1c565b5b828204905092915050565b7f45524337323155524953746f726167653a2055524920736574206f66206e6f6e60008201527f6578697374656e7420746f6b656e000000000000000000000000000000000000602082015250565b6000613ad8602e83612553565b9150613ae382613a7c565b604082019050919050565b60006020820190508181036000830152613b0781613acb565b9050919050565b600081519050919050565b600082825260208201905092915050565b6000613b3582613b0e565b613b3f8185613b19565b9350613b4f818560208601612564565b613b5881612597565b840191505092915050565b6000608082019050613b786000830187612698565b613b856020830186612698565b613b9260408301856127ae565b8181036060830152613ba48184613b2a565b905095945050505050565b600081519050613bbe816124b9565b92915050565b600060208284031215613bda57613bd9612483565b5b6000613be884828501613baf565b91505092915050565b7f4552433732313a206d696e7420746f20746865207a65726f2061646472657373600082015250565b6000613c27602083612553565b9150613c3282613bf1565b602082019050919050565b60006020820190508181036000830152613c5681613c1a565b9050919050565b7f4552433732313a20746f6b656e20616c7265616479206d696e74656400000000600082015250565b6000613c93601c83612553565b9150613c9e82613c5d565b602082019050919050565b60006020820190508181036000830152613cc281613c86565b9050919050565b6000613cd482612603565b9150613cdf83612603565b925082821015613cf257613cf1613878565b5b82820390509291505056fe4142434445464748494a4b4c4d4e4f505152535455565758595a6162636465666768696a6b6c6d6e6f707172737475767778797a303132333435363738392b2fa264697066735822122028a2acb935802d4badf00dc142a090968a2d4de4f0f752e1a68395578839f7ec64736f6c634300080900333c73766720786d6c6e733d27687474703a2f2f7777772e77332e6f72672f323030302f73766727207072657365727665417370656374526174696f3d27784d696e594d696e206d656574272076696577426f783d273020302033353020333530273e3c7374796c653e2e62617365207b2066696c6c3a2077686974653b20666f6e742d66616d696c793a2073657269663b20666f6e742d73697a653a20323470783b207d3c2f7374796c653e3c726563742077696474683d273130302527206865696768743d2731303025272066696c6c3d272346423932334327202f3e3c7465787420783d273530252720793d273530252720636c6173733d27626173652720646f6d696e616e742d626173656c696e653d276d6964646c652720746578742d616e63686f723d276d6964646c65273ea2646970667358221220b14516e37236851c12e855fb7147c05b85d65c811f99ffecf637231943ba4a1364736f6c63430008090033",
  "linkReferences": {},
  "deployedLinkReferences": {}
}