{
  "_format": "hh-sol-artifact-1",
  "contractName": "ExamController",
  "sourceName": "contracts/ExamController.sol",
  "abi": [
    {
      "anonymous": false,
      "inputs": [
        {
          "indexed": false,
          "internalType": "address",
          "name": "newExamAddress",
          "type": "address"
        },
        {
          "indexed": false,
          "internalType": "address",
          "name": "creatorAddress",
          "type": "address"
        }
      ],
      "name": "NewExamCreation",
      "type": "event"
    },
    {
      "anonymous": false,
      "inputs": [
        {
          "indexed": false,
          "internalType": "address",
          "name": "examAddress",
          "type": "address"
        },
        {
          "indexed": false,
          "internalType": "address",
          "name": "participantAddress",
          "type": "address"
        }
      ],
      "name": "NewExamParticipation",
      "type": "event"
    },
    {
      "inputs": [
        {
          "internalType": "string",
          "name": "_name",
          "type": "string"
        },
        {
          "internalType": "string",
          "name": "_symbol",
          "type": "string"
        }
      ],
      "name": "addExam",
      "outputs": [],
      "stateMutability": "nonpayable",
      "type": "function"
    },
    {
      "inputs": [],
      "name": "getExams",
      "outputs": [
        {
          "components": [
            {
              "internalType": "string",
              "name": "name",
              "type": "string"
            },
            {
              "internalType": "address",
              "name": "examAddress",
              "type": "address"
            }
          ],
          "internalType": "struct ExamController.ExamHelper[]",
          "name": "",
          "type": "tuple[]"
        }
      ],
      "stateMutability": "view",
      "type": "function"
    },
    {
      "inputs": [
        {
          "internalType": "address",
          "name": "_examAddressToParticipate",
          "type": "address"
        }
      ],
      "name": "manageExamParticipation",
      "outputs": [],
      "stateMutability": "nonpayable",
      "type": "function"
    }
  ],
  "bytecode": "0x608060405234801561001057600080fd5b50614c73806100206000396000f3fe60806040523480156200001157600080fd5b5060043610620000465760003560e01c8063236472ce146200004b578063813f91d0146200006d5780639f82c3f6146200008d575b600080fd5b62000055620000ad565b604051620000649190620007e2565b60405180910390f35b6200008b60048036038101906200008591906200087e565b620001fe565b005b620000ab6004803603810190620000a591906200093d565b62000389565b005b60606000805480602002602001604051908101604052809291908181526020016000905b82821015620001f5578382906000526020600020906002020160405180604001604052908160008201805462000107906200099e565b80601f016020809104026020016040519081016040528092919081815260200182805462000135906200099e565b8015620001865780601f106200015a5761010080835404028352916020019162000186565b820191906000526020600020905b8154815290600101906020018083116200016857829003601f168201915b505050505081526020016001820160009054906101000a900473ffffffffffffffffffffffffffffffffffffffff1673ffffffffffffffffffffffffffffffffffffffff1673ffffffffffffffffffffffffffffffffffffffff168152505081526020019060010190620000d1565b50505050905090565b600084848484333060405162000214906200052a565b620002259695949392919062000a38565b604051809103906000f08015801562000242573d6000803e3d6000fd5b5090506000604051806040016040528087878080601f016020809104026020016040519081016040528093929190818152602001838380828437600081840152601f19601f8201169050808301925050505050505081526020018373ffffffffffffffffffffffffffffffffffffffff1681525090806001815401808255809150506001900390600052602060002090600202016000909190919091506000820151816000019080519060200190620002fd92919062000538565b5060208201518160010160006101000a81548173ffffffffffffffffffffffffffffffffffffffff021916908373ffffffffffffffffffffffffffffffffffffffff16021790555050507f5daa9d7a530865258538275419f647693cb8ef24c9a92a39f1360f747741052e81336040516200037a92919062000a97565b60405180910390a15050505050565b6000805b60008054905081101562000438578273ffffffffffffffffffffffffffffffffffffffff1660008281548110620003c957620003c862000ac4565b5b906000526020600020906002020160010160009054906101000a900473ffffffffffffffffffffffffffffffffffffffff1673ffffffffffffffffffffffffffffffffffffffff16141562000422576001915062000438565b80806200042f9062000b2c565b9150506200038d565b50806200047c576040517f08c379a0000000000000000000000000000000000000000000000000000000008152600401620004739062000bf0565b60405180910390fd5b8173ffffffffffffffffffffffffffffffffffffffff166396e702f0336040518263ffffffff1660e01b8152600401620004b7919062000c12565b600060405180830381600087803b158015620004d257600080fd5b505af1158015620004e7573d6000803e3d6000fd5b505050507f1dbe1c0861a8ab9e3a2a8e4ac25e91bff179731c429ede3f7df878ef05643cac82336040516200051e92919062000a97565b60405180910390a15050565b61400e8062000c3083390190565b82805462000546906200099e565b90600052602060002090601f0160209004810192826200056a5760008555620005b6565b82601f106200058557805160ff1916838001178555620005b6565b82800160010185558215620005b6579182015b82811115620005b557825182559160200191906001019062000598565b5b509050620005c59190620005c9565b5090565b5b80821115620005e4576000816000905550600101620005ca565b5090565b600081519050919050565b600082825260208201905092915050565b6000819050602082019050919050565b600081519050919050565b600082825260208201905092915050565b60005b838110156200065057808201518184015260208101905062000633565b8381111562000660576000848401525b50505050565b6000601f19601f8301169050919050565b6000620006848262000614565b6200069081856200061f565b9350620006a281856020860162000630565b620006ad8162000666565b840191505092915050565b600073ffffffffffffffffffffffffffffffffffffffff82169050919050565b6000620006e582620006b8565b9050919050565b620006f781620006d8565b82525050565b600060408301600083015184820360008601526200071c828262000677565b9150506020830151620007336020860182620006ec565b508091505092915050565b60006200074c8383620006fd565b905092915050565b6000602082019050919050565b60006200076e82620005e8565b6200077a8185620005f3565b9350836020820285016200078e8562000604565b8060005b85811015620007d05784840389528151620007ae85826200073e565b9450620007bb8362000754565b925060208a0199505060018101905062000792565b50829750879550505050505092915050565b60006020820190508181036000830152620007fe818462000761565b905092915050565b600080fd5b600080fd5b600080fd5b600080fd5b600080fd5b60008083601f84011262000838576200083762000810565b5b8235905067ffffffffffffffff81111562000858576200085762000815565b5b6020830191508360018202830111156200087757620008766200081a565b5b9250929050565b600080600080604085870312156200089b576200089a62000806565b5b600085013567ffffffffffffffff811115620008bc57620008bb6200080b565b5b620008ca878288016200081f565b9450945050602085013567ffffffffffffffff811115620008f057620008ef6200080b565b5b620008fe878288016200081f565b925092505092959194509250565b6200091781620006d8565b81146200092357600080fd5b50565b60008135905062000937816200090c565b92915050565b60006020828403121562000956576200095562000806565b5b6000620009668482850162000926565b91505092915050565b7f4e487b7100000000000000000000000000000000000000000000000000000000600052602260045260246000fd5b60006002820490506001821680620009b757607f821691505b60208210811415620009ce57620009cd6200096f565b5b50919050565b600082825260208201905092915050565b82818337600083830152505050565b600062000a028385620009d4565b935062000a11838584620009e5565b62000a1c8362000666565b840190509392505050565b62000a3281620006d8565b82525050565b6000608082019050818103600083015262000a5581888a620009f4565b9050818103602083015262000a6c818688620009f4565b905062000a7d604083018562000a27565b62000a8c606083018462000a27565b979650505050505050565b600060408201905062000aae600083018562000a27565b62000abd602083018462000a27565b9392505050565b7f4e487b7100000000000000000000000000000000000000000000000000000000600052603260045260246000fd5b7f4e487b7100000000000000000000000000000000000000000000000000000000600052601160045260246000fd5b6000819050919050565b600062000b398262000b22565b91507fffffffffffffffffffffffffffffffffffffffffffffffffffffffffffffffff82141562000b6f5762000b6e62000af3565b5b600182019050919050565b7f4578616d2077697468207468652070726f76696465642061646472657373206460008201527f6f65736e27742065786973742e00000000000000000000000000000000000000602082015250565b600062000bd8602d83620009d4565b915062000be58262000b7a565b604082019050919050565b6000602082019050818103600083015262000c0b8162000bc9565b9050919050565b600060208201905062000c29600083018462000a27565b9291505056fe608060405260405180610160016040528061012f815260200162003edf61012f9139600b9080519060200190620000389291906200012e565b503480156200004657600080fd5b506040516200400e3803806200400e83398181016040528101906200006c9190620003e0565b83838160009080519060200190620000869291906200012e565b5080600190805190602001906200009f9291906200012e565b50505081600860006101000a81548173ffffffffffffffffffffffffffffffffffffffff021916908373ffffffffffffffffffffffffffffffffffffffff16021790555080600960006101000a81548173ffffffffffffffffffffffffffffffffffffffff021916908373ffffffffffffffffffffffffffffffffffffffff16021790555050505050620004f5565b8280546200013c90620004bf565b90600052602060002090601f016020900481019282620001605760008555620001ac565b82601f106200017b57805160ff1916838001178555620001ac565b82800160010185558215620001ac579182015b82811115620001ab5782518255916020019190600101906200018e565b5b509050620001bb9190620001bf565b5090565b5b80821115620001da576000816000905550600101620001c0565b5090565b6000604051905090565b600080fd5b600080fd5b600080fd5b600080fd5b6000601f19601f8301169050919050565b7f4e487b7100000000000000000000000000000000000000000000000000000000600052604160045260246000fd5b6200024782620001fc565b810181811067ffffffffffffffff821117156200026957620002686200020d565b5b80604052505050565b60006200027e620001de565b90506200028c82826200023c565b919050565b600067ffffffffffffffff821115620002af57620002ae6200020d565b5b620002ba82620001fc565b9050602081019050919050565b60005b83811015620002e7578082015181840152602081019050620002ca565b83811115620002f7576000848401525b50505050565b6000620003146200030e8462000291565b62000272565b905082815260208101848484011115620003335762000332620001f7565b5b62000340848285620002c7565b509392505050565b600082601f83011262000360576200035f620001f2565b5b815162000372848260208601620002fd565b91505092915050565b600073ffffffffffffffffffffffffffffffffffffffff82169050919050565b6000620003a8826200037b565b9050919050565b620003ba816200039b565b8114620003c657600080fd5b50565b600081519050620003da81620003af565b92915050565b60008060008060808587031215620003fd57620003fc620001e8565b5b600085015167ffffffffffffffff8111156200041e576200041d620001ed565b5b6200042c8782880162000348565b945050602085015167ffffffffffffffff81111562000450576200044f620001ed565b5b6200045e8782880162000348565b93505060406200047187828801620003c9565b92505060606200048487828801620003c9565b91505092959194509250565b7f4e487b7100000000000000000000000000000000000000000000000000000000600052602260045260246000fd5b60006002820490506001821680620004d857607f821691505b60208210811415620004ef57620004ee62000490565b5b50919050565b6139da80620005056000396000f3fe608060405234801561001057600080fd5b50600436106101005760003560e01c806395d89b4111610097578063b88d4fde11610066578063b88d4fde146102a9578063c87b56dd146102c5578063e41c3ce4146102f5578063e985e9c51461032557610100565b806395d89b411461023757806396e702f014610255578063a22cb46514610271578063b484be631461028d57610100565b806323b872dd116100d357806323b872dd1461019f57806342842e0e146101bb5780636352211e146101d757806370a082311461020757610100565b806301ffc9a71461010557806306fdde0314610135578063081812fc14610153578063095ea7b314610183575b600080fd5b61011f600480360381019061011a91906121e8565b610355565b60405161012c9190612230565b60405180910390f35b61013d610437565b60405161014a91906122e4565b60405180910390f35b61016d6004803603810190610168919061233c565b6104c9565b60405161017a91906123aa565b60405180910390f35b61019d600480360381019061019891906123f1565b61050f565b005b6101b960048036038101906101b49190612431565b610627565b005b6101d560048036038101906101d09190612431565b610687565b005b6101f160048036038101906101ec919061233c565b6106a7565b6040516101fe91906123aa565b60405180910390f35b610221600480360381019061021c9190612484565b610759565b60405161022e91906124c0565b60405180910390f35b61023f610811565b60405161024c91906122e4565b60405180910390f35b61026f600480360381019061026a9190612484565b6108a3565b005b61028b60048036038101906102869190612507565b6109fe565b005b6102a760048036038101906102a29190612580565b610a14565b005b6102c360048036038101906102be91906126f5565b610b6b565b005b6102df60048036038101906102da919061233c565b610bcd565b6040516102ec91906122e4565b60405180910390f35b61030f600480360381019061030a9190612484565b610ce0565b60405161031c91906127d8565b60405180910390f35b61033f600480360381019061033a91906127f3565b610e1b565b60405161034c9190612230565b60405180910390f35b60007f80ac58cd000000000000000000000000000000000000000000000000000000007bffffffffffffffffffffffffffffffffffffffffffffffffffffffff1916827bffffffffffffffffffffffffffffffffffffffffffffffffffffffff1916148061042057507f5b5e139f000000000000000000000000000000000000000000000000000000007bffffffffffffffffffffffffffffffffffffffffffffffffffffffff1916827bffffffffffffffffffffffffffffffffffffffffffffffffffffffff1916145b80610430575061042f82610eaf565b5b9050919050565b60606000805461044690612862565b80601f016020809104026020016040519081016040528092919081815260200182805461047290612862565b80156104bf5780601f10610494576101008083540402835291602001916104bf565b820191906000526020600020905b8154815290600101906020018083116104a257829003601f168201915b5050505050905090565b60006104d482610f19565b6004600083815260200190815260200160002060009054906101000a900473ffffffffffffffffffffffffffffffffffffffff169050919050565b600061051a826106a7565b90508073ffffffffffffffffffffffffffffffffffffffff168373ffffffffffffffffffffffffffffffffffffffff16141561058b576040517f08c379a000000000000000000000000000000000000000000000000000000000815260040161058290612906565b60405180910390fd5b8073ffffffffffffffffffffffffffffffffffffffff166105aa610f64565b73ffffffffffffffffffffffffffffffffffffffff1614806105d957506105d8816105d3610f64565b610e1b565b5b610618576040517f08c379a000000000000000000000000000000000000000000000000000000000815260040161060f90612998565b60405180910390fd5b6106228383610f6c565b505050565b610638610632610f64565b82611025565b610677576040517f08c379a000000000000000000000000000000000000000000000000000000000815260040161066e90612a2a565b60405180910390fd5b6106828383836110ba565b505050565b6106a283838360405180602001604052806000815250610b6b565b505050565b6000806002600084815260200190815260200160002060009054906101000a900473ffffffffffffffffffffffffffffffffffffffff169050600073ffffffffffffffffffffffffffffffffffffffff168173ffffffffffffffffffffffffffffffffffffffff161415610750576040517f08c379a000000000000000000000000000000000000000000000000000000000815260040161074790612a96565b60405180910390fd5b80915050919050565b60008073ffffffffffffffffffffffffffffffffffffffff168273ffffffffffffffffffffffffffffffffffffffff1614156107ca576040517f08c379a00000000000000000000000000000000000000000000000000000000081526004016107c190612b28565b60405180910390fd5b600360008373ffffffffffffffffffffffffffffffffffffffff1673ffffffffffffffffffffffffffffffffffffffff168152602001908152602001600020549050919050565b60606001805461082090612862565b80601f016020809104026020016040519081016040528092919081815260200182805461084c90612862565b80156108995780601f1061086e57610100808354040283529160200191610899565b820191906000526020600020905b81548152906001019060200180831161087c57829003601f168201915b5050505050905090565b600960009054906101000a900473ffffffffffffffffffffffffffffffffffffffff1673ffffffffffffffffffffffffffffffffffffffff163373ffffffffffffffffffffffffffffffffffffffff1614610933576040517f08c379a000000000000000000000000000000000000000000000000000000000815260040161092a90612bba565b60405180910390fd5b6040518060600160405280600015158152602001600060ff16815260200160011515815250600a60008373ffffffffffffffffffffffffffffffffffffffff1673ffffffffffffffffffffffffffffffffffffffff16815260200190815260200160002060008201518160000160006101000a81548160ff02191690831515021790555060208201518160000160016101000a81548160ff021916908360ff16021790555060408201518160000160026101000a81548160ff02191690831515021790555090505050565b610a10610a09610f64565b8383611321565b5050565b7386a74f972a4e5f7ba795f80fd97e62151616406e73ffffffffffffffffffffffffffffffffffffffff163373ffffffffffffffffffffffffffffffffffffffff1614610a96576040517f08c379a0000000000000000000000000000000000000000000000000000000008152600401610a8d90612c4c565b60405180910390fd5b60405180606001604052806001151581526020018360ff16815260200160011515815250600a60008373ffffffffffffffffffffffffffffffffffffffff1673ffffffffffffffffffffffffffffffffffffffff16815260200190815260200160002060008201518160000160006101000a81548160ff02191690831515021790555060208201518160000160016101000a81548160ff021916908360ff16021790555060408201518160000160026101000a81548160ff021916908315150217905550905050610b67818361148e565b5050565b610b7c610b76610f64565b83611025565b610bbb576040517f08c379a0000000000000000000000000000000000000000000000000000000008152600401610bb290612a2a565b60405180910390fd5b610bc784848484611586565b50505050565b6060610bd882610f19565b6000600660008481526020019081526020016000208054610bf890612862565b80601f0160208091040260200160405190810160405280929190818152602001828054610c2490612862565b8015610c715780601f10610c4657610100808354040283529160200191610c71565b820191906000526020600020905b815481529060010190602001808311610c5457829003601f168201915b505050505090506000610c826115e2565b9050600081511415610c98578192505050610cdb565b600082511115610ccd578082604051602001610cb5929190612ca8565b60405160208183030381529060405292505050610cdb565b610cd6846115f9565b925050505b919050565b610ce86120b1565b600a60008373ffffffffffffffffffffffffffffffffffffffff1673ffffffffffffffffffffffffffffffffffffffff16815260200190815260200160002060000160029054906101000a900460ff16610d77576040517f08c379a0000000000000000000000000000000000000000000000000000000008152600401610d6e90612d3e565b60405180910390fd5b600a60008373ffffffffffffffffffffffffffffffffffffffff1673ffffffffffffffffffffffffffffffffffffffff1681526020019081526020016000206040518060600160405290816000820160009054906101000a900460ff161515151581526020016000820160019054906101000a900460ff1660ff1660ff1681526020016000820160029054906101000a900460ff1615151515815250509050919050565b6000600560008473ffffffffffffffffffffffffffffffffffffffff1673ffffffffffffffffffffffffffffffffffffffff16815260200190815260200160002060008373ffffffffffffffffffffffffffffffffffffffff1673ffffffffffffffffffffffffffffffffffffffff16815260200190815260200160002060009054906101000a900460ff16905092915050565b60007f01ffc9a7000000000000000000000000000000000000000000000000000000007bffffffffffffffffffffffffffffffffffffffffffffffffffffffff1916827bffffffffffffffffffffffffffffffffffffffffffffffffffffffff1916149050919050565b610f2281611661565b610f61576040517f08c379a0000000000000000000000000000000000000000000000000000000008152600401610f5890612a96565b60405180910390fd5b50565b600033905090565b816004600083815260200190815260200160002060006101000a81548173ffffffffffffffffffffffffffffffffffffffff021916908373ffffffffffffffffffffffffffffffffffffffff160217905550808273ffffffffffffffffffffffffffffffffffffffff16610fdf836106a7565b73ffffffffffffffffffffffffffffffffffffffff167f8c5be1e5ebec7d5bd14f71427d1e84f3dd0314c0f7b2291e5b200ac8c7c3b92560405160405180910390a45050565b600080611031836106a7565b90508073ffffffffffffffffffffffffffffffffffffffff168473ffffffffffffffffffffffffffffffffffffffff16148061107357506110728185610e1b565b5b806110b157508373ffffffffffffffffffffffffffffffffffffffff16611099846104c9565b73ffffffffffffffffffffffffffffffffffffffff16145b91505092915050565b8273ffffffffffffffffffffffffffffffffffffffff166110da826106a7565b73ffffffffffffffffffffffffffffffffffffffff1614611130576040517f08c379a000000000000000000000000000000000000000000000000000000000815260040161112790612dd0565b60405180910390fd5b600073ffffffffffffffffffffffffffffffffffffffff168273ffffffffffffffffffffffffffffffffffffffff1614156111a0576040517f08c379a000000000000000000000000000000000000000000000000000000000815260040161119790612e62565b60405180910390fd5b6111ab8383836116cd565b6111b6600082610f6c565b6001600360008573ffffffffffffffffffffffffffffffffffffffff1673ffffffffffffffffffffffffffffffffffffffff16815260200190815260200160002060008282546112069190612eb1565b925050819055506001600360008473ffffffffffffffffffffffffffffffffffffffff1673ffffffffffffffffffffffffffffffffffffffff168152602001908152602001600020600082825461125d9190612ee5565b92505081905550816002600083815260200190815260200160002060006101000a81548173ffffffffffffffffffffffffffffffffffffffff021916908373ffffffffffffffffffffffffffffffffffffffff160217905550808273ffffffffffffffffffffffffffffffffffffffff168473ffffffffffffffffffffffffffffffffffffffff167fddf252ad1be2c89b69c2b068fc378daa952ba7f163c4a11628f55a4df523b3ef60405160405180910390a461131c8383836116d2565b505050565b8173ffffffffffffffffffffffffffffffffffffffff168373ffffffffffffffffffffffffffffffffffffffff161415611390576040517f08c379a000000000000000000000000000000000000000000000000000000000815260040161138790612f87565b60405180910390fd5b80600560008573ffffffffffffffffffffffffffffffffffffffff1673ffffffffffffffffffffffffffffffffffffffff16815260200190815260200160002060008473ffffffffffffffffffffffffffffffffffffffff1673ffffffffffffffffffffffffffffffffffffffff16815260200190815260200160002060006101000a81548160ff0219169083151502179055508173ffffffffffffffffffffffffffffffffffffffff168373ffffffffffffffffffffffffffffffffffffffff167f17307eab39ab6107e8899845ad3d59bd9653f200f220920489ca2b5937696c31836040516114819190612230565b60405180910390a3505050565b600061149a60076116d7565b905060006114bf8473ffffffffffffffffffffffffffffffffffffffff1660146116e5565b90506000600b6114cd610437565b836114da8760ff16611921565b6040516020016114ed9493929190613229565b6040516020818303038152906040529050600061153961150b610437565b61151484611a82565b6040516020016115259291906133d9565b604051602081830303815290604052611a82565b905060008160405160200161154e919061346a565b60405160208183030381529060405290506115698786611c1a565b6115738582611c38565b61157d6007611cac565b50505050505050565b6115918484846110ba565b61159d84848484611cc2565b6115dc576040517f08c379a00000000000000000000000000000000000000000000000000000000081526004016115d3906134fe565b60405180910390fd5b50505050565b606060405180602001604052806000815250905090565b606061160482610f19565b600061160e6115e2565b9050600081511161162e5760405180602001604052806000815250611659565b8061163884611921565b604051602001611649929190612ca8565b6040516020818303038152906040525b915050919050565b60008073ffffffffffffffffffffffffffffffffffffffff166002600084815260200190815260200160002060009054906101000a900473ffffffffffffffffffffffffffffffffffffffff1673ffffffffffffffffffffffffffffffffffffffff1614159050919050565b505050565b505050565b600081600001549050919050565b6060600060028360026116f8919061351e565b6117029190612ee5565b67ffffffffffffffff81111561171b5761171a6125ca565b5b6040519080825280601f01601f19166020018201604052801561174d5781602001600182028036833780820191505090505b5090507f30000000000000000000000000000000000000000000000000000000000000008160008151811061178557611784613578565b5b60200101907effffffffffffffffffffffffffffffffffffffffffffffffffffffffffffff1916908160001a9053507f7800000000000000000000000000000000000000000000000000000000000000816001815181106117e9576117e8613578565b5b60200101907effffffffffffffffffffffffffffffffffffffffffffffffffffffffffffff1916908160001a90535060006001846002611829919061351e565b6118339190612ee5565b90505b60018111156118d3577f3031323334353637383961626364656600000000000000000000000000000000600f86166010811061187557611874613578565b5b1a60f81b82828151811061188c5761188b613578565b5b60200101907effffffffffffffffffffffffffffffffffffffffffffffffffffffffffffff1916908160001a905350600485901c9450806118cc906135a7565b9050611836565b5060008414611917576040517f08c379a000000000000000000000000000000000000000000000000000000000815260040161190e9061361d565b60405180910390fd5b8091505092915050565b60606000821415611969576040518060400160405280600181526020017f30000000000000000000000000000000000000000000000000000000000000008152509050611a7d565b600082905060005b6000821461199b5780806119849061363d565b915050600a8261199491906136b5565b9150611971565b60008167ffffffffffffffff8111156119b7576119b66125ca565b5b6040519080825280601f01601f1916602001820160405280156119e95781602001600182028036833780820191505090505b5090505b60008514611a7657600182611a029190612eb1565b9150600a85611a1191906136e6565b6030611a1d9190612ee5565b60f81b818381518110611a3357611a32613578565b5b60200101907effffffffffffffffffffffffffffffffffffffffffffffffffffffffffffff1916908160001a905350600a85611a6f91906136b5565b94506119ed565b8093505050505b919050565b60606000825190506000811415611aab5760405180602001604052806000815250915050611c15565b60006003600283611abc9190612ee5565b611ac691906136b5565b6004611ad2919061351e565b90506000602082611ae39190612ee5565b67ffffffffffffffff811115611afc57611afb6125ca565b5b6040519080825280601f01601f191660200182016040528015611b2e5781602001600182028036833780820191505090505b5090506000604051806060016040528060408152602001613965604091399050600181016020830160005b86811015611bd25760038101905062ffffff818a015116603f8160121c168401518060081b905060ff603f83600c1c1686015116810190508060081b905060ff603f8360061c1686015116810190508060081b905060ff603f831686015116810190508060e01b90508084526004840193505050611b59565b506003860660018114611bec5760028114611bfc57611c07565b613d3d60f01b6002830352611c07565b603d60f81b60018303525b508484525050819450505050505b919050565b611c34828260405180602001604052806000815250611e59565b5050565b611c4182611661565b611c80576040517f08c379a0000000000000000000000000000000000000000000000000000000008152600401611c7790613789565b60405180910390fd5b80600660008481526020019081526020016000209080519060200190611ca79291906120d9565b505050565b6001816000016000828254019250508190555050565b6000611ce38473ffffffffffffffffffffffffffffffffffffffff16611eb4565b15611e4c578373ffffffffffffffffffffffffffffffffffffffff1663150b7a02611d0c610f64565b8786866040518563ffffffff1660e01b8152600401611d2e94939291906137fe565b602060405180830381600087803b158015611d4857600080fd5b505af1925050508015611d7957506040513d601f19601f82011682018060405250810190611d76919061385f565b60015b611dfc573d8060008114611da9576040519150601f19603f3d011682016040523d82523d6000602084013e611dae565b606091505b50600081511415611df4576040517f08c379a0000000000000000000000000000000000000000000000000000000008152600401611deb906134fe565b60405180910390fd5b805181602001fd5b63150b7a0260e01b7bffffffffffffffffffffffffffffffffffffffffffffffffffffffff1916817bffffffffffffffffffffffffffffffffffffffffffffffffffffffff191614915050611e51565b600190505b949350505050565b611e638383611ed7565b611e706000848484611cc2565b611eaf576040517f08c379a0000000000000000000000000000000000000000000000000000000008152600401611ea6906134fe565b60405180910390fd5b505050565b6000808273ffffffffffffffffffffffffffffffffffffffff163b119050919050565b600073ffffffffffffffffffffffffffffffffffffffff168273ffffffffffffffffffffffffffffffffffffffff161415611f47576040517f08c379a0000000000000000000000000000000000000000000000000000000008152600401611f3e906138d8565b60405180910390fd5b611f5081611661565b15611f90576040517f08c379a0000000000000000000000000000000000000000000000000000000008152600401611f8790613944565b60405180910390fd5b611f9c600083836116cd565b6001600360008473ffffffffffffffffffffffffffffffffffffffff1673ffffffffffffffffffffffffffffffffffffffff1681526020019081526020016000206000828254611fec9190612ee5565b92505081905550816002600083815260200190815260200160002060006101000a81548173ffffffffffffffffffffffffffffffffffffffff021916908373ffffffffffffffffffffffffffffffffffffffff160217905550808273ffffffffffffffffffffffffffffffffffffffff16600073ffffffffffffffffffffffffffffffffffffffff167fddf252ad1be2c89b69c2b068fc378daa952ba7f163c4a11628f55a4df523b3ef60405160405180910390a46120ad600083836116d2565b5050565b6040518060600160405280600015158152602001600060ff1681526020016000151581525090565b8280546120e590612862565b90600052602060002090601f016020900481019282612107576000855561214e565b82601f1061212057805160ff191683800117855561214e565b8280016001018555821561214e579182015b8281111561214d578251825591602001919060010190612132565b5b50905061215b919061215f565b5090565b5b80821115612178576000816000905550600101612160565b5090565b6000604051905090565b600080fd5b600080fd5b60007fffffffff0000000000000000000000000000000000000000000000000000000082169050919050565b6121c581612190565b81146121d057600080fd5b50565b6000813590506121e2816121bc565b92915050565b6000602082840312156121fe576121fd612186565b5b600061220c848285016121d3565b91505092915050565b60008115159050919050565b61222a81612215565b82525050565b60006020820190506122456000830184612221565b92915050565b600081519050919050565b600082825260208201905092915050565b60005b8381101561228557808201518184015260208101905061226a565b83811115612294576000848401525b50505050565b6000601f19601f8301169050919050565b60006122b68261224b565b6122c08185612256565b93506122d0818560208601612267565b6122d98161229a565b840191505092915050565b600060208201905081810360008301526122fe81846122ab565b905092915050565b6000819050919050565b61231981612306565b811461232457600080fd5b50565b60008135905061233681612310565b92915050565b60006020828403121561235257612351612186565b5b600061236084828501612327565b91505092915050565b600073ffffffffffffffffffffffffffffffffffffffff82169050919050565b600061239482612369565b9050919050565b6123a481612389565b82525050565b60006020820190506123bf600083018461239b565b92915050565b6123ce81612389565b81146123d957600080fd5b50565b6000813590506123eb816123c5565b92915050565b6000806040838503121561240857612407612186565b5b6000612416858286016123dc565b925050602061242785828601612327565b9150509250929050565b60008060006060848603121561244a57612449612186565b5b6000612458868287016123dc565b9350506020612469868287016123dc565b925050604061247a86828701612327565b9150509250925092565b60006020828403121561249a57612499612186565b5b60006124a8848285016123dc565b91505092915050565b6124ba81612306565b82525050565b60006020820190506124d560008301846124b1565b92915050565b6124e481612215565b81146124ef57600080fd5b50565b600081359050612501816124db565b92915050565b6000806040838503121561251e5761251d612186565b5b600061252c858286016123dc565b925050602061253d858286016124f2565b9150509250929050565b600060ff82169050919050565b61255d81612547565b811461256857600080fd5b50565b60008135905061257a81612554565b92915050565b6000806040838503121561259757612596612186565b5b60006125a58582860161256b565b92505060206125b6858286016123dc565b9150509250929050565b600080fd5b600080fd5b7f4e487b7100000000000000000000000000000000000000000000000000000000600052604160045260246000fd5b6126028261229a565b810181811067ffffffffffffffff82111715612621576126206125ca565b5b80604052505050565b600061263461217c565b905061264082826125f9565b919050565b600067ffffffffffffffff8211156126605761265f6125ca565b5b6126698261229a565b9050602081019050919050565b82818337600083830152505050565b600061269861269384612645565b61262a565b9050828152602081018484840111156126b4576126b36125c5565b5b6126bf848285612676565b509392505050565b600082601f8301126126dc576126db6125c0565b5b81356126ec848260208601612685565b91505092915050565b6000806000806080858703121561270f5761270e612186565b5b600061271d878288016123dc565b945050602061272e878288016123dc565b935050604061273f87828801612327565b925050606085013567ffffffffffffffff8111156127605761275f61218b565b5b61276c878288016126c7565b91505092959194509250565b61278181612215565b82525050565b61279081612547565b82525050565b6060820160008201516127ac6000850182612778565b5060208201516127bf6020850182612787565b5060408201516127d26040850182612778565b50505050565b60006060820190506127ed6000830184612796565b92915050565b6000806040838503121561280a57612809612186565b5b6000612818858286016123dc565b9250506020612829858286016123dc565b9150509250929050565b7f4e487b7100000000000000000000000000000000000000000000000000000000600052602260045260246000fd5b6000600282049050600182168061287a57607f821691505b6020821081141561288e5761288d612833565b5b50919050565b7f4552433732313a20617070726f76616c20746f2063757272656e74206f776e6560008201527f7200000000000000000000000000000000000000000000000000000000000000602082015250565b60006128f0602183612256565b91506128fb82612894565b604082019050919050565b6000602082019050818103600083015261291f816128e3565b9050919050565b7f4552433732313a20617070726f76652063616c6c6572206973206e6f7420746f60008201527f6b656e206f776e6572206e6f7220617070726f76656420666f7220616c6c0000602082015250565b6000612982603e83612256565b915061298d82612926565b604082019050919050565b600060208201905081810360008301526129b181612975565b9050919050565b7f4552433732313a2063616c6c6572206973206e6f7420746f6b656e206f776e6560008201527f72206e6f7220617070726f766564000000000000000000000000000000000000602082015250565b6000612a14602e83612256565b9150612a1f826129b8565b604082019050919050565b60006020820190508181036000830152612a4381612a07565b9050919050565b7f4552433732313a20696e76616c696420746f6b656e2049440000000000000000600082015250565b6000612a80601883612256565b9150612a8b82612a4a565b602082019050919050565b60006020820190508181036000830152612aaf81612a73565b9050919050565b7f4552433732313a2061646472657373207a65726f206973206e6f74206120766160008201527f6c6964206f776e65720000000000000000000000000000000000000000000000602082015250565b6000612b12602983612256565b9150612b1d82612ab6565b604082019050919050565b60006020820190508181036000830152612b4181612b05565b9050919050565b7f596f757220616464726573732069736e277420746865204578616d436f6e747260008201527f6f6c6c657220436f6e747261637420616464726573732e000000000000000000602082015250565b6000612ba4603783612256565b9150612baf82612b48565b604082019050919050565b60006020820190508181036000830152612bd381612b97565b9050919050565b7f596f757220616464726573732069736e277420746865206261636b656e64206160008201527f6464726573732e00000000000000000000000000000000000000000000000000602082015250565b6000612c36602783612256565b9150612c4182612bda565b604082019050919050565b60006020820190508181036000830152612c6581612c29565b9050919050565b600081905092915050565b6000612c828261224b565b612c8c8185612c6c565b9350612c9c818560208601612267565b80840191505092915050565b6000612cb48285612c77565b9150612cc08284612c77565b91508190509392505050565b7f5468657265206973206e6f207061727469636970616e7420776974682074686960008201527f7320616464726573732e00000000000000000000000000000000000000000000602082015250565b6000612d28602a83612256565b9150612d3382612ccc565b604082019050919050565b60006020820190508181036000830152612d5781612d1b565b9050919050565b7f4552433732313a207472616e736665722066726f6d20696e636f72726563742060008201527f6f776e6572000000000000000000000000000000000000000000000000000000602082015250565b6000612dba602583612256565b9150612dc582612d5e565b604082019050919050565b60006020820190508181036000830152612de981612dad565b9050919050565b7f4552433732313a207472616e7366657220746f20746865207a65726f2061646460008201527f7265737300000000000000000000000000000000000000000000000000000000602082015250565b6000612e4c602483612256565b9150612e5782612df0565b604082019050919050565b60006020820190508181036000830152612e7b81612e3f565b9050919050565b7f4e487b7100000000000000000000000000000000000000000000000000000000600052601160045260246000fd5b6000612ebc82612306565b9150612ec783612306565b925082821015612eda57612ed9612e82565b5b828203905092915050565b6000612ef082612306565b9150612efb83612306565b9250827fffffffffffffffffffffffffffffffffffffffffffffffffffffffffffffffff03821115612f3057612f2f612e82565b5b828201905092915050565b7f4552433732313a20617070726f766520746f2063616c6c657200000000000000600082015250565b6000612f71601983612256565b9150612f7c82612f3b565b602082019050919050565b60006020820190508181036000830152612fa081612f64565b9050919050565b60008190508160005260206000209050919050565b60008154612fc981612862565b612fd38186612c6c565b94506001821660008114612fee5760018114612fff57613032565b60ff19831686528186019350613032565b61300885612fa7565b60005b8381101561302a5781548189015260018201915060208101905061300b565b838801955050505b50505092915050565b7f3c747370616e20783d273530252720793d273235252720666f6e742d73697a6560008201527f3d2732307078273e000000000000000000000000000000000000000000000000602082015250565b6000613097602883612c6c565b91506130a28261303b565b602882019050919050565b7f3c2f747370616e3e000000000000000000000000000000000000000000000000600082015250565b60006130e3600883612c6c565b91506130ee826130ad565b600882019050919050565b7f3c747370616e20783d273530252720793d273530252720666f6e742d73697a6560008201527f3d2731347078273e000000000000000000000000000000000000000000000000602082015250565b6000613155602883612c6c565b9150613160826130f9565b602882019050919050565b7f3c747370616e20783d273530252720793d273735252720666f6e742d73697a6560008201527f3d2734307078273e000000000000000000000000000000000000000000000000602082015250565b60006131c7602883612c6c565b91506131d28261316b565b602882019050919050565b7f253c2f747370616e3e3c2f746578743e3c2f7376673e00000000000000000000600082015250565b6000613213601683612c6c565b915061321e826131dd565b601682019050919050565b60006132358287612fbc565b91506132408261308a565b915061324c8286612c77565b9150613257826130d6565b915061326282613148565b915061326e8285612c77565b9150613279826130d6565b9150613284826131ba565b91506132908284612c77565b915061329b82613206565b915081905095945050505050565b7f7b226e616d65223a202200000000000000000000000000000000000000000000600082015250565b60006132df600a83612c6c565b91506132ea826132a9565b600a82019050919050565b7f222c20226465736372697074696f6e223a20224445534352495054494f4e5f5060008201527f4c414345484f4c444552222c2022696d616765223a2022646174613a696d616760208201527f652f7376672b786d6c3b6261736536342c000000000000000000000000000000604082015250565b6000613377605183612c6c565b9150613382826132f5565b605182019050919050565b7f227d000000000000000000000000000000000000000000000000000000000000600082015250565b60006133c3600283612c6c565b91506133ce8261338d565b600282019050919050565b60006133e4826132d2565b91506133f08285612c77565b91506133fb8261336a565b91506134078284612c77565b9150613412826133b6565b91508190509392505050565b7f646174613a6170706c69636174696f6e2f6a736f6e3b6261736536342c000000600082015250565b6000613454601d83612c6c565b915061345f8261341e565b601d82019050919050565b600061347582613447565b91506134818284612c77565b915081905092915050565b7f4552433732313a207472616e7366657220746f206e6f6e20455243373231526560008201527f63656976657220696d706c656d656e7465720000000000000000000000000000602082015250565b60006134e8603283612256565b91506134f38261348c565b604082019050919050565b60006020820190508181036000830152613517816134db565b9050919050565b600061352982612306565b915061353483612306565b9250817fffffffffffffffffffffffffffffffffffffffffffffffffffffffffffffffff048311821515161561356d5761356c612e82565b5b828202905092915050565b7f4e487b7100000000000000000000000000000000000000000000000000000000600052603260045260246000fd5b60006135b282612306565b915060008214156135c6576135c5612e82565b5b600182039050919050565b7f537472696e67733a20686578206c656e67746820696e73756666696369656e74600082015250565b6000613607602083612256565b9150613612826135d1565b602082019050919050565b60006020820190508181036000830152613636816135fa565b9050919050565b600061364882612306565b91507fffffffffffffffffffffffffffffffffffffffffffffffffffffffffffffffff82141561367b5761367a612e82565b5b600182019050919050565b7f4e487b7100000000000000000000000000000000000000000000000000000000600052601260045260246000fd5b60006136c082612306565b91506136cb83612306565b9250826136db576136da613686565b5b828204905092915050565b60006136f182612306565b91506136fc83612306565b92508261370c5761370b613686565b5b828206905092915050565b7f45524337323155524953746f726167653a2055524920736574206f66206e6f6e60008201527f6578697374656e7420746f6b656e000000000000000000000000000000000000602082015250565b6000613773602e83612256565b915061377e82613717565b604082019050919050565b600060208201905081810360008301526137a281613766565b9050919050565b600081519050919050565b600082825260208201905092915050565b60006137d0826137a9565b6137da81856137b4565b93506137ea818560208601612267565b6137f38161229a565b840191505092915050565b6000608082019050613813600083018761239b565b613820602083018661239b565b61382d60408301856124b1565b818103606083015261383f81846137c5565b905095945050505050565b600081519050613859816121bc565b92915050565b60006020828403121561387557613874612186565b5b60006138838482850161384a565b91505092915050565b7f4552433732313a206d696e7420746f20746865207a65726f2061646472657373600082015250565b60006138c2602083612256565b91506138cd8261388c565b602082019050919050565b600060208201905081810360008301526138f1816138b5565b9050919050565b7f4552433732313a20746f6b656e20616c7265616479206d696e74656400000000600082015250565b600061392e601c83612256565b9150613939826138f8565b602082019050919050565b6000602082019050818103600083015261395d81613921565b905091905056fe4142434445464748494a4b4c4d4e4f505152535455565758595a6162636465666768696a6b6c6d6e6f707172737475767778797a303132333435363738392b2fa26469706673582212205d974fc4d8d94a6772a59a3aa280567c9e9bb8293b534ad2383064cfe584142b64736f6c634300080900333c73766720786d6c6e733d27687474703a2f2f7777772e77332e6f72672f323030302f73766727207072657365727665417370656374526174696f3d27784d696e594d696e206d656574272076696577426f783d273020302033353020333530273e3c7374796c653e2e62617365207b2066696c6c3a2077686974653b20666f6e742d66616d696c793a2073657269663b20666f6e742d73697a653a20323470783b207d3c2f7374796c653e3c726563742077696474683d273130302527206865696768743d2731303025272066696c6c3d27677265656e27202f3e3c7465787420783d273530252720793d273530252720636c6173733d27626173652720646f6d696e616e742d626173656c696e653d276d6964646c652720746578742d616e63686f723d276d6964646c65273ea264697066735822122016490c56c5611fbff04c5b5ecead4696d3fae79ccead1b5216051a3080b15fef64736f6c63430008090033",
  "linkReferences": {},
  "deployedLinkReferences": {}
}