{
  "_format": "hh-sol-artifact-1",
  "contractName": "ExamController",
  "sourceName": "contracts/ExamController.sol",
  "abi": [
    {
      "anonymous": false,
      "inputs": [
        {
          "indexed": false,
          "internalType": "address",
          "name": "newExamAddress",
          "type": "address"
        },
        {
          "indexed": false,
          "internalType": "address",
          "name": "creatorAddress",
          "type": "address"
        }
      ],
      "name": "NewExamCreation",
      "type": "event"
    },
    {
      "anonymous": false,
      "inputs": [
        {
          "indexed": false,
          "internalType": "address",
          "name": "examAddress",
          "type": "address"
        },
        {
          "indexed": false,
          "internalType": "address",
          "name": "participantAddress",
          "type": "address"
        }
      ],
      "name": "NewExamParticipation",
      "type": "event"
    },
    {
      "inputs": [
        {
          "internalType": "string",
          "name": "_name",
          "type": "string"
        },
        {
          "internalType": "string",
          "name": "_symbol",
          "type": "string"
        },
        {
          "internalType": "string",
          "name": "_description",
          "type": "string"
        }
      ],
      "name": "addExam",
      "outputs": [],
      "stateMutability": "nonpayable",
      "type": "function"
    },
    {
      "inputs": [],
      "name": "getExams",
      "outputs": [
        {
          "components": [
            {
              "internalType": "string",
              "name": "name",
              "type": "string"
            },
            {
              "internalType": "address",
              "name": "examAddress",
              "type": "address"
            }
          ],
          "internalType": "struct ExamController.ExamHelper[]",
          "name": "",
          "type": "tuple[]"
        }
      ],
      "stateMutability": "view",
      "type": "function"
    },
    {
      "inputs": [
        {
          "internalType": "address",
          "name": "_examAddressToParticipate",
          "type": "address"
        }
      ],
      "name": "manageExamParticipation",
      "outputs": [],
      "stateMutability": "nonpayable",
      "type": "function"
    }
  ],
  "bytecode": "0x608060405234801561001057600080fd5b50614ecc806100206000396000f3fe60806040523480156200001157600080fd5b5060043610620000465760003560e01c8063236472ce146200004b5780639f82c3f6146200006d578063eb037de6146200008d575b600080fd5b62000055620000ad565b604051620000649190620007e4565b60405180910390f35b6200008b600480360381019062000085919062000843565b620001fe565b005b620000ab6004803603810190620000a59190620008e3565b6200039f565b005b60606000805480602002602001604051908101604052809291908181526020016000905b82821015620001f557838290600052602060002090600202016040518060400160405290816000820180546200010790620009d8565b80601f01602080910402602001604051908101604052809291908181526020018280546200013590620009d8565b8015620001865780601f106200015a5761010080835404028352916020019162000186565b820191906000526020600020905b8154815290600101906020018083116200016857829003601f168201915b505050505081526020016001820160009054906101000a900473ffffffffffffffffffffffffffffffffffffffff1673ffffffffffffffffffffffffffffffffffffffff1673ffffffffffffffffffffffffffffffffffffffff168152505081526020019060010190620000d1565b50505050905090565b6000805b600080549050811015620002ad578273ffffffffffffffffffffffffffffffffffffffff16600082815481106200023e576200023d62000a0e565b5b906000526020600020906002020160010160009054906101000a900473ffffffffffffffffffffffffffffffffffffffff1673ffffffffffffffffffffffffffffffffffffffff161415620002975760019150620002ad565b8080620002a49062000a76565b91505062000202565b5080620002f1576040517f08c379a0000000000000000000000000000000000000000000000000000000008152600401620002e89062000b4b565b60405180910390fd5b8173ffffffffffffffffffffffffffffffffffffffff166396e702f0336040518263ffffffff1660e01b81526004016200032c919062000b7e565b600060405180830381600087803b1580156200034757600080fd5b505af11580156200035c573d6000803e3d6000fd5b505050507f1dbe1c0861a8ab9e3a2a8e4ac25e91bff179731c429ede3f7df878ef05643cac82336040516200039392919062000b9b565b60405180910390a15050565b6000868686868686604051620003b5906200052c565b620003c69695949392919062000c0a565b604051809103906000f080158015620003e3573d6000803e3d6000fd5b5090506000604051806040016040528089898080601f016020809104026020016040519081016040528093929190818152602001838380828437600081840152601f19601f8201169050808301925050505050505081526020018373ffffffffffffffffffffffffffffffffffffffff16815250908060018154018082558091505060019003906000526020600020906002020160009091909190915060008201518160000190805190602001906200049e9291906200053a565b5060208201518160010160006101000a81548173ffffffffffffffffffffffffffffffffffffffff021916908373ffffffffffffffffffffffffffffffffffffffff16021790555050507f5daa9d7a530865258538275419f647693cb8ef24c9a92a39f1360f747741052e81336040516200051b92919062000b9b565b60405180910390a150505050505050565b6142348062000c6383390190565b8280546200054890620009d8565b90600052602060002090601f0160209004810192826200056c5760008555620005b8565b82601f106200058757805160ff1916838001178555620005b8565b82800160010185558215620005b8579182015b82811115620005b75782518255916020019190600101906200059a565b5b509050620005c79190620005cb565b5090565b5b80821115620005e6576000816000905550600101620005cc565b5090565b600081519050919050565b600082825260208201905092915050565b6000819050602082019050919050565b600081519050919050565b600082825260208201905092915050565b60005b838110156200065257808201518184015260208101905062000635565b8381111562000662576000848401525b50505050565b6000601f19601f8301169050919050565b6000620006868262000616565b62000692818562000621565b9350620006a481856020860162000632565b620006af8162000668565b840191505092915050565b600073ffffffffffffffffffffffffffffffffffffffff82169050919050565b6000620006e782620006ba565b9050919050565b620006f981620006da565b82525050565b600060408301600083015184820360008601526200071e828262000679565b9150506020830151620007356020860182620006ee565b508091505092915050565b60006200074e8383620006ff565b905092915050565b6000602082019050919050565b60006200077082620005ea565b6200077c8185620005f5565b935083602082028501620007908562000606565b8060005b85811015620007d25784840389528151620007b0858262000740565b9450620007bd8362000756565b925060208a0199505060018101905062000794565b50829750879550505050505092915050565b6000602082019050818103600083015262000800818462000763565b905092915050565b600080fd5b600080fd5b6200081d81620006da565b81146200082957600080fd5b50565b6000813590506200083d8162000812565b92915050565b6000602082840312156200085c576200085b62000808565b5b60006200086c848285016200082c565b91505092915050565b600080fd5b600080fd5b600080fd5b60008083601f8401126200089d576200089c62000875565b5b8235905067ffffffffffffffff811115620008bd57620008bc6200087a565b5b602083019150836001820283011115620008dc57620008db6200087f565b5b9250929050565b6000806000806000806060878903121562000903576200090262000808565b5b600087013567ffffffffffffffff8111156200092457620009236200080d565b5b6200093289828a0162000884565b9650965050602087013567ffffffffffffffff8111156200095857620009576200080d565b5b6200096689828a0162000884565b9450945050604087013567ffffffffffffffff8111156200098c576200098b6200080d565b5b6200099a89828a0162000884565b92509250509295509295509295565b7f4e487b7100000000000000000000000000000000000000000000000000000000600052602260045260246000fd5b60006002820490506001821680620009f157607f821691505b6020821081141562000a085762000a07620009a9565b5b50919050565b7f4e487b7100000000000000000000000000000000000000000000000000000000600052603260045260246000fd5b7f4e487b7100000000000000000000000000000000000000000000000000000000600052601160045260246000fd5b6000819050919050565b600062000a838262000a6c565b91507fffffffffffffffffffffffffffffffffffffffffffffffffffffffffffffffff82141562000ab95762000ab862000a3d565b5b600182019050919050565b600082825260208201905092915050565b7f4578616d2077697468207468652070726f76696465642061646472657373206460008201527f6f65736e27742065786973742e00000000000000000000000000000000000000602082015250565b600062000b33602d8362000ac4565b915062000b408262000ad5565b604082019050919050565b6000602082019050818103600083015262000b668162000b24565b9050919050565b62000b7881620006da565b82525050565b600060208201905062000b95600083018462000b6d565b92915050565b600060408201905062000bb2600083018562000b6d565b62000bc1602083018462000b6d565b9392505050565b82818337600083830152505050565b600062000be5838562000ac4565b935062000bf483858462000bc8565b62000bff8362000668565b840190509392505050565b6000606082019050818103600083015262000c2781888a62000bd7565b9050818103602083015262000c3e81868862000bd7565b9050818103604083015262000c5581848662000bd7565b905097965050505050505056fe60806040526040518061016001604052806101318152602001620041036101319139600b908051906020019062000038929190620001b2565b503480156200004657600080fd5b50604051620042343803806200423483398181016040528101906200006c9190620003ff565b8282816000908051906020019062000086929190620001b2565b5080600190805190602001906200009f929190620001b2565b505050620000c2620000b6620000e460201b60201c565b620000ec60201b60201c565b8060099080519060200190620000da929190620001b2565b505050506200051d565b600033905090565b6000600760009054906101000a900473ffffffffffffffffffffffffffffffffffffffff16905081600760006101000a81548173ffffffffffffffffffffffffffffffffffffffff021916908373ffffffffffffffffffffffffffffffffffffffff1602179055508173ffffffffffffffffffffffffffffffffffffffff168173ffffffffffffffffffffffffffffffffffffffff167f8be0079c531659141344cd1fd0a4f28419497f9722a3daafe3b4186f6b6457e060405160405180910390a35050565b828054620001c090620004e7565b90600052602060002090601f016020900481019282620001e4576000855562000230565b82601f10620001ff57805160ff191683800117855562000230565b8280016001018555821562000230579182015b828111156200022f57825182559160200191906001019062000212565b5b5090506200023f919062000243565b5090565b5b808211156200025e57600081600090555060010162000244565b5090565b6000604051905090565b600080fd5b600080fd5b600080fd5b600080fd5b6000601f19601f8301169050919050565b7f4e487b7100000000000000000000000000000000000000000000000000000000600052604160045260246000fd5b620002cb8262000280565b810181811067ffffffffffffffff82111715620002ed57620002ec62000291565b5b80604052505050565b60006200030262000262565b9050620003108282620002c0565b919050565b600067ffffffffffffffff82111562000333576200033262000291565b5b6200033e8262000280565b9050602081019050919050565b60005b838110156200036b5780820151818401526020810190506200034e565b838111156200037b576000848401525b50505050565b600062000398620003928462000315565b620002f6565b905082815260208101848484011115620003b757620003b66200027b565b5b620003c48482856200034b565b509392505050565b600082601f830112620003e457620003e362000276565b5b8151620003f684826020860162000381565b91505092915050565b6000806000606084860312156200041b576200041a6200026c565b5b600084015167ffffffffffffffff8111156200043c576200043b62000271565b5b6200044a86828701620003cc565b935050602084015167ffffffffffffffff8111156200046e576200046d62000271565b5b6200047c86828701620003cc565b925050604084015167ffffffffffffffff811115620004a0576200049f62000271565b5b620004ae86828701620003cc565b9150509250925092565b7f4e487b7100000000000000000000000000000000000000000000000000000000600052602260045260246000fd5b600060028204905060018216806200050057607f821691505b60208210811415620005175762000516620004b8565b5b50919050565b613bd6806200052d6000396000f3fe608060405234801561001057600080fd5b50600436106101215760003560e01c80638da5cb5b116100ad578063b88d4fde11610071578063b88d4fde146102f2578063c87b56dd1461030e578063e41c3ce41461033e578063e985e9c51461036e578063f2fde38b1461039e57610121565b80638da5cb5b1461026257806395d89b411461028057806396e702f01461029e578063a22cb465146102ba578063b484be63146102d657610121565b806323b872dd116100f457806323b872dd146101c057806342842e0e146101dc5780636352211e146101f857806370a0823114610228578063715018a61461025857610121565b806301ffc9a71461012657806306fdde0314610156578063081812fc14610174578063095ea7b3146101a4575b600080fd5b610140600480360381019061013b91906122ce565b6103ba565b60405161014d9190612316565b60405180910390f35b61015e61049c565b60405161016b91906123ca565b60405180910390f35b61018e60048036038101906101899190612422565b61052e565b60405161019b9190612490565b60405180910390f35b6101be60048036038101906101b991906124d7565b610574565b005b6101da60048036038101906101d59190612517565b61068c565b005b6101f660048036038101906101f19190612517565b6106ec565b005b610212600480360381019061020d9190612422565b61070c565b60405161021f9190612490565b60405180910390f35b610242600480360381019061023d919061256a565b6107be565b60405161024f91906125a6565b60405180910390f35b610260610876565b005b61026a61088a565b6040516102779190612490565b60405180910390f35b6102886108b4565b60405161029591906123ca565b60405180910390f35b6102b860048036038101906102b3919061256a565b610946565b005b6102d460048036038101906102cf91906125ed565b610aaf565b005b6102f060048036038101906102eb9190612666565b610ac5565b005b61030c600480360381019061030791906127db565b610cb2565b005b61032860048036038101906103239190612422565b610d14565b60405161033591906123ca565b60405180910390f35b6103586004803603810190610353919061256a565b610e27565b60405161036591906128be565b60405180910390f35b610388600480360381019061038391906128d9565b610f62565b6040516103959190612316565b60405180910390f35b6103b860048036038101906103b3919061256a565b610ff6565b005b60007f80ac58cd000000000000000000000000000000000000000000000000000000007bffffffffffffffffffffffffffffffffffffffffffffffffffffffff1916827bffffffffffffffffffffffffffffffffffffffffffffffffffffffff1916148061048557507f5b5e139f000000000000000000000000000000000000000000000000000000007bffffffffffffffffffffffffffffffffffffffffffffffffffffffff1916827bffffffffffffffffffffffffffffffffffffffffffffffffffffffff1916145b8061049557506104948261107a565b5b9050919050565b6060600080546104ab90612948565b80601f01602080910402602001604051908101604052809291908181526020018280546104d790612948565b80156105245780601f106104f957610100808354040283529160200191610524565b820191906000526020600020905b81548152906001019060200180831161050757829003601f168201915b5050505050905090565b6000610539826110e4565b6004600083815260200190815260200160002060009054906101000a900473ffffffffffffffffffffffffffffffffffffffff169050919050565b600061057f8261070c565b90508073ffffffffffffffffffffffffffffffffffffffff168373ffffffffffffffffffffffffffffffffffffffff1614156105f0576040517f08c379a00000000000000000000000000000000000000000000000000000000081526004016105e7906129ec565b60405180910390fd5b8073ffffffffffffffffffffffffffffffffffffffff1661060f61112f565b73ffffffffffffffffffffffffffffffffffffffff16148061063e575061063d8161063861112f565b610f62565b5b61067d576040517f08c379a000000000000000000000000000000000000000000000000000000000815260040161067490612a7e565b60405180910390fd5b6106878383611137565b505050565b61069d61069761112f565b826111f0565b6106dc576040517f08c379a00000000000000000000000000000000000000000000000000000000081526004016106d390612b10565b60405180910390fd5b6106e7838383611285565b505050565b61070783838360405180602001604052806000815250610cb2565b505050565b6000806002600084815260200190815260200160002060009054906101000a900473ffffffffffffffffffffffffffffffffffffffff169050600073ffffffffffffffffffffffffffffffffffffffff168173ffffffffffffffffffffffffffffffffffffffff1614156107b5576040517f08c379a00000000000000000000000000000000000000000000000000000000081526004016107ac90612b7c565b60405180910390fd5b80915050919050565b60008073ffffffffffffffffffffffffffffffffffffffff168273ffffffffffffffffffffffffffffffffffffffff16141561082f576040517f08c379a000000000000000000000000000000000000000000000000000000000815260040161082690612c0e565b60405180910390fd5b600360008373ffffffffffffffffffffffffffffffffffffffff1673ffffffffffffffffffffffffffffffffffffffff168152602001908152602001600020549050919050565b61087e6112c0565b610888600061133e565b565b6000600760009054906101000a900473ffffffffffffffffffffffffffffffffffffffff16905090565b6060600180546108c390612948565b80601f01602080910402602001604051908101604052809291908181526020018280546108ef90612948565b801561093c5780601f106109115761010080835404028352916020019161093c565b820191906000526020600020905b81548152906001019060200180831161091f57829003601f168201915b5050505050905090565b61094e6112c0565b60001515600a60008373ffffffffffffffffffffffffffffffffffffffff1673ffffffffffffffffffffffffffffffffffffffff16815260200190815260200160002060000160029054906101000a900460ff161515146109e4576040517f08c379a00000000000000000000000000000000000000000000000000000000081526004016109db90612ca0565b60405180910390fd5b6040518060600160405280600015158152602001600060ff16815260200160011515815250600a60008373ffffffffffffffffffffffffffffffffffffffff1673ffffffffffffffffffffffffffffffffffffffff16815260200190815260200160002060008201518160000160006101000a81548160ff02191690831515021790555060208201518160000160016101000a81548160ff021916908360ff16021790555060408201518160000160026101000a81548160ff02191690831515021790555090505050565b610ac1610aba61112f565b8383611404565b5050565b7386a74f972a4e5f7ba795f80fd97e62151616406e73ffffffffffffffffffffffffffffffffffffffff163373ffffffffffffffffffffffffffffffffffffffff1614610b47576040517f08c379a0000000000000000000000000000000000000000000000000000000008152600401610b3e90612d32565b60405180910390fd5b60001515600a60008373ffffffffffffffffffffffffffffffffffffffff1673ffffffffffffffffffffffffffffffffffffffff16815260200190815260200160002060000160009054906101000a900460ff16151514610bdd576040517f08c379a0000000000000000000000000000000000000000000000000000000008152600401610bd490612dc4565b60405180910390fd5b60405180606001604052806001151581526020018360ff16815260200160011515815250600a60008373ffffffffffffffffffffffffffffffffffffffff1673ffffffffffffffffffffffffffffffffffffffff16815260200190815260200160002060008201518160000160006101000a81548160ff02191690831515021790555060208201518160000160016101000a81548160ff021916908360ff16021790555060408201518160000160026101000a81548160ff021916908315150217905550905050610cae8183611571565b5050565b610cc3610cbd61112f565b836111f0565b610d02576040517f08c379a0000000000000000000000000000000000000000000000000000000008152600401610cf990612b10565b60405180910390fd5b610d0e8484848461166c565b50505050565b6060610d1f826110e4565b6000600660008481526020019081526020016000208054610d3f90612948565b80601f0160208091040260200160405190810160405280929190818152602001828054610d6b90612948565b8015610db85780601f10610d8d57610100808354040283529160200191610db8565b820191906000526020600020905b815481529060010190602001808311610d9b57829003601f168201915b505050505090506000610dc96116c8565b9050600081511415610ddf578192505050610e22565b600082511115610e14578082604051602001610dfc929190612e20565b60405160208183030381529060405292505050610e22565b610e1d846116df565b925050505b919050565b610e2f612197565b600a60008373ffffffffffffffffffffffffffffffffffffffff1673ffffffffffffffffffffffffffffffffffffffff16815260200190815260200160002060000160029054906101000a900460ff16610ebe576040517f08c379a0000000000000000000000000000000000000000000000000000000008152600401610eb590612eb6565b60405180910390fd5b600a60008373ffffffffffffffffffffffffffffffffffffffff1673ffffffffffffffffffffffffffffffffffffffff1681526020019081526020016000206040518060600160405290816000820160009054906101000a900460ff161515151581526020016000820160019054906101000a900460ff1660ff1660ff1681526020016000820160029054906101000a900460ff1615151515815250509050919050565b6000600560008473ffffffffffffffffffffffffffffffffffffffff1673ffffffffffffffffffffffffffffffffffffffff16815260200190815260200160002060008373ffffffffffffffffffffffffffffffffffffffff1673ffffffffffffffffffffffffffffffffffffffff16815260200190815260200160002060009054906101000a900460ff16905092915050565b610ffe6112c0565b600073ffffffffffffffffffffffffffffffffffffffff168173ffffffffffffffffffffffffffffffffffffffff16141561106e576040517f08c379a000000000000000000000000000000000000000000000000000000000815260040161106590612f48565b60405180910390fd5b6110778161133e565b50565b60007f01ffc9a7000000000000000000000000000000000000000000000000000000007bffffffffffffffffffffffffffffffffffffffffffffffffffffffff1916827bffffffffffffffffffffffffffffffffffffffffffffffffffffffff1916149050919050565b6110ed81611747565b61112c576040517f08c379a000000000000000000000000000000000000000000000000000000000815260040161112390612b7c565b60405180910390fd5b50565b600033905090565b816004600083815260200190815260200160002060006101000a81548173ffffffffffffffffffffffffffffffffffffffff021916908373ffffffffffffffffffffffffffffffffffffffff160217905550808273ffffffffffffffffffffffffffffffffffffffff166111aa8361070c565b73ffffffffffffffffffffffffffffffffffffffff167f8c5be1e5ebec7d5bd14f71427d1e84f3dd0314c0f7b2291e5b200ac8c7c3b92560405160405180910390a45050565b6000806111fc8361070c565b90508073ffffffffffffffffffffffffffffffffffffffff168473ffffffffffffffffffffffffffffffffffffffff16148061123e575061123d8185610f62565b5b8061127c57508373ffffffffffffffffffffffffffffffffffffffff166112648461052e565b73ffffffffffffffffffffffffffffffffffffffff16145b91505092915050565b6040517f08c379a00000000000000000000000000000000000000000000000000000000081526004016112b790612fb4565b60405180910390fd5b6112c861112f565b73ffffffffffffffffffffffffffffffffffffffff166112e661088a565b73ffffffffffffffffffffffffffffffffffffffff161461133c576040517f08c379a000000000000000000000000000000000000000000000000000000000815260040161133390613020565b60405180910390fd5b565b6000600760009054906101000a900473ffffffffffffffffffffffffffffffffffffffff16905081600760006101000a81548173ffffffffffffffffffffffffffffffffffffffff021916908373ffffffffffffffffffffffffffffffffffffffff1602179055508173ffffffffffffffffffffffffffffffffffffffff168173ffffffffffffffffffffffffffffffffffffffff167f8be0079c531659141344cd1fd0a4f28419497f9722a3daafe3b4186f6b6457e060405160405180910390a35050565b8173ffffffffffffffffffffffffffffffffffffffff168373ffffffffffffffffffffffffffffffffffffffff161415611473576040517f08c379a000000000000000000000000000000000000000000000000000000000815260040161146a9061308c565b60405180910390fd5b80600560008573ffffffffffffffffffffffffffffffffffffffff1673ffffffffffffffffffffffffffffffffffffffff16815260200190815260200160002060008473ffffffffffffffffffffffffffffffffffffffff1673ffffffffffffffffffffffffffffffffffffffff16815260200190815260200160002060006101000a81548160ff0219169083151502179055508173ffffffffffffffffffffffffffffffffffffffff168373ffffffffffffffffffffffffffffffffffffffff167f17307eab39ab6107e8899845ad3d59bd9653f200f220920489ca2b5937696c31836040516115649190612316565b60405180910390a3505050565b600061157d60086117b3565b905060006115a28473ffffffffffffffffffffffffffffffffffffffff1660146117c1565b90506000600b6115b061049c565b836115bd8760ff166119fd565b6040516020016115d0949392919061332e565b6040516020818303038152906040529050600061161f6115ee61049c565b60096115f985611b5e565b60405160200161160b93929190613504565b604051602081830303815290604052611b5e565b905060008160405160200161163491906135ad565b604051602081830303815290604052905061164f8786611cf6565b6116598582611d14565b6116636008611d88565b50505050505050565b611677848484611285565b61168384848484611d9e565b6116c2576040517f08c379a00000000000000000000000000000000000000000000000000000000081526004016116b990613641565b60405180910390fd5b50505050565b606060405180602001604052806000815250905090565b60606116ea826110e4565b60006116f46116c8565b90506000815111611714576040518060200160405280600081525061173f565b8061171e846119fd565b60405160200161172f929190612e20565b6040516020818303038152906040525b915050919050565b60008073ffffffffffffffffffffffffffffffffffffffff166002600084815260200190815260200160002060009054906101000a900473ffffffffffffffffffffffffffffffffffffffff1673ffffffffffffffffffffffffffffffffffffffff1614159050919050565b600081600001549050919050565b6060600060028360026117d49190613690565b6117de91906136ea565b67ffffffffffffffff8111156117f7576117f66126b0565b5b6040519080825280601f01601f1916602001820160405280156118295781602001600182028036833780820191505090505b5090507f30000000000000000000000000000000000000000000000000000000000000008160008151811061186157611860613740565b5b60200101907effffffffffffffffffffffffffffffffffffffffffffffffffffffffffffff1916908160001a9053507f7800000000000000000000000000000000000000000000000000000000000000816001815181106118c5576118c4613740565b5b60200101907effffffffffffffffffffffffffffffffffffffffffffffffffffffffffffff1916908160001a905350600060018460026119059190613690565b61190f91906136ea565b90505b60018111156119af577f3031323334353637383961626364656600000000000000000000000000000000600f86166010811061195157611950613740565b5b1a60f81b82828151811061196857611967613740565b5b60200101907effffffffffffffffffffffffffffffffffffffffffffffffffffffffffffff1916908160001a905350600485901c9450806119a89061376f565b9050611912565b50600084146119f3576040517f08c379a00000000000000000000000000000000000000000000000000000000081526004016119ea906137e5565b60405180910390fd5b8091505092915050565b60606000821415611a45576040518060400160405280600181526020017f30000000000000000000000000000000000000000000000000000000000000008152509050611b59565b600082905060005b60008214611a77578080611a6090613805565b915050600a82611a70919061387d565b9150611a4d565b60008167ffffffffffffffff811115611a9357611a926126b0565b5b6040519080825280601f01601f191660200182016040528015611ac55781602001600182028036833780820191505090505b5090505b60008514611b5257600182611ade91906138ae565b9150600a85611aed91906138e2565b6030611af991906136ea565b60f81b818381518110611b0f57611b0e613740565b5b60200101907effffffffffffffffffffffffffffffffffffffffffffffffffffffffffffff1916908160001a905350600a85611b4b919061387d565b9450611ac9565b8093505050505b919050565b60606000825190506000811415611b875760405180602001604052806000815250915050611cf1565b60006003600283611b9891906136ea565b611ba2919061387d565b6004611bae9190613690565b90506000602082611bbf91906136ea565b67ffffffffffffffff811115611bd857611bd76126b0565b5b6040519080825280601f01601f191660200182016040528015611c0a5781602001600182028036833780820191505090505b5090506000604051806060016040528060408152602001613b61604091399050600181016020830160005b86811015611cae5760038101905062ffffff818a015116603f8160121c168401518060081b905060ff603f83600c1c1686015116810190508060081b905060ff603f8360061c1686015116810190508060081b905060ff603f831686015116810190508060e01b90508084526004840193505050611c35565b506003860660018114611cc85760028114611cd857611ce3565b613d3d60f01b6002830352611ce3565b603d60f81b60018303525b508484525050819450505050505b919050565b611d10828260405180602001604052806000815250611f35565b5050565b611d1d82611747565b611d5c576040517f08c379a0000000000000000000000000000000000000000000000000000000008152600401611d5390613985565b60405180910390fd5b80600660008481526020019081526020016000209080519060200190611d839291906121bf565b505050565b6001816000016000828254019250508190555050565b6000611dbf8473ffffffffffffffffffffffffffffffffffffffff16611f90565b15611f28578373ffffffffffffffffffffffffffffffffffffffff1663150b7a02611de861112f565b8786866040518563ffffffff1660e01b8152600401611e0a94939291906139fa565b602060405180830381600087803b158015611e2457600080fd5b505af1925050508015611e5557506040513d601f19601f82011682018060405250810190611e529190613a5b565b60015b611ed8573d8060008114611e85576040519150601f19603f3d011682016040523d82523d6000602084013e611e8a565b606091505b50600081511415611ed0576040517f08c379a0000000000000000000000000000000000000000000000000000000008152600401611ec790613641565b60405180910390fd5b805181602001fd5b63150b7a0260e01b7bffffffffffffffffffffffffffffffffffffffffffffffffffffffff1916817bffffffffffffffffffffffffffffffffffffffffffffffffffffffff191614915050611f2d565b600190505b949350505050565b611f3f8383611fb3565b611f4c6000848484611d9e565b611f8b576040517f08c379a0000000000000000000000000000000000000000000000000000000008152600401611f8290613641565b60405180910390fd5b505050565b6000808273ffffffffffffffffffffffffffffffffffffffff163b119050919050565b600073ffffffffffffffffffffffffffffffffffffffff168273ffffffffffffffffffffffffffffffffffffffff161415612023576040517f08c379a000000000000000000000000000000000000000000000000000000000815260040161201a90613ad4565b60405180910390fd5b61202c81611747565b1561206c576040517f08c379a000000000000000000000000000000000000000000000000000000000815260040161206390613b40565b60405180910390fd5b6120786000838361218d565b6001600360008473ffffffffffffffffffffffffffffffffffffffff1673ffffffffffffffffffffffffffffffffffffffff16815260200190815260200160002060008282546120c891906136ea565b92505081905550816002600083815260200190815260200160002060006101000a81548173ffffffffffffffffffffffffffffffffffffffff021916908373ffffffffffffffffffffffffffffffffffffffff160217905550808273ffffffffffffffffffffffffffffffffffffffff16600073ffffffffffffffffffffffffffffffffffffffff167fddf252ad1be2c89b69c2b068fc378daa952ba7f163c4a11628f55a4df523b3ef60405160405180910390a461218960008383612192565b5050565b505050565b505050565b6040518060600160405280600015158152602001600060ff1681526020016000151581525090565b8280546121cb90612948565b90600052602060002090601f0160209004810192826121ed5760008555612234565b82601f1061220657805160ff1916838001178555612234565b82800160010185558215612234579182015b82811115612233578251825591602001919060010190612218565b5b5090506122419190612245565b5090565b5b8082111561225e576000816000905550600101612246565b5090565b6000604051905090565b600080fd5b600080fd5b60007fffffffff0000000000000000000000000000000000000000000000000000000082169050919050565b6122ab81612276565b81146122b657600080fd5b50565b6000813590506122c8816122a2565b92915050565b6000602082840312156122e4576122e361226c565b5b60006122f2848285016122b9565b91505092915050565b60008115159050919050565b612310816122fb565b82525050565b600060208201905061232b6000830184612307565b92915050565b600081519050919050565b600082825260208201905092915050565b60005b8381101561236b578082015181840152602081019050612350565b8381111561237a576000848401525b50505050565b6000601f19601f8301169050919050565b600061239c82612331565b6123a6818561233c565b93506123b681856020860161234d565b6123bf81612380565b840191505092915050565b600060208201905081810360008301526123e48184612391565b905092915050565b6000819050919050565b6123ff816123ec565b811461240a57600080fd5b50565b60008135905061241c816123f6565b92915050565b6000602082840312156124385761243761226c565b5b60006124468482850161240d565b91505092915050565b600073ffffffffffffffffffffffffffffffffffffffff82169050919050565b600061247a8261244f565b9050919050565b61248a8161246f565b82525050565b60006020820190506124a56000830184612481565b92915050565b6124b48161246f565b81146124bf57600080fd5b50565b6000813590506124d1816124ab565b92915050565b600080604083850312156124ee576124ed61226c565b5b60006124fc858286016124c2565b925050602061250d8582860161240d565b9150509250929050565b6000806000606084860312156125305761252f61226c565b5b600061253e868287016124c2565b935050602061254f868287016124c2565b92505060406125608682870161240d565b9150509250925092565b6000602082840312156125805761257f61226c565b5b600061258e848285016124c2565b91505092915050565b6125a0816123ec565b82525050565b60006020820190506125bb6000830184612597565b92915050565b6125ca816122fb565b81146125d557600080fd5b50565b6000813590506125e7816125c1565b92915050565b600080604083850312156126045761260361226c565b5b6000612612858286016124c2565b9250506020612623858286016125d8565b9150509250929050565b600060ff82169050919050565b6126438161262d565b811461264e57600080fd5b50565b6000813590506126608161263a565b92915050565b6000806040838503121561267d5761267c61226c565b5b600061268b85828601612651565b925050602061269c858286016124c2565b9150509250929050565b600080fd5b600080fd5b7f4e487b7100000000000000000000000000000000000000000000000000000000600052604160045260246000fd5b6126e882612380565b810181811067ffffffffffffffff82111715612707576127066126b0565b5b80604052505050565b600061271a612262565b905061272682826126df565b919050565b600067ffffffffffffffff821115612746576127456126b0565b5b61274f82612380565b9050602081019050919050565b82818337600083830152505050565b600061277e6127798461272b565b612710565b90508281526020810184848401111561279a576127996126ab565b5b6127a584828561275c565b509392505050565b600082601f8301126127c2576127c16126a6565b5b81356127d284826020860161276b565b91505092915050565b600080600080608085870312156127f5576127f461226c565b5b6000612803878288016124c2565b9450506020612814878288016124c2565b93505060406128258782880161240d565b925050606085013567ffffffffffffffff81111561284657612845612271565b5b612852878288016127ad565b91505092959194509250565b612867816122fb565b82525050565b6128768161262d565b82525050565b606082016000820151612892600085018261285e565b5060208201516128a5602085018261286d565b5060408201516128b8604085018261285e565b50505050565b60006060820190506128d3600083018461287c565b92915050565b600080604083850312156128f0576128ef61226c565b5b60006128fe858286016124c2565b925050602061290f858286016124c2565b9150509250929050565b7f4e487b7100000000000000000000000000000000000000000000000000000000600052602260045260246000fd5b6000600282049050600182168061296057607f821691505b6020821081141561297457612973612919565b5b50919050565b7f4552433732313a20617070726f76616c20746f2063757272656e74206f776e6560008201527f7200000000000000000000000000000000000000000000000000000000000000602082015250565b60006129d660218361233c565b91506129e18261297a565b604082019050919050565b60006020820190508181036000830152612a05816129c9565b9050919050565b7f4552433732313a20617070726f76652063616c6c6572206973206e6f7420746f60008201527f6b656e206f776e6572206e6f7220617070726f76656420666f7220616c6c0000602082015250565b6000612a68603e8361233c565b9150612a7382612a0c565b604082019050919050565b60006020820190508181036000830152612a9781612a5b565b9050919050565b7f4552433732313a2063616c6c6572206973206e6f7420746f6b656e206f776e6560008201527f72206e6f7220617070726f766564000000000000000000000000000000000000602082015250565b6000612afa602e8361233c565b9150612b0582612a9e565b604082019050919050565b60006020820190508181036000830152612b2981612aed565b9050919050565b7f4552433732313a20696e76616c696420746f6b656e2049440000000000000000600082015250565b6000612b6660188361233c565b9150612b7182612b30565b602082019050919050565b60006020820190508181036000830152612b9581612b59565b9050919050565b7f4552433732313a2061646472657373207a65726f206973206e6f74206120766160008201527f6c6964206f776e65720000000000000000000000000000000000000000000000602082015250565b6000612bf860298361233c565b9150612c0382612b9c565b604082019050919050565b60006020820190508181036000830152612c2781612beb565b9050919050565b7f546865207573657220776974682074686973206164647265737320686173206160008201527f6c7265616479207374617274656420746865206578616d000000000000000000602082015250565b6000612c8a60378361233c565b9150612c9582612c2e565b604082019050919050565b60006020820190508181036000830152612cb981612c7d565b9050919050565b7f596f757220616464726573732069736e277420746865206261636b656e64206160008201527f6464726573732e00000000000000000000000000000000000000000000000000602082015250565b6000612d1c60278361233c565b9150612d2782612cc0565b604082019050919050565b60006020820190508181036000830152612d4b81612d0f565b9050919050565b7f546865207573657220776974682074686973206164647265737320686173206160008201527f6c72656164792066696e697368656420746865206578616d0000000000000000602082015250565b6000612dae60388361233c565b9150612db982612d52565b604082019050919050565b60006020820190508181036000830152612ddd81612da1565b9050919050565b600081905092915050565b6000612dfa82612331565b612e048185612de4565b9350612e1481856020860161234d565b80840191505092915050565b6000612e2c8285612def565b9150612e388284612def565b91508190509392505050565b7f5468657265206973206e6f207061727469636970616e7420776974682074686960008201527f7320616464726573732e00000000000000000000000000000000000000000000602082015250565b6000612ea0602a8361233c565b9150612eab82612e44565b604082019050919050565b60006020820190508181036000830152612ecf81612e93565b9050919050565b7f4f776e61626c653a206e6577206f776e657220697320746865207a65726f206160008201527f6464726573730000000000000000000000000000000000000000000000000000602082015250565b6000612f3260268361233c565b9150612f3d82612ed6565b604082019050919050565b60006020820190508181036000830152612f6181612f25565b9050919050565b7f596f752063616e6e6f74207472616e73666572204578616d20746f6b656e7300600082015250565b6000612f9e601f8361233c565b9150612fa982612f68565b602082019050919050565b60006020820190508181036000830152612fcd81612f91565b9050919050565b7f4f776e61626c653a2063616c6c6572206973206e6f7420746865206f776e6572600082015250565b600061300a60208361233c565b915061301582612fd4565b602082019050919050565b6000602082019050818103600083015261303981612ffd565b9050919050565b7f4552433732313a20617070726f766520746f2063616c6c657200000000000000600082015250565b600061307660198361233c565b915061308182613040565b602082019050919050565b600060208201905081810360008301526130a581613069565b9050919050565b60008190508160005260206000209050919050565b600081546130ce81612948565b6130d88186612de4565b945060018216600081146130f3576001811461310457613137565b60ff19831686528186019350613137565b61310d856130ac565b60005b8381101561312f57815481890152600182019150602081019050613110565b838801955050505b50505092915050565b7f3c747370616e20783d273530252720793d273235252720666f6e742d73697a6560008201527f3d2732307078273e000000000000000000000000000000000000000000000000602082015250565b600061319c602883612de4565b91506131a782613140565b602882019050919050565b7f3c2f747370616e3e000000000000000000000000000000000000000000000000600082015250565b60006131e8600883612de4565b91506131f3826131b2565b600882019050919050565b7f3c747370616e20783d273530252720793d273530252720666f6e742d73697a6560008201527f3d2731347078273e000000000000000000000000000000000000000000000000602082015250565b600061325a602883612de4565b9150613265826131fe565b602882019050919050565b7f3c747370616e20783d273530252720793d273735252720666f6e742d73697a6560008201527f3d2734307078273e2053636f7265200000000000000000000000000000000000602082015250565b60006132cc602f83612de4565b91506132d782613270565b602f82019050919050565b7f253c2f747370616e3e3c2f746578743e3c2f7376673e00000000000000000000600082015250565b6000613318601683612de4565b9150613323826132e2565b601682019050919050565b600061333a82876130c1565b91506133458261318f565b91506133518286612def565b915061335c826131db565b91506133678261324d565b91506133738285612def565b915061337e826131db565b9150613389826132bf565b91506133958284612def565b91506133a08261330b565b915081905095945050505050565b7f7b226e616d65223a202200000000000000000000000000000000000000000000600082015250565b60006133e4600a83612de4565b91506133ef826133ae565b600a82019050919050565b7f222c20226465736372697074696f6e223a202200000000000000000000000000600082015250565b6000613430601383612de4565b915061343b826133fa565b601382019050919050565b7f222c2022696d616765223a2022646174613a696d6167652f7376672b786d6c3b60008201527f6261736536342c00000000000000000000000000000000000000000000000000602082015250565b60006134a2602783612de4565b91506134ad82613446565b602782019050919050565b7f227d000000000000000000000000000000000000000000000000000000000000600082015250565b60006134ee600283612de4565b91506134f9826134b8565b600282019050919050565b600061350f826133d7565b915061351b8286612def565b915061352682613423565b915061353282856130c1565b915061353d82613495565b91506135498284612def565b9150613554826134e1565b9150819050949350505050565b7f646174613a6170706c69636174696f6e2f6a736f6e3b6261736536342c000000600082015250565b6000613597601d83612de4565b91506135a282613561565b601d82019050919050565b60006135b88261358a565b91506135c48284612def565b915081905092915050565b7f4552433732313a207472616e7366657220746f206e6f6e20455243373231526560008201527f63656976657220696d706c656d656e7465720000000000000000000000000000602082015250565b600061362b60328361233c565b9150613636826135cf565b604082019050919050565b6000602082019050818103600083015261365a8161361e565b9050919050565b7f4e487b7100000000000000000000000000000000000000000000000000000000600052601160045260246000fd5b600061369b826123ec565b91506136a6836123ec565b9250817fffffffffffffffffffffffffffffffffffffffffffffffffffffffffffffffff04831182151516156136df576136de613661565b5b828202905092915050565b60006136f5826123ec565b9150613700836123ec565b9250827fffffffffffffffffffffffffffffffffffffffffffffffffffffffffffffffff0382111561373557613734613661565b5b828201905092915050565b7f4e487b7100000000000000000000000000000000000000000000000000000000600052603260045260246000fd5b600061377a826123ec565b9150600082141561378e5761378d613661565b5b600182039050919050565b7f537472696e67733a20686578206c656e67746820696e73756666696369656e74600082015250565b60006137cf60208361233c565b91506137da82613799565b602082019050919050565b600060208201905081810360008301526137fe816137c2565b9050919050565b6000613810826123ec565b91507fffffffffffffffffffffffffffffffffffffffffffffffffffffffffffffffff82141561384357613842613661565b5b600182019050919050565b7f4e487b7100000000000000000000000000000000000000000000000000000000600052601260045260246000fd5b6000613888826123ec565b9150613893836123ec565b9250826138a3576138a261384e565b5b828204905092915050565b60006138b9826123ec565b91506138c4836123ec565b9250828210156138d7576138d6613661565b5b828203905092915050565b60006138ed826123ec565b91506138f8836123ec565b9250826139085761390761384e565b5b828206905092915050565b7f45524337323155524953746f726167653a2055524920736574206f66206e6f6e60008201527f6578697374656e7420746f6b656e000000000000000000000000000000000000602082015250565b600061396f602e8361233c565b915061397a82613913565b604082019050919050565b6000602082019050818103600083015261399e81613962565b9050919050565b600081519050919050565b600082825260208201905092915050565b60006139cc826139a5565b6139d681856139b0565b93506139e681856020860161234d565b6139ef81612380565b840191505092915050565b6000608082019050613a0f6000830187612481565b613a1c6020830186612481565b613a296040830185612597565b8181036060830152613a3b81846139c1565b905095945050505050565b600081519050613a55816122a2565b92915050565b600060208284031215613a7157613a7061226c565b5b6000613a7f84828501613a46565b91505092915050565b7f4552433732313a206d696e7420746f20746865207a65726f2061646472657373600082015250565b6000613abe60208361233c565b9150613ac982613a88565b602082019050919050565b60006020820190508181036000830152613aed81613ab1565b9050919050565b7f4552433732313a20746f6b656e20616c7265616479206d696e74656400000000600082015250565b6000613b2a601c8361233c565b9150613b3582613af4565b602082019050919050565b60006020820190508181036000830152613b5981613b1d565b905091905056fe4142434445464748494a4b4c4d4e4f505152535455565758595a6162636465666768696a6b6c6d6e6f707172737475767778797a303132333435363738392b2fa2646970667358221220fc35beceb41340ed7ccc68f2d410034d7da1aad014b3774612061ad4042bf8c664736f6c634300080900333c73766720786d6c6e733d27687474703a2f2f7777772e77332e6f72672f323030302f73766727207072657365727665417370656374526174696f3d27784d696e594d696e206d656574272076696577426f783d273020302033353020333530273e3c7374796c653e2e62617365207b2066696c6c3a2077686974653b20666f6e742d66616d696c793a2073657269663b20666f6e742d73697a653a20323470783b207d3c2f7374796c653e3c726563742077696474683d273130302527206865696768743d2731303025272066696c6c3d272346423932334327202f3e3c7465787420783d273530252720793d273530252720636c6173733d27626173652720646f6d696e616e742d626173656c696e653d276d6964646c652720746578742d616e63686f723d276d6964646c65273ea2646970667358221220f259bce395613ba3dce2fb6b89fa2cf1a6191fbbfae53f890cec58be66c0f8e564736f6c63430008090033",
  "linkReferences": {},
  "deployedLinkReferences": {}
}