{
  "_format": "hh-sol-artifact-1",
  "contractName": "ExamController",
  "sourceName": "contracts/ExamController.sol",
  "abi": [
    {
      "anonymous": false,
      "inputs": [
        {
          "indexed": false,
          "internalType": "address",
          "name": "newExamAddress",
          "type": "address"
        },
        {
          "indexed": false,
          "internalType": "address",
          "name": "creatorAddress",
          "type": "address"
        }
      ],
      "name": "NewExamCreation",
      "type": "event"
    },
    {
      "anonymous": false,
      "inputs": [
        {
          "indexed": false,
          "internalType": "address",
          "name": "examAddress",
          "type": "address"
        },
        {
          "indexed": false,
          "internalType": "address",
          "name": "participantAddress",
          "type": "address"
        }
      ],
      "name": "NewExamParticipation",
      "type": "event"
    },
    {
      "inputs": [
        {
          "internalType": "string",
          "name": "_name",
          "type": "string"
        },
        {
          "internalType": "string",
          "name": "_symbol",
          "type": "string"
        }
      ],
      "name": "addExam",
      "outputs": [],
      "stateMutability": "nonpayable",
      "type": "function"
    },
    {
      "inputs": [],
      "name": "getExams",
      "outputs": [
        {
          "components": [
            {
              "internalType": "string",
              "name": "name",
              "type": "string"
            },
            {
              "internalType": "address",
              "name": "examAddress",
              "type": "address"
            }
          ],
          "internalType": "struct ExamController.ExamHelper[]",
          "name": "",
          "type": "tuple[]"
        }
      ],
      "stateMutability": "view",
      "type": "function"
    },
    {
      "inputs": [
        {
          "internalType": "address",
          "name": "_examAddressToParticipate",
          "type": "address"
        }
      ],
      "name": "manageExamParticipation",
      "outputs": [],
      "stateMutability": "nonpayable",
      "type": "function"
    }
  ],
  "bytecode": "0x608060405234801561001057600080fd5b50614cd0806100206000396000f3fe60806040523480156200001157600080fd5b5060043610620000465760003560e01c8063236472ce146200004b578063813f91d0146200006d5780639f82c3f6146200008d575b600080fd5b62000055620000ad565b604051620000649190620007e2565b60405180910390f35b6200008b60048036038101906200008591906200087e565b620001fe565b005b620000ab6004803603810190620000a591906200093d565b62000389565b005b60606000805480602002602001604051908101604052809291908181526020016000905b82821015620001f5578382906000526020600020906002020160405180604001604052908160008201805462000107906200099e565b80601f016020809104026020016040519081016040528092919081815260200182805462000135906200099e565b8015620001865780601f106200015a5761010080835404028352916020019162000186565b820191906000526020600020905b8154815290600101906020018083116200016857829003601f168201915b505050505081526020016001820160009054906101000a900473ffffffffffffffffffffffffffffffffffffffff1673ffffffffffffffffffffffffffffffffffffffff1673ffffffffffffffffffffffffffffffffffffffff168152505081526020019060010190620000d1565b50505050905090565b600084848484333060405162000214906200052a565b620002259695949392919062000a38565b604051809103906000f08015801562000242573d6000803e3d6000fd5b5090506000604051806040016040528087878080601f016020809104026020016040519081016040528093929190818152602001838380828437600081840152601f19601f8201169050808301925050505050505081526020018373ffffffffffffffffffffffffffffffffffffffff1681525090806001815401808255809150506001900390600052602060002090600202016000909190919091506000820151816000019080519060200190620002fd92919062000538565b5060208201518160010160006101000a81548173ffffffffffffffffffffffffffffffffffffffff021916908373ffffffffffffffffffffffffffffffffffffffff16021790555050507f5daa9d7a530865258538275419f647693cb8ef24c9a92a39f1360f747741052e81336040516200037a92919062000a97565b60405180910390a15050505050565b6000805b60008054905081101562000438578273ffffffffffffffffffffffffffffffffffffffff1660008281548110620003c957620003c862000ac4565b5b906000526020600020906002020160010160009054906101000a900473ffffffffffffffffffffffffffffffffffffffff1673ffffffffffffffffffffffffffffffffffffffff16141562000422576001915062000438565b80806200042f9062000b2c565b9150506200038d565b50806200047c576040517f08c379a0000000000000000000000000000000000000000000000000000000008152600401620004739062000bf0565b60405180910390fd5b8173ffffffffffffffffffffffffffffffffffffffff166396e702f0336040518263ffffffff1660e01b8152600401620004b7919062000c12565b600060405180830381600087803b158015620004d257600080fd5b505af1158015620004e7573d6000803e3d6000fd5b505050507f1dbe1c0861a8ab9e3a2a8e4ac25e91bff179731c429ede3f7df878ef05643cac82336040516200051e92919062000a97565b60405180910390a15050565b61406b8062000c3083390190565b82805462000546906200099e565b90600052602060002090601f0160209004810192826200056a5760008555620005b6565b82601f106200058557805160ff1916838001178555620005b6565b82800160010185558215620005b6579182015b82811115620005b557825182559160200191906001019062000598565b5b509050620005c59190620005c9565b5090565b5b80821115620005e4576000816000905550600101620005ca565b5090565b600081519050919050565b600082825260208201905092915050565b6000819050602082019050919050565b600081519050919050565b600082825260208201905092915050565b60005b838110156200065057808201518184015260208101905062000633565b8381111562000660576000848401525b50505050565b6000601f19601f8301169050919050565b6000620006848262000614565b6200069081856200061f565b9350620006a281856020860162000630565b620006ad8162000666565b840191505092915050565b600073ffffffffffffffffffffffffffffffffffffffff82169050919050565b6000620006e582620006b8565b9050919050565b620006f781620006d8565b82525050565b600060408301600083015184820360008601526200071c828262000677565b9150506020830151620007336020860182620006ec565b508091505092915050565b60006200074c8383620006fd565b905092915050565b6000602082019050919050565b60006200076e82620005e8565b6200077a8185620005f3565b9350836020820285016200078e8562000604565b8060005b85811015620007d05784840389528151620007ae85826200073e565b9450620007bb8362000754565b925060208a0199505060018101905062000792565b50829750879550505050505092915050565b60006020820190508181036000830152620007fe818462000761565b905092915050565b600080fd5b600080fd5b600080fd5b600080fd5b600080fd5b60008083601f84011262000838576200083762000810565b5b8235905067ffffffffffffffff81111562000858576200085762000815565b5b6020830191508360018202830111156200087757620008766200081a565b5b9250929050565b600080600080604085870312156200089b576200089a62000806565b5b600085013567ffffffffffffffff811115620008bc57620008bb6200080b565b5b620008ca878288016200081f565b9450945050602085013567ffffffffffffffff811115620008f057620008ef6200080b565b5b620008fe878288016200081f565b925092505092959194509250565b6200091781620006d8565b81146200092357600080fd5b50565b60008135905062000937816200090c565b92915050565b60006020828403121562000956576200095562000806565b5b6000620009668482850162000926565b91505092915050565b7f4e487b7100000000000000000000000000000000000000000000000000000000600052602260045260246000fd5b60006002820490506001821680620009b757607f821691505b60208210811415620009ce57620009cd6200096f565b5b50919050565b600082825260208201905092915050565b82818337600083830152505050565b600062000a028385620009d4565b935062000a11838584620009e5565b62000a1c8362000666565b840190509392505050565b62000a3281620006d8565b82525050565b6000608082019050818103600083015262000a5581888a620009f4565b9050818103602083015262000a6c818688620009f4565b905062000a7d604083018562000a27565b62000a8c606083018462000a27565b979650505050505050565b600060408201905062000aae600083018562000a27565b62000abd602083018462000a27565b9392505050565b7f4e487b7100000000000000000000000000000000000000000000000000000000600052603260045260246000fd5b7f4e487b7100000000000000000000000000000000000000000000000000000000600052601160045260246000fd5b6000819050919050565b600062000b398262000b22565b91507fffffffffffffffffffffffffffffffffffffffffffffffffffffffffffffffff82141562000b6f5762000b6e62000af3565b5b600182019050919050565b7f4578616d2077697468207468652070726f76696465642061646472657373206460008201527f6f65736e27742065786973742e00000000000000000000000000000000000000602082015250565b600062000bd8602d83620009d4565b915062000be58262000b7a565b604082019050919050565b6000602082019050818103600083015262000c0b8162000bc9565b9050919050565b600060208201905062000c29600083018462000a27565b9291505056fe608060405260405180610160016040528061012f815260200162003f3c61012f9139600b9080519060200190620000389291906200012e565b503480156200004657600080fd5b506040516200406b3803806200406b83398181016040528101906200006c9190620003e0565b83838160009080519060200190620000869291906200012e565b5080600190805190602001906200009f9291906200012e565b50505081600860006101000a81548173ffffffffffffffffffffffffffffffffffffffff021916908373ffffffffffffffffffffffffffffffffffffffff16021790555080600960006101000a81548173ffffffffffffffffffffffffffffffffffffffff021916908373ffffffffffffffffffffffffffffffffffffffff16021790555050505050620004f5565b8280546200013c90620004bf565b90600052602060002090601f016020900481019282620001605760008555620001ac565b82601f106200017b57805160ff1916838001178555620001ac565b82800160010185558215620001ac579182015b82811115620001ab5782518255916020019190600101906200018e565b5b509050620001bb9190620001bf565b5090565b5b80821115620001da576000816000905550600101620001c0565b5090565b6000604051905090565b600080fd5b600080fd5b600080fd5b600080fd5b6000601f19601f8301169050919050565b7f4e487b7100000000000000000000000000000000000000000000000000000000600052604160045260246000fd5b6200024782620001fc565b810181811067ffffffffffffffff821117156200026957620002686200020d565b5b80604052505050565b60006200027e620001de565b90506200028c82826200023c565b919050565b600067ffffffffffffffff821115620002af57620002ae6200020d565b5b620002ba82620001fc565b9050602081019050919050565b60005b83811015620002e7578082015181840152602081019050620002ca565b83811115620002f7576000848401525b50505050565b6000620003146200030e8462000291565b62000272565b905082815260208101848484011115620003335762000332620001f7565b5b62000340848285620002c7565b509392505050565b600082601f83011262000360576200035f620001f2565b5b815162000372848260208601620002fd565b91505092915050565b600073ffffffffffffffffffffffffffffffffffffffff82169050919050565b6000620003a8826200037b565b9050919050565b620003ba816200039b565b8114620003c657600080fd5b50565b600081519050620003da81620003af565b92915050565b60008060008060808587031215620003fd57620003fc620001e8565b5b600085015167ffffffffffffffff8111156200041e576200041d620001ed565b5b6200042c8782880162000348565b945050602085015167ffffffffffffffff81111562000450576200044f620001ed565b5b6200045e8782880162000348565b93505060406200047187828801620003c9565b92505060606200048487828801620003c9565b91505092959194509250565b7f4e487b7100000000000000000000000000000000000000000000000000000000600052602260045260246000fd5b60006002820490506001821680620004d857607f821691505b60208210811415620004ef57620004ee62000490565b5b50919050565b613a3780620005056000396000f3fe608060405234801561001057600080fd5b506004361061010b5760003560e01c806370a08231116100a2578063b484be6311610071578063b484be63146102b4578063b88d4fde146102d0578063c87b56dd146102ec578063e41c3ce41461031c578063e985e9c51461034c5761010b565b806370a082311461022e57806395d89b411461025e57806396e702f01461027c578063a22cb465146102985761010b565b806313352162116100de57806313352162146101aa57806323b872dd146101c657806342842e0e146101e25780636352211e146101fe5761010b565b806301ffc9a71461011057806306fdde0314610140578063081812fc1461015e578063095ea7b31461018e575b600080fd5b61012a60048036038101906101259190612205565b61037c565b604051610137919061224d565b60405180910390f35b61014861045e565b6040516101559190612301565b60405180910390f35b61017860048036038101906101739190612359565b6104f0565b60405161018591906123c7565b60405180910390f35b6101a860048036038101906101a3919061240e565b610536565b005b6101c460048036038101906101bf9190612487565b61064e565b005b6101e060048036038101906101db91906124c7565b610746565b005b6101fc60048036038101906101f791906124c7565b6107a6565b005b61021860048036038101906102139190612359565b6107c6565b60405161022591906123c7565b60405180910390f35b6102486004803603810190610243919061251a565b610878565b6040516102559190612556565b60405180910390f35b610266610930565b6040516102739190612301565b60405180910390f35b6102966004803603810190610291919061251a565b6109c2565b005b6102b260048036038101906102ad919061259d565b610b1d565b005b6102ce60048036038101906102c991906125dd565b610b33565b005b6102ea60048036038101906102e59190612752565b610c80565b005b61030660048036038101906103019190612359565b610ce2565b6040516103139190612301565b60405180910390f35b6103366004803603810190610331919061251a565b610df5565b6040516103439190612835565b60405180910390f35b61036660048036038101906103619190612850565b610f30565b604051610373919061224d565b60405180910390f35b60007f80ac58cd000000000000000000000000000000000000000000000000000000007bffffffffffffffffffffffffffffffffffffffffffffffffffffffff1916827bffffffffffffffffffffffffffffffffffffffffffffffffffffffff1916148061044757507f5b5e139f000000000000000000000000000000000000000000000000000000007bffffffffffffffffffffffffffffffffffffffffffffffffffffffff1916827bffffffffffffffffffffffffffffffffffffffffffffffffffffffff1916145b80610457575061045682610fc4565b5b9050919050565b60606000805461046d906128bf565b80601f0160208091040260200160405190810160405280929190818152602001828054610499906128bf565b80156104e65780601f106104bb576101008083540402835291602001916104e6565b820191906000526020600020905b8154815290600101906020018083116104c957829003601f168201915b5050505050905090565b60006104fb8261102e565b6004600083815260200190815260200160002060009054906101000a900473ffffffffffffffffffffffffffffffffffffffff169050919050565b6000610541826107c6565b90508073ffffffffffffffffffffffffffffffffffffffff168373ffffffffffffffffffffffffffffffffffffffff1614156105b2576040517f08c379a00000000000000000000000000000000000000000000000000000000081526004016105a990612963565b60405180910390fd5b8073ffffffffffffffffffffffffffffffffffffffff166105d1611079565b73ffffffffffffffffffffffffffffffffffffffff16148061060057506105ff816105fa611079565b610f30565b5b61063f576040517f08c379a0000000000000000000000000000000000000000000000000000000008152600401610636906129f5565b60405180910390fd5b6106498383611081565b505050565b600061065a600761113a565b9050600061067f8473ffffffffffffffffffffffffffffffffffffffff166014611148565b90506000600b61068d61045e565b8361069a8760ff16611384565b6040516020016106ad9493929190612cd3565b604051602081830303815290604052905060006106f96106cb61045e565b6106d4846114e5565b6040516020016106e5929190612e83565b6040516020818303038152906040526114e5565b905060008160405160200161070e9190612f14565b6040516020818303038152906040529050610729338661167d565b610733858261169b565b61073d600761170f565b50505050505050565b610757610751611079565b82611725565b610796576040517f08c379a000000000000000000000000000000000000000000000000000000000815260040161078d90612fa8565b60405180910390fd5b6107a18383836117ba565b505050565b6107c183838360405180602001604052806000815250610c80565b505050565b6000806002600084815260200190815260200160002060009054906101000a900473ffffffffffffffffffffffffffffffffffffffff169050600073ffffffffffffffffffffffffffffffffffffffff168173ffffffffffffffffffffffffffffffffffffffff16141561086f576040517f08c379a000000000000000000000000000000000000000000000000000000000815260040161086690613014565b60405180910390fd5b80915050919050565b60008073ffffffffffffffffffffffffffffffffffffffff168273ffffffffffffffffffffffffffffffffffffffff1614156108e9576040517f08c379a00000000000000000000000000000000000000000000000000000000081526004016108e0906130a6565b60405180910390fd5b600360008373ffffffffffffffffffffffffffffffffffffffff1673ffffffffffffffffffffffffffffffffffffffff168152602001908152602001600020549050919050565b60606001805461093f906128bf565b80601f016020809104026020016040519081016040528092919081815260200182805461096b906128bf565b80156109b85780601f1061098d576101008083540402835291602001916109b8565b820191906000526020600020905b81548152906001019060200180831161099b57829003601f168201915b5050505050905090565b600960009054906101000a900473ffffffffffffffffffffffffffffffffffffffff1673ffffffffffffffffffffffffffffffffffffffff163373ffffffffffffffffffffffffffffffffffffffff1614610a52576040517f08c379a0000000000000000000000000000000000000000000000000000000008152600401610a4990613138565b60405180910390fd5b6040518060600160405280600015158152602001600060ff16815260200160011515815250600a60008373ffffffffffffffffffffffffffffffffffffffff1673ffffffffffffffffffffffffffffffffffffffff16815260200190815260200160002060008201518160000160006101000a81548160ff02191690831515021790555060208201518160000160016101000a81548160ff021916908360ff16021790555060408201518160000160026101000a81548160ff02191690831515021790555090505050565b610b2f610b28611079565b8383611a21565b5050565b7386a74f972a4e5f7ba795f80fd97e62151616406e73ffffffffffffffffffffffffffffffffffffffff163373ffffffffffffffffffffffffffffffffffffffff1614610bb5576040517f08c379a0000000000000000000000000000000000000000000000000000000008152600401610bac906131ca565b60405180910390fd5b60405180606001604052806001151581526020018360ff16815260200160011515815250600a60008373ffffffffffffffffffffffffffffffffffffffff1673ffffffffffffffffffffffffffffffffffffffff16815260200190815260200160002060008201518160000160006101000a81548160ff02191690831515021790555060208201518160000160016101000a81548160ff021916908360ff16021790555060408201518160000160026101000a81548160ff0219169083151502179055509050505050565b610c91610c8b611079565b83611725565b610cd0576040517f08c379a0000000000000000000000000000000000000000000000000000000008152600401610cc790612fa8565b60405180910390fd5b610cdc84848484611b8e565b50505050565b6060610ced8261102e565b6000600660008481526020019081526020016000208054610d0d906128bf565b80601f0160208091040260200160405190810160405280929190818152602001828054610d39906128bf565b8015610d865780601f10610d5b57610100808354040283529160200191610d86565b820191906000526020600020905b815481529060010190602001808311610d6957829003601f168201915b505050505090506000610d97611bea565b9050600081511415610dad578192505050610df0565b600082511115610de2578082604051602001610dca9291906131ea565b60405160208183030381529060405292505050610df0565b610deb84611c01565b925050505b919050565b610dfd6120ce565b600a60008373ffffffffffffffffffffffffffffffffffffffff1673ffffffffffffffffffffffffffffffffffffffff16815260200190815260200160002060000160029054906101000a900460ff16610e8c576040517f08c379a0000000000000000000000000000000000000000000000000000000008152600401610e8390613280565b60405180910390fd5b600a60008373ffffffffffffffffffffffffffffffffffffffff1673ffffffffffffffffffffffffffffffffffffffff1681526020019081526020016000206040518060600160405290816000820160009054906101000a900460ff161515151581526020016000820160019054906101000a900460ff1660ff1660ff1681526020016000820160029054906101000a900460ff1615151515815250509050919050565b6000600560008473ffffffffffffffffffffffffffffffffffffffff1673ffffffffffffffffffffffffffffffffffffffff16815260200190815260200160002060008373ffffffffffffffffffffffffffffffffffffffff1673ffffffffffffffffffffffffffffffffffffffff16815260200190815260200160002060009054906101000a900460ff16905092915050565b60007f01ffc9a7000000000000000000000000000000000000000000000000000000007bffffffffffffffffffffffffffffffffffffffffffffffffffffffff1916827bffffffffffffffffffffffffffffffffffffffffffffffffffffffff1916149050919050565b61103781611c69565b611076576040517f08c379a000000000000000000000000000000000000000000000000000000000815260040161106d90613014565b60405180910390fd5b50565b600033905090565b816004600083815260200190815260200160002060006101000a81548173ffffffffffffffffffffffffffffffffffffffff021916908373ffffffffffffffffffffffffffffffffffffffff160217905550808273ffffffffffffffffffffffffffffffffffffffff166110f4836107c6565b73ffffffffffffffffffffffffffffffffffffffff167f8c5be1e5ebec7d5bd14f71427d1e84f3dd0314c0f7b2291e5b200ac8c7c3b92560405160405180910390a45050565b600081600001549050919050565b60606000600283600261115b91906132cf565b6111659190613329565b67ffffffffffffffff81111561117e5761117d612627565b5b6040519080825280601f01601f1916602001820160405280156111b05781602001600182028036833780820191505090505b5090507f3000000000000000000000000000000000000000000000000000000000000000816000815181106111e8576111e761337f565b5b60200101907effffffffffffffffffffffffffffffffffffffffffffffffffffffffffffff1916908160001a9053507f78000000000000000000000000000000000000000000000000000000000000008160018151811061124c5761124b61337f565b5b60200101907effffffffffffffffffffffffffffffffffffffffffffffffffffffffffffff1916908160001a9053506000600184600261128c91906132cf565b6112969190613329565b90505b6001811115611336577f3031323334353637383961626364656600000000000000000000000000000000600f8616601081106112d8576112d761337f565b5b1a60f81b8282815181106112ef576112ee61337f565b5b60200101907effffffffffffffffffffffffffffffffffffffffffffffffffffffffffffff1916908160001a905350600485901c94508061132f906133ae565b9050611299565b506000841461137a576040517f08c379a000000000000000000000000000000000000000000000000000000000815260040161137190613424565b60405180910390fd5b8091505092915050565b606060008214156113cc576040518060400160405280600181526020017f300000000000000000000000000000000000000000000000000000000000000081525090506114e0565b600082905060005b600082146113fe5780806113e790613444565b915050600a826113f791906134bc565b91506113d4565b60008167ffffffffffffffff81111561141a57611419612627565b5b6040519080825280601f01601f19166020018201604052801561144c5781602001600182028036833780820191505090505b5090505b600085146114d95760018261146591906134ed565b9150600a856114749190613521565b60306114809190613329565b60f81b8183815181106114965761149561337f565b5b60200101907effffffffffffffffffffffffffffffffffffffffffffffffffffffffffffff1916908160001a905350600a856114d291906134bc565b9450611450565b8093505050505b919050565b6060600082519050600081141561150e5760405180602001604052806000815250915050611678565b6000600360028361151f9190613329565b61152991906134bc565b600461153591906132cf565b905060006020826115469190613329565b67ffffffffffffffff81111561155f5761155e612627565b5b6040519080825280601f01601f1916602001820160405280156115915781602001600182028036833780820191505090505b50905060006040518060600160405280604081526020016139c2604091399050600181016020830160005b868110156116355760038101905062ffffff818a015116603f8160121c168401518060081b905060ff603f83600c1c1686015116810190508060081b905060ff603f8360061c1686015116810190508060081b905060ff603f831686015116810190508060e01b905080845260048401935050506115bc565b50600386066001811461164f576002811461165f5761166a565b613d3d60f01b600283035261166a565b603d60f81b60018303525b508484525050819450505050505b919050565b611697828260405180602001604052806000815250611cd5565b5050565b6116a482611c69565b6116e3576040517f08c379a00000000000000000000000000000000000000000000000000000000081526004016116da906135c4565b60405180910390fd5b8060066000848152602001908152602001600020908051906020019061170a9291906120f6565b505050565b6001816000016000828254019250508190555050565b600080611731836107c6565b90508073ffffffffffffffffffffffffffffffffffffffff168473ffffffffffffffffffffffffffffffffffffffff16148061177357506117728185610f30565b5b806117b157508373ffffffffffffffffffffffffffffffffffffffff16611799846104f0565b73ffffffffffffffffffffffffffffffffffffffff16145b91505092915050565b8273ffffffffffffffffffffffffffffffffffffffff166117da826107c6565b73ffffffffffffffffffffffffffffffffffffffff1614611830576040517f08c379a000000000000000000000000000000000000000000000000000000000815260040161182790613656565b60405180910390fd5b600073ffffffffffffffffffffffffffffffffffffffff168273ffffffffffffffffffffffffffffffffffffffff1614156118a0576040517f08c379a0000000000000000000000000000000000000000000000000000000008152600401611897906136e8565b60405180910390fd5b6118ab838383611d30565b6118b6600082611081565b6001600360008573ffffffffffffffffffffffffffffffffffffffff1673ffffffffffffffffffffffffffffffffffffffff168152602001908152602001600020600082825461190691906134ed565b925050819055506001600360008473ffffffffffffffffffffffffffffffffffffffff1673ffffffffffffffffffffffffffffffffffffffff168152602001908152602001600020600082825461195d9190613329565b92505081905550816002600083815260200190815260200160002060006101000a81548173ffffffffffffffffffffffffffffffffffffffff021916908373ffffffffffffffffffffffffffffffffffffffff160217905550808273ffffffffffffffffffffffffffffffffffffffff168473ffffffffffffffffffffffffffffffffffffffff167fddf252ad1be2c89b69c2b068fc378daa952ba7f163c4a11628f55a4df523b3ef60405160405180910390a4611a1c838383611d35565b505050565b8173ffffffffffffffffffffffffffffffffffffffff168373ffffffffffffffffffffffffffffffffffffffff161415611a90576040517f08c379a0000000000000000000000000000000000000000000000000000000008152600401611a8790613754565b60405180910390fd5b80600560008573ffffffffffffffffffffffffffffffffffffffff1673ffffffffffffffffffffffffffffffffffffffff16815260200190815260200160002060008473ffffffffffffffffffffffffffffffffffffffff1673ffffffffffffffffffffffffffffffffffffffff16815260200190815260200160002060006101000a81548160ff0219169083151502179055508173ffffffffffffffffffffffffffffffffffffffff168373ffffffffffffffffffffffffffffffffffffffff167f17307eab39ab6107e8899845ad3d59bd9653f200f220920489ca2b5937696c3183604051611b81919061224d565b60405180910390a3505050565b611b998484846117ba565b611ba584848484611d3a565b611be4576040517f08c379a0000000000000000000000000000000000000000000000000000000008152600401611bdb906137e6565b60405180910390fd5b50505050565b606060405180602001604052806000815250905090565b6060611c0c8261102e565b6000611c16611bea565b90506000815111611c365760405180602001604052806000815250611c61565b80611c4084611384565b604051602001611c519291906131ea565b6040516020818303038152906040525b915050919050565b60008073ffffffffffffffffffffffffffffffffffffffff166002600084815260200190815260200160002060009054906101000a900473ffffffffffffffffffffffffffffffffffffffff1673ffffffffffffffffffffffffffffffffffffffff1614159050919050565b611cdf8383611ed1565b611cec6000848484611d3a565b611d2b576040517f08c379a0000000000000000000000000000000000000000000000000000000008152600401611d22906137e6565b60405180910390fd5b505050565b505050565b505050565b6000611d5b8473ffffffffffffffffffffffffffffffffffffffff166120ab565b15611ec4578373ffffffffffffffffffffffffffffffffffffffff1663150b7a02611d84611079565b8786866040518563ffffffff1660e01b8152600401611da6949392919061385b565b602060405180830381600087803b158015611dc057600080fd5b505af1925050508015611df157506040513d601f19601f82011682018060405250810190611dee91906138bc565b60015b611e74573d8060008114611e21576040519150601f19603f3d011682016040523d82523d6000602084013e611e26565b606091505b50600081511415611e6c576040517f08c379a0000000000000000000000000000000000000000000000000000000008152600401611e63906137e6565b60405180910390fd5b805181602001fd5b63150b7a0260e01b7bffffffffffffffffffffffffffffffffffffffffffffffffffffffff1916817bffffffffffffffffffffffffffffffffffffffffffffffffffffffff191614915050611ec9565b600190505b949350505050565b600073ffffffffffffffffffffffffffffffffffffffff168273ffffffffffffffffffffffffffffffffffffffff161415611f41576040517f08c379a0000000000000000000000000000000000000000000000000000000008152600401611f3890613935565b60405180910390fd5b611f4a81611c69565b15611f8a576040517f08c379a0000000000000000000000000000000000000000000000000000000008152600401611f81906139a1565b60405180910390fd5b611f9660008383611d30565b6001600360008473ffffffffffffffffffffffffffffffffffffffff1673ffffffffffffffffffffffffffffffffffffffff1681526020019081526020016000206000828254611fe69190613329565b92505081905550816002600083815260200190815260200160002060006101000a81548173ffffffffffffffffffffffffffffffffffffffff021916908373ffffffffffffffffffffffffffffffffffffffff160217905550808273ffffffffffffffffffffffffffffffffffffffff16600073ffffffffffffffffffffffffffffffffffffffff167fddf252ad1be2c89b69c2b068fc378daa952ba7f163c4a11628f55a4df523b3ef60405160405180910390a46120a760008383611d35565b5050565b6000808273ffffffffffffffffffffffffffffffffffffffff163b119050919050565b6040518060600160405280600015158152602001600060ff1681526020016000151581525090565b828054612102906128bf565b90600052602060002090601f016020900481019282612124576000855561216b565b82601f1061213d57805160ff191683800117855561216b565b8280016001018555821561216b579182015b8281111561216a57825182559160200191906001019061214f565b5b509050612178919061217c565b5090565b5b8082111561219557600081600090555060010161217d565b5090565b6000604051905090565b600080fd5b600080fd5b60007fffffffff0000000000000000000000000000000000000000000000000000000082169050919050565b6121e2816121ad565b81146121ed57600080fd5b50565b6000813590506121ff816121d9565b92915050565b60006020828403121561221b5761221a6121a3565b5b6000612229848285016121f0565b91505092915050565b60008115159050919050565b61224781612232565b82525050565b6000602082019050612262600083018461223e565b92915050565b600081519050919050565b600082825260208201905092915050565b60005b838110156122a2578082015181840152602081019050612287565b838111156122b1576000848401525b50505050565b6000601f19601f8301169050919050565b60006122d382612268565b6122dd8185612273565b93506122ed818560208601612284565b6122f6816122b7565b840191505092915050565b6000602082019050818103600083015261231b81846122c8565b905092915050565b6000819050919050565b61233681612323565b811461234157600080fd5b50565b6000813590506123538161232d565b92915050565b60006020828403121561236f5761236e6121a3565b5b600061237d84828501612344565b91505092915050565b600073ffffffffffffffffffffffffffffffffffffffff82169050919050565b60006123b182612386565b9050919050565b6123c1816123a6565b82525050565b60006020820190506123dc60008301846123b8565b92915050565b6123eb816123a6565b81146123f657600080fd5b50565b600081359050612408816123e2565b92915050565b60008060408385031215612425576124246121a3565b5b6000612433858286016123f9565b925050602061244485828601612344565b9150509250929050565b600060ff82169050919050565b6124648161244e565b811461246f57600080fd5b50565b6000813590506124818161245b565b92915050565b6000806040838503121561249e5761249d6121a3565b5b60006124ac858286016123f9565b92505060206124bd85828601612472565b9150509250929050565b6000806000606084860312156124e0576124df6121a3565b5b60006124ee868287016123f9565b93505060206124ff868287016123f9565b925050604061251086828701612344565b9150509250925092565b6000602082840312156125305761252f6121a3565b5b600061253e848285016123f9565b91505092915050565b61255081612323565b82525050565b600060208201905061256b6000830184612547565b92915050565b61257a81612232565b811461258557600080fd5b50565b60008135905061259781612571565b92915050565b600080604083850312156125b4576125b36121a3565b5b60006125c2858286016123f9565b92505060206125d385828601612588565b9150509250929050565b600080604083850312156125f4576125f36121a3565b5b600061260285828601612472565b9250506020612613858286016123f9565b9150509250929050565b600080fd5b600080fd5b7f4e487b7100000000000000000000000000000000000000000000000000000000600052604160045260246000fd5b61265f826122b7565b810181811067ffffffffffffffff8211171561267e5761267d612627565b5b80604052505050565b6000612691612199565b905061269d8282612656565b919050565b600067ffffffffffffffff8211156126bd576126bc612627565b5b6126c6826122b7565b9050602081019050919050565b82818337600083830152505050565b60006126f56126f0846126a2565b612687565b90508281526020810184848401111561271157612710612622565b5b61271c8482856126d3565b509392505050565b600082601f8301126127395761273861261d565b5b81356127498482602086016126e2565b91505092915050565b6000806000806080858703121561276c5761276b6121a3565b5b600061277a878288016123f9565b945050602061278b878288016123f9565b935050604061279c87828801612344565b925050606085013567ffffffffffffffff8111156127bd576127bc6121a8565b5b6127c987828801612724565b91505092959194509250565b6127de81612232565b82525050565b6127ed8161244e565b82525050565b60608201600082015161280960008501826127d5565b50602082015161281c60208501826127e4565b50604082015161282f60408501826127d5565b50505050565b600060608201905061284a60008301846127f3565b92915050565b60008060408385031215612867576128666121a3565b5b6000612875858286016123f9565b9250506020612886858286016123f9565b9150509250929050565b7f4e487b7100000000000000000000000000000000000000000000000000000000600052602260045260246000fd5b600060028204905060018216806128d757607f821691505b602082108114156128eb576128ea612890565b5b50919050565b7f4552433732313a20617070726f76616c20746f2063757272656e74206f776e6560008201527f7200000000000000000000000000000000000000000000000000000000000000602082015250565b600061294d602183612273565b9150612958826128f1565b604082019050919050565b6000602082019050818103600083015261297c81612940565b9050919050565b7f4552433732313a20617070726f76652063616c6c6572206973206e6f7420746f60008201527f6b656e206f776e6572206e6f7220617070726f76656420666f7220616c6c0000602082015250565b60006129df603e83612273565b91506129ea82612983565b604082019050919050565b60006020820190508181036000830152612a0e816129d2565b9050919050565b600081905092915050565b60008190508160005260206000209050919050565b60008154612a42816128bf565b612a4c8186612a15565b94506001821660008114612a675760018114612a7857612aab565b60ff19831686528186019350612aab565b612a8185612a20565b60005b83811015612aa357815481890152600182019150602081019050612a84565b838801955050505b50505092915050565b7f3c747370616e20783d273530252720793d273235252720666f6e742d73697a6560008201527f3d2732307078273e000000000000000000000000000000000000000000000000602082015250565b6000612b10602883612a15565b9150612b1b82612ab4565b602882019050919050565b6000612b3182612268565b612b3b8185612a15565b9350612b4b818560208601612284565b80840191505092915050565b7f3c2f747370616e3e000000000000000000000000000000000000000000000000600082015250565b6000612b8d600883612a15565b9150612b9882612b57565b600882019050919050565b7f3c747370616e20783d273530252720793d273530252720666f6e742d73697a6560008201527f3d2731347078273e000000000000000000000000000000000000000000000000602082015250565b6000612bff602883612a15565b9150612c0a82612ba3565b602882019050919050565b7f3c747370616e20783d273530252720793d273735252720666f6e742d73697a6560008201527f3d2734307078273e000000000000000000000000000000000000000000000000602082015250565b6000612c71602883612a15565b9150612c7c82612c15565b602882019050919050565b7f253c2f747370616e3e3c2f746578743e3c2f7376673e00000000000000000000600082015250565b6000612cbd601683612a15565b9150612cc882612c87565b601682019050919050565b6000612cdf8287612a35565b9150612cea82612b03565b9150612cf68286612b26565b9150612d0182612b80565b9150612d0c82612bf2565b9150612d188285612b26565b9150612d2382612b80565b9150612d2e82612c64565b9150612d3a8284612b26565b9150612d4582612cb0565b915081905095945050505050565b7f7b226e616d65223a202200000000000000000000000000000000000000000000600082015250565b6000612d89600a83612a15565b9150612d9482612d53565b600a82019050919050565b7f222c20226465736372697074696f6e223a20224445534352495054494f4e5f5060008201527f4c414345484f4c444552222c2022696d616765223a2022646174613a696d616760208201527f652f7376672b786d6c3b6261736536342c000000000000000000000000000000604082015250565b6000612e21605183612a15565b9150612e2c82612d9f565b605182019050919050565b7f227d000000000000000000000000000000000000000000000000000000000000600082015250565b6000612e6d600283612a15565b9150612e7882612e37565b600282019050919050565b6000612e8e82612d7c565b9150612e9a8285612b26565b9150612ea582612e14565b9150612eb18284612b26565b9150612ebc82612e60565b91508190509392505050565b7f646174613a6170706c69636174696f6e2f6a736f6e3b6261736536342c000000600082015250565b6000612efe601d83612a15565b9150612f0982612ec8565b601d82019050919050565b6000612f1f82612ef1565b9150612f2b8284612b26565b915081905092915050565b7f4552433732313a2063616c6c6572206973206e6f7420746f6b656e206f776e6560008201527f72206e6f7220617070726f766564000000000000000000000000000000000000602082015250565b6000612f92602e83612273565b9150612f9d82612f36565b604082019050919050565b60006020820190508181036000830152612fc181612f85565b9050919050565b7f4552433732313a20696e76616c696420746f6b656e2049440000000000000000600082015250565b6000612ffe601883612273565b915061300982612fc8565b602082019050919050565b6000602082019050818103600083015261302d81612ff1565b9050919050565b7f4552433732313a2061646472657373207a65726f206973206e6f74206120766160008201527f6c6964206f776e65720000000000000000000000000000000000000000000000602082015250565b6000613090602983612273565b915061309b82613034565b604082019050919050565b600060208201905081810360008301526130bf81613083565b9050919050565b7f596f757220616464726573732069736e277420746865204578616d436f6e747260008201527f6f6c6c657220436f6e747261637420616464726573732e000000000000000000602082015250565b6000613122603783612273565b915061312d826130c6565b604082019050919050565b6000602082019050818103600083015261315181613115565b9050919050565b7f596f757220616464726573732069736e277420746865206261636b656e64206160008201527f6464726573732e00000000000000000000000000000000000000000000000000602082015250565b60006131b4602783612273565b91506131bf82613158565b604082019050919050565b600060208201905081810360008301526131e3816131a7565b9050919050565b60006131f68285612b26565b91506132028284612b26565b91508190509392505050565b7f5468657265206973206e6f207061727469636970616e7420776974682074686960008201527f7320616464726573732e00000000000000000000000000000000000000000000602082015250565b600061326a602a83612273565b91506132758261320e565b604082019050919050565b600060208201905081810360008301526132998161325d565b9050919050565b7f4e487b7100000000000000000000000000000000000000000000000000000000600052601160045260246000fd5b60006132da82612323565b91506132e583612323565b9250817fffffffffffffffffffffffffffffffffffffffffffffffffffffffffffffffff048311821515161561331e5761331d6132a0565b5b828202905092915050565b600061333482612323565b915061333f83612323565b9250827fffffffffffffffffffffffffffffffffffffffffffffffffffffffffffffffff03821115613374576133736132a0565b5b828201905092915050565b7f4e487b7100000000000000000000000000000000000000000000000000000000600052603260045260246000fd5b60006133b982612323565b915060008214156133cd576133cc6132a0565b5b600182039050919050565b7f537472696e67733a20686578206c656e67746820696e73756666696369656e74600082015250565b600061340e602083612273565b9150613419826133d8565b602082019050919050565b6000602082019050818103600083015261343d81613401565b9050919050565b600061344f82612323565b91507fffffffffffffffffffffffffffffffffffffffffffffffffffffffffffffffff821415613482576134816132a0565b5b600182019050919050565b7f4e487b7100000000000000000000000000000000000000000000000000000000600052601260045260246000fd5b60006134c782612323565b91506134d283612323565b9250826134e2576134e161348d565b5b828204905092915050565b60006134f882612323565b915061350383612323565b925082821015613516576135156132a0565b5b828203905092915050565b600061352c82612323565b915061353783612323565b9250826135475761354661348d565b5b828206905092915050565b7f45524337323155524953746f726167653a2055524920736574206f66206e6f6e60008201527f6578697374656e7420746f6b656e000000000000000000000000000000000000602082015250565b60006135ae602e83612273565b91506135b982613552565b604082019050919050565b600060208201905081810360008301526135dd816135a1565b9050919050565b7f4552433732313a207472616e736665722066726f6d20696e636f72726563742060008201527f6f776e6572000000000000000000000000000000000000000000000000000000602082015250565b6000613640602583612273565b915061364b826135e4565b604082019050919050565b6000602082019050818103600083015261366f81613633565b9050919050565b7f4552433732313a207472616e7366657220746f20746865207a65726f2061646460008201527f7265737300000000000000000000000000000000000000000000000000000000602082015250565b60006136d2602483612273565b91506136dd82613676565b604082019050919050565b60006020820190508181036000830152613701816136c5565b9050919050565b7f4552433732313a20617070726f766520746f2063616c6c657200000000000000600082015250565b600061373e601983612273565b915061374982613708565b602082019050919050565b6000602082019050818103600083015261376d81613731565b9050919050565b7f4552433732313a207472616e7366657220746f206e6f6e20455243373231526560008201527f63656976657220696d706c656d656e7465720000000000000000000000000000602082015250565b60006137d0603283612273565b91506137db82613774565b604082019050919050565b600060208201905081810360008301526137ff816137c3565b9050919050565b600081519050919050565b600082825260208201905092915050565b600061382d82613806565b6138378185613811565b9350613847818560208601612284565b613850816122b7565b840191505092915050565b600060808201905061387060008301876123b8565b61387d60208301866123b8565b61388a6040830185612547565b818103606083015261389c8184613822565b905095945050505050565b6000815190506138b6816121d9565b92915050565b6000602082840312156138d2576138d16121a3565b5b60006138e0848285016138a7565b91505092915050565b7f4552433732313a206d696e7420746f20746865207a65726f2061646472657373600082015250565b600061391f602083612273565b915061392a826138e9565b602082019050919050565b6000602082019050818103600083015261394e81613912565b9050919050565b7f4552433732313a20746f6b656e20616c7265616479206d696e74656400000000600082015250565b600061398b601c83612273565b915061399682613955565b602082019050919050565b600060208201905081810360008301526139ba8161397e565b905091905056fe4142434445464748494a4b4c4d4e4f505152535455565758595a6162636465666768696a6b6c6d6e6f707172737475767778797a303132333435363738392b2fa2646970667358221220e179f7e7df55eedba02e464dc8473a35f07301288ba90cd9002fb29d5644d48d64736f6c634300080900333c73766720786d6c6e733d27687474703a2f2f7777772e77332e6f72672f323030302f73766727207072657365727665417370656374526174696f3d27784d696e594d696e206d656574272076696577426f783d273020302033353020333530273e3c7374796c653e2e62617365207b2066696c6c3a2077686974653b20666f6e742d66616d696c793a2073657269663b20666f6e742d73697a653a20323470783b207d3c2f7374796c653e3c726563742077696474683d273130302527206865696768743d2731303025272066696c6c3d27677265656e27202f3e3c7465787420783d273530252720793d273530252720636c6173733d27626173652720646f6d696e616e742d626173656c696e653d276d6964646c652720746578742d616e63686f723d276d6964646c65273ea264697066735822122099459161faa4429adc7dbf5d694c11ac86b34ae6ec1852e5cd587bec484d838c64736f6c63430008090033",
  "linkReferences": {},
  "deployedLinkReferences": {}
}